{
	"contracts/KipuBank.sol": {
		"KipuBank": {
			"abi": [
				{
					"inputs": [
						{
							"internalType": "uint256",
							"name": "_limite",
							"type": "uint256"
						}
					],
					"stateMutability": "nonpayable",
					"type": "constructor"
				},
				{
					"inputs": [
						{
							"internalType": "address",
							"name": "titular",
							"type": "address"
						},
						{
							"internalType": "uint256",
							"name": "monto",
							"type": "uint256"
						}
					],
					"name": "KipuBank_DepositoRechazado",
					"type": "error"
				},
				{
					"inputs": [
						{
							"internalType": "address",
							"name": "titular",
							"type": "address"
						},
						{
							"internalType": "uint256",
							"name": "monto",
							"type": "uint256"
						}
					],
					"name": "KipuBank_ExtraccionRechazada",
					"type": "error"
				},
				{
					"inputs": [
						{
							"internalType": "uint256",
							"name": "monto",
							"type": "uint256"
						}
					],
					"name": "KipuBank_LimiteExcedido",
					"type": "error"
				},
				{
					"inputs": [
						{
							"internalType": "address",
							"name": "titular",
							"type": "address"
						}
					],
					"name": "KipuBank_MontoCero",
					"type": "error"
				},
				{
					"inputs": [
						{
							"internalType": "address",
							"name": "titular",
							"type": "address"
						},
						{
							"internalType": "uint256",
							"name": "monto",
							"type": "uint256"
						}
					],
					"name": "KipuBank_MontoInsuficiente",
					"type": "error"
				},
				{
					"inputs": [
						{
							"internalType": "address",
							"name": "titular",
							"type": "address"
						},
						{
							"internalType": "uint256",
							"name": "monto",
							"type": "uint256"
						}
					],
					"name": "KipuBank_SaldoInsuficiente",
					"type": "error"
				},
				{
					"inputs": [
						{
							"internalType": "uint256",
							"name": "monto",
							"type": "uint256"
						}
					],
					"name": "KipuBank_UmbralExcedido",
					"type": "error"
				},
				{
					"anonymous": false,
					"inputs": [
						{
							"indexed": false,
							"internalType": "address",
							"name": "titular",
							"type": "address"
						},
						{
							"indexed": false,
							"internalType": "uint256",
							"name": "monto",
							"type": "uint256"
						}
					],
					"name": "KipuBank_DepositoRealizado",
					"type": "event"
				},
				{
					"anonymous": false,
					"inputs": [
						{
							"indexed": false,
							"internalType": "address",
							"name": "titular",
							"type": "address"
						},
						{
							"indexed": false,
							"internalType": "uint256",
							"name": "monto",
							"type": "uint256"
						}
					],
					"name": "KipuBank_ExtraccionRealizada",
					"type": "event"
				},
				{
					"inputs": [],
					"name": "depositarEnBoveda",
					"outputs": [],
					"stateMutability": "payable",
					"type": "function"
				},
				{
					"inputs": [
						{
							"internalType": "uint256",
							"name": "_monto",
							"type": "uint256"
						}
					],
					"name": "retirarDeBoveda",
					"outputs": [],
					"stateMutability": "nonpayable",
					"type": "function"
				},
				{
					"inputs": [],
					"name": "verBoveda",
					"outputs": [
						{
							"internalType": "uint256",
							"name": "monto_",
							"type": "uint256"
						}
					],
					"stateMutability": "view",
					"type": "function"
				},
				{
					"inputs": [],
					"name": "verTotalContrato",
					"outputs": [
						{
							"internalType": "uint256",
							"name": "",
							"type": "uint256"
						}
					],
					"stateMutability": "view",
					"type": "function"
				},
				{
					"inputs": [],
					"name": "verTotalDepositos",
					"outputs": [
						{
							"internalType": "uint256",
							"name": "",
							"type": "uint256"
						}
					],
					"stateMutability": "view",
					"type": "function"
				},
				{
					"inputs": [],
					"name": "verTotalRetiros",
					"outputs": [
						{
							"internalType": "uint256",
							"name": "",
							"type": "uint256"
						}
					],
					"stateMutability": "view",
					"type": "function"
				}
			],
			"devdoc": {
				"kind": "dev",
				"methods": {},
				"version": 1
			},
			"evm": {
				"assembly": "    /* \"contracts/KipuBank.sol\":143:4437  contract KipuBank {... */\n  mstore(0x40, 0xa0)\n    /* \"contracts/KipuBank.sol\":463:464  0 */\n  0x00\n    /* \"contracts/KipuBank.sol\":438:464  uint private depositos = 0 */\n  0x00\n  sstore\n    /* \"contracts/KipuBank.sol\":540:541  0 */\n  0x00\n    /* \"contracts/KipuBank.sol\":517:541  uint private retiros = 0 */\n  0x01\n  sstore\n    /* \"contracts/KipuBank.sol\":631:632  0 */\n  0x00\n    /* \"contracts/KipuBank.sol\":602:632  uint private totalContrato = 0 */\n  0x02\n  sstore\n    /* \"contracts/KipuBank.sol\":1826:1886  constructor(uint _limite) {... */\n  callvalue\n  dup1\n  iszero\n  tag_1\n  jumpi\n  revert(0x00, 0x00)\ntag_1:\n  pop\n  mload(0x40)\n  sub(codesize, bytecodeSize)\n  dup1\n  bytecodeSize\n  dup4\n  codecopy\n  dup2\n  dup2\n  add\n  0x40\n  mstore\n  dup2\n  add\n  swap1\n  tag_2\n  swap2\n  swap1\n  tag_3\n  jump\t// in\ntag_2:\n    /* \"contracts/KipuBank.sol\":1872:1879  _limite */\n  dup1\n    /* \"contracts/KipuBank.sol\":1862:1879  bankCap = _limite */\n  0x80\n  dup2\n  dup2\n  mstore\n  pop\n  pop\n    /* \"contracts/KipuBank.sol\":1826:1886  constructor(uint _limite) {... */\n  pop\n    /* \"contracts/KipuBank.sol\":143:4437  contract KipuBank {... */\n  jump(tag_6)\n    /* \"#utility.yul\":88:205   */\ntag_8:\n    /* \"#utility.yul\":197:198   */\n  0x00\n    /* \"#utility.yul\":194:195   */\n  0x00\n    /* \"#utility.yul\":187:199   */\n  revert\n    /* \"#utility.yul\":334:411   */\ntag_10:\n    /* \"#utility.yul\":371:378   */\n  0x00\n    /* \"#utility.yul\":400:405   */\n  dup2\n    /* \"#utility.yul\":389:405   */\n  swap1\n  pop\n    /* \"#utility.yul\":334:411   */\n  swap2\n  swap1\n  pop\n  jump\t// out\n    /* \"#utility.yul\":417:539   */\ntag_11:\n    /* \"#utility.yul\":490:514   */\n  tag_19\n    /* \"#utility.yul\":508:513   */\n  dup2\n    /* \"#utility.yul\":490:514   */\n  tag_10\n  jump\t// in\ntag_19:\n    /* \"#utility.yul\":483:488   */\n  dup2\n    /* \"#utility.yul\":480:515   */\n  eq\n    /* \"#utility.yul\":470:533   */\n  tag_20\n  jumpi\n    /* \"#utility.yul\":529:530   */\n  0x00\n    /* \"#utility.yul\":526:527   */\n  0x00\n    /* \"#utility.yul\":519:531   */\n  revert\n    /* \"#utility.yul\":470:533   */\ntag_20:\n    /* \"#utility.yul\":417:539   */\n  pop\n  jump\t// out\n    /* \"#utility.yul\":545:688   */\ntag_12:\n    /* \"#utility.yul\":602:607   */\n  0x00\n    /* \"#utility.yul\":633:639   */\n  dup2\n    /* \"#utility.yul\":627:640   */\n  mload\n    /* \"#utility.yul\":618:640   */\n  swap1\n  pop\n    /* \"#utility.yul\":649:682   */\n  tag_22\n    /* \"#utility.yul\":676:681   */\n  dup2\n    /* \"#utility.yul\":649:682   */\n  tag_11\n  jump\t// in\ntag_22:\n    /* \"#utility.yul\":545:688   */\n  swap3\n  swap2\n  pop\n  pop\n  jump\t// out\n    /* \"#utility.yul\":694:1045   */\ntag_3:\n    /* \"#utility.yul\":764:770   */\n  0x00\n    /* \"#utility.yul\":813:815   */\n  0x20\n    /* \"#utility.yul\":801:810   */\n  dup3\n    /* \"#utility.yul\":792:799   */\n  dup5\n    /* \"#utility.yul\":788:811   */\n  sub\n    /* \"#utility.yul\":784:816   */\n  slt\n    /* \"#utility.yul\":781:900   */\n  iszero\n  tag_24\n  jumpi\n    /* \"#utility.yul\":819:898   */\n  tag_25\n  tag_8\n  jump\t// in\ntag_25:\n    /* \"#utility.yul\":781:900   */\ntag_24:\n    /* \"#utility.yul\":939:940   */\n  0x00\n    /* \"#utility.yul\":964:1028   */\n  tag_26\n    /* \"#utility.yul\":1020:1027   */\n  dup5\n    /* \"#utility.yul\":1011:1017   */\n  dup3\n    /* \"#utility.yul\":1000:1009   */\n  dup6\n    /* \"#utility.yul\":996:1018   */\n  add\n    /* \"#utility.yul\":964:1028   */\n  tag_12\n  jump\t// in\ntag_26:\n    /* \"#utility.yul\":954:1028   */\n  swap2\n  pop\n    /* \"#utility.yul\":910:1038   */\n  pop\n    /* \"#utility.yul\":694:1045   */\n  swap3\n  swap2\n  pop\n  pop\n  jump\t// out\n    /* \"contracts/KipuBank.sol\":143:4437  contract KipuBank {... */\ntag_6:\n  mload(0x80)\n  codecopy(0x00, dataOffset(sub_0), dataSize(sub_0))\n  0x00\n  assignImmutable(\"0xe455bf8ea6e7463a1046a0b52804526e119b4bf5136279614e0b1e8e296a4e2d\")\n  return(0x00, dataSize(sub_0))\nstop\n\nsub_0: assembly {\n        /* \"contracts/KipuBank.sol\":143:4437  contract KipuBank {... */\n      mstore(0x40, 0x80)\n      jumpi(tag_1, lt(calldatasize, 0x04))\n      shr(0xe0, calldataload(0x00))\n      dup1\n      0x6900670c\n      eq\n      tag_2\n      jumpi\n      dup1\n      0x8debc4a8\n      eq\n      tag_3\n      jumpi\n      dup1\n      0x93295c1c\n      eq\n      tag_4\n      jumpi\n      dup1\n      0xacaf5a14\n      eq\n      tag_5\n      jumpi\n      dup1\n      0xc6aca33c\n      eq\n      tag_6\n      jumpi\n      dup1\n      0xf39b1809\n      eq\n      tag_7\n      jumpi\n    tag_1:\n      revert(0x00, 0x00)\n        /* \"contracts/KipuBank.sol\":3867:3968  function verBoveda() external view returns (uint monto_) {... */\n    tag_2:\n      callvalue\n      dup1\n      iszero\n      tag_8\n      jumpi\n      revert(0x00, 0x00)\n    tag_8:\n      pop\n      tag_9\n      tag_10\n      jump\t// in\n    tag_9:\n      mload(0x40)\n      tag_11\n      swap2\n      swap1\n      tag_12\n      jump\t// in\n    tag_11:\n      mload(0x40)\n      dup1\n      swap2\n      sub\n      swap1\n      return\n        /* \"contracts/KipuBank.sol\":3215:3325  function retirarDeBoveda(uint _monto) external verificarRetiro(_monto) {... */\n    tag_3:\n      callvalue\n      dup1\n      iszero\n      tag_13\n      jumpi\n      revert(0x00, 0x00)\n    tag_13:\n      pop\n      tag_14\n      0x04\n      dup1\n      calldatasize\n      sub\n      dup2\n      add\n      swap1\n      tag_15\n      swap2\n      swap1\n      tag_16\n      jump\t// in\n    tag_15:\n      tag_17\n      jump\t// in\n    tag_14:\n      stop\n        /* \"contracts/KipuBank.sol\":4340:4434  function verTotalContrato() external view returns (uint) {... */\n    tag_4:\n      callvalue\n      dup1\n      iszero\n      tag_18\n      jumpi\n      revert(0x00, 0x00)\n    tag_18:\n      pop\n      tag_19\n      tag_20\n      jump\t// in\n    tag_19:\n      mload(0x40)\n      tag_21\n      swap2\n      swap1\n      tag_12\n      jump\t// in\n    tag_21:\n      mload(0x40)\n      dup1\n      swap2\n      sub\n      swap1\n      return\n        /* \"contracts/KipuBank.sol\":3445:3733  function depositarEnBoveda() external payable verificarDepositos(msg.value) {... */\n    tag_5:\n      tag_22\n      tag_23\n      jump\t// in\n    tag_22:\n      stop\n        /* \"contracts/KipuBank.sol\":4189:4276  function verTotalRetiros() external view returns (uint) {... */\n    tag_6:\n      callvalue\n      dup1\n      iszero\n      tag_24\n      jumpi\n      revert(0x00, 0x00)\n    tag_24:\n      pop\n      tag_25\n      tag_26\n      jump\t// in\n    tag_25:\n      mload(0x40)\n      tag_27\n      swap2\n      swap1\n      tag_12\n      jump\t// in\n    tag_27:\n      mload(0x40)\n      dup1\n      swap2\n      sub\n      swap1\n      return\n        /* \"contracts/KipuBank.sol\":4034:4125  function verTotalDepositos() external view returns (uint) {... */\n    tag_7:\n      callvalue\n      dup1\n      iszero\n      tag_28\n      jumpi\n      revert(0x00, 0x00)\n    tag_28:\n      pop\n      tag_29\n      tag_30\n      jump\t// in\n    tag_29:\n      mload(0x40)\n      tag_31\n      swap2\n      swap1\n      tag_12\n      jump\t// in\n    tag_31:\n      mload(0x40)\n      dup1\n      swap2\n      sub\n      swap1\n      return\n        /* \"contracts/KipuBank.sol\":3867:3968  function verBoveda() external view returns (uint monto_) {... */\n    tag_10:\n        /* \"contracts/KipuBank.sol\":3911:3922  uint monto_ */\n      0x00\n        /* \"contracts/KipuBank.sol\":3943:3949  boveda */\n      0x03\n        /* \"contracts/KipuBank.sol\":3943:3961  boveda[msg.sender] */\n      0x00\n        /* \"contracts/KipuBank.sol\":3950:3960  msg.sender */\n      caller\n        /* \"contracts/KipuBank.sol\":3943:3961  boveda[msg.sender] */\n      0xffffffffffffffffffffffffffffffffffffffff\n      and\n      0xffffffffffffffffffffffffffffffffffffffff\n      and\n      dup2\n      mstore\n      0x20\n      add\n      swap1\n      dup2\n      mstore\n      0x20\n      add\n      0x00\n      keccak256\n      sload\n        /* \"contracts/KipuBank.sol\":3934:3961  monto_ = boveda[msg.sender] */\n      swap1\n      pop\n        /* \"contracts/KipuBank.sol\":3867:3968  function verBoveda() external view returns (uint monto_) {... */\n      swap1\n      jump\t// out\n        /* \"contracts/KipuBank.sol\":3215:3325  function retirarDeBoveda(uint _monto) external verificarRetiro(_monto) {... */\n    tag_17:\n        /* \"contracts/KipuBank.sol\":3278:3284  _monto */\n      dup1\n        /* \"contracts/KipuBank.sol\":2333:2334  0 */\n      0x00\n        /* \"contracts/KipuBank.sol\":2323:2329  _monto */\n      dup2\n        /* \"contracts/KipuBank.sol\":2323:2334  _monto <= 0 */\n      gt\n        /* \"contracts/KipuBank.sol\":2320:2373  if(_monto <= 0) revert KipuBank_MontoCero(msg.sender) */\n      tag_34\n      jumpi\n        /* \"contracts/KipuBank.sol\":2362:2372  msg.sender */\n      caller\n        /* \"contracts/KipuBank.sol\":2343:2373  KipuBank_MontoCero(msg.sender) */\n      mload(0x40)\n      0xb2f0923100000000000000000000000000000000000000000000000000000000\n      dup2\n      mstore\n      0x04\n      add\n      tag_35\n      swap2\n      swap1\n      tag_36\n      jump\t// in\n    tag_35:\n      mload(0x40)\n      dup1\n      swap2\n      sub\n      swap1\n      revert\n        /* \"contracts/KipuBank.sol\":2320:2373  if(_monto <= 0) revert KipuBank_MontoCero(msg.sender) */\n    tag_34:\n        /* \"contracts/KipuBank.sol\":313:315  50 */\n      0x32\n        /* \"contracts/KipuBank.sol\":2387:2393  _monto */\n      dup2\n        /* \"contracts/KipuBank.sol\":2387:2402  _monto > umbral */\n      gt\n        /* \"contracts/KipuBank.sol\":2383:2442  if (_monto > umbral) revert KipuBank_UmbralExcedido(_monto) */\n      iszero\n      tag_37\n      jumpi\n        /* \"contracts/KipuBank.sol\":2435:2441  _monto */\n      dup1\n        /* \"contracts/KipuBank.sol\":2411:2442  KipuBank_UmbralExcedido(_monto) */\n      mload(0x40)\n      0xc399356500000000000000000000000000000000000000000000000000000000\n      dup2\n      mstore\n      0x04\n      add\n      tag_38\n      swap2\n      swap1\n      tag_12\n      jump\t// in\n    tag_38:\n      mload(0x40)\n      dup1\n      swap2\n      sub\n      swap1\n      revert\n        /* \"contracts/KipuBank.sol\":2383:2442  if (_monto > umbral) revert KipuBank_UmbralExcedido(_monto) */\n    tag_37:\n        /* \"contracts/KipuBank.sol\":2465:2471  boveda */\n      0x03\n        /* \"contracts/KipuBank.sol\":2465:2483  boveda[msg.sender] */\n      0x00\n        /* \"contracts/KipuBank.sol\":2472:2482  msg.sender */\n      caller\n        /* \"contracts/KipuBank.sol\":2465:2483  boveda[msg.sender] */\n      0xffffffffffffffffffffffffffffffffffffffff\n      and\n      0xffffffffffffffffffffffffffffffffffffffff\n      and\n      dup2\n      mstore\n      0x20\n      add\n      swap1\n      dup2\n      mstore\n      0x20\n      add\n      0x00\n      keccak256\n      sload\n        /* \"contracts/KipuBank.sol\":2456:2462  _monto */\n      dup2\n        /* \"contracts/KipuBank.sol\":2456:2483  _monto > boveda[msg.sender] */\n      gt\n        /* \"contracts/KipuBank.sol\":2452:2538  if (_monto > boveda[msg.sender]) revert KipuBank_SaldoInsuficiente(msg.sender, _monto) */\n      iszero\n      tag_39\n      jumpi\n        /* \"contracts/KipuBank.sol\":2519:2529  msg.sender */\n      caller\n        /* \"contracts/KipuBank.sol\":2531:2537  _monto */\n      dup2\n        /* \"contracts/KipuBank.sol\":2492:2538  KipuBank_SaldoInsuficiente(msg.sender, _monto) */\n      mload(0x40)\n      0x51a7314200000000000000000000000000000000000000000000000000000000\n      dup2\n      mstore\n      0x04\n      add\n      tag_40\n      swap3\n      swap2\n      swap1\n      tag_41\n      jump\t// in\n    tag_40:\n      mload(0x40)\n      dup1\n      swap2\n      sub\n      swap1\n      revert\n        /* \"contracts/KipuBank.sol\":2452:2538  if (_monto > boveda[msg.sender]) revert KipuBank_SaldoInsuficiente(msg.sender, _monto) */\n    tag_39:\n        /* \"contracts/KipuBank.sol\":3296:3318  _retirarFondos(_monto) */\n      tag_43\n        /* \"contracts/KipuBank.sol\":3311:3317  _monto */\n      dup3\n        /* \"contracts/KipuBank.sol\":3296:3310  _retirarFondos */\n      tag_44\n        /* \"contracts/KipuBank.sol\":3296:3318  _retirarFondos(_monto) */\n      jump\t// in\n    tag_43:\n        /* \"contracts/KipuBank.sol\":3215:3325  function retirarDeBoveda(uint _monto) external verificarRetiro(_monto) {... */\n      pop\n      pop\n      jump\t// out\n        /* \"contracts/KipuBank.sol\":4340:4434  function verTotalContrato() external view returns (uint) {... */\n    tag_20:\n        /* \"contracts/KipuBank.sol\":4391:4395  uint */\n      0x00\n        /* \"contracts/KipuBank.sol\":4414:4427  totalContrato */\n      sload(0x02)\n        /* \"contracts/KipuBank.sol\":4407:4427  return totalContrato */\n      swap1\n      pop\n        /* \"contracts/KipuBank.sol\":4340:4434  function verTotalContrato() external view returns (uint) {... */\n      swap1\n      jump\t// out\n        /* \"contracts/KipuBank.sol\":3445:3733  function depositarEnBoveda() external payable verificarDepositos(msg.value) {... */\n    tag_23:\n        /* \"contracts/KipuBank.sol\":3510:3519  msg.value */\n      callvalue\n        /* \"contracts/KipuBank.sol\":2009:2010  0 */\n      0x00\n        /* \"contracts/KipuBank.sol\":1999:2005  _monto */\n      dup2\n        /* \"contracts/KipuBank.sol\":1999:2010  _monto <= 0 */\n      gt\n        /* \"contracts/KipuBank.sol\":1996:2049  if(_monto <= 0) revert KipuBank_MontoCero(msg.sender) */\n      tag_47\n      jumpi\n        /* \"contracts/KipuBank.sol\":2038:2048  msg.sender */\n      caller\n        /* \"contracts/KipuBank.sol\":2019:2049  KipuBank_MontoCero(msg.sender) */\n      mload(0x40)\n      0xb2f0923100000000000000000000000000000000000000000000000000000000\n      dup2\n      mstore\n      0x04\n      add\n      tag_48\n      swap2\n      swap1\n      tag_36\n      jump\t// in\n    tag_48:\n      mload(0x40)\n      dup1\n      swap2\n      sub\n      swap1\n      revert\n        /* \"contracts/KipuBank.sol\":1996:2049  if(_monto <= 0) revert KipuBank_MontoCero(msg.sender) */\n    tag_47:\n        /* \"contracts/KipuBank.sol\":2089:2096  bankCap */\n      immutable(\"0xe455bf8ea6e7463a1046a0b52804526e119b4bf5136279614e0b1e8e296a4e2d\")\n        /* \"contracts/KipuBank.sol\":2072:2085  totalContrato */\n      sload(0x02)\n        /* \"contracts/KipuBank.sol\":2063:2069  _monto */\n      dup3\n        /* \"contracts/KipuBank.sol\":2063:2085  _monto + totalContrato */\n      tag_49\n      swap2\n      swap1\n      tag_50\n      jump\t// in\n    tag_49:\n        /* \"contracts/KipuBank.sol\":2063:2096  _monto + totalContrato >= bankCap */\n      lt\n        /* \"contracts/KipuBank.sol\":2059:2136  if (_monto + totalContrato >= bankCap) revert KipuBank_LimiteExcedido(_monto) */\n      tag_51\n      jumpi\n        /* \"contracts/KipuBank.sol\":2129:2135  _monto */\n      dup1\n        /* \"contracts/KipuBank.sol\":2105:2136  KipuBank_LimiteExcedido(_monto) */\n      mload(0x40)\n      0x2900b02c00000000000000000000000000000000000000000000000000000000\n      dup2\n      mstore\n      0x04\n      add\n      tag_52\n      swap2\n      swap1\n      tag_12\n      jump\t// in\n    tag_52:\n      mload(0x40)\n      dup1\n      swap2\n      sub\n      swap1\n      revert\n        /* \"contracts/KipuBank.sol\":2059:2136  if (_monto + totalContrato >= bankCap) revert KipuBank_LimiteExcedido(_monto) */\n    tag_51:\n        /* \"contracts/KipuBank.sol\":3573:3582  msg.value */\n      callvalue\n        /* \"contracts/KipuBank.sol\":3552:3558  boveda */\n      0x03\n        /* \"contracts/KipuBank.sol\":3552:3570  boveda[msg.sender] */\n      0x00\n        /* \"contracts/KipuBank.sol\":3559:3569  msg.sender */\n      caller\n        /* \"contracts/KipuBank.sol\":3552:3570  boveda[msg.sender] */\n      0xffffffffffffffffffffffffffffffffffffffff\n      and\n      0xffffffffffffffffffffffffffffffffffffffff\n      and\n      dup2\n      mstore\n      0x20\n      add\n      swap1\n      dup2\n      mstore\n      0x20\n      add\n      0x00\n      keccak256\n      sload\n        /* \"contracts/KipuBank.sol\":3552:3582  boveda[msg.sender] + msg.value */\n      tag_54\n      swap2\n      swap1\n      tag_50\n      jump\t// in\n    tag_54:\n        /* \"contracts/KipuBank.sol\":3531:3537  boveda */\n      0x03\n        /* \"contracts/KipuBank.sol\":3531:3549  boveda[msg.sender] */\n      0x00\n        /* \"contracts/KipuBank.sol\":3538:3548  msg.sender */\n      caller\n        /* \"contracts/KipuBank.sol\":3531:3549  boveda[msg.sender] */\n      0xffffffffffffffffffffffffffffffffffffffff\n      and\n      0xffffffffffffffffffffffffffffffffffffffff\n      and\n      dup2\n      mstore\n      0x20\n      add\n      swap1\n      dup2\n      mstore\n      0x20\n      add\n      0x00\n      keccak256\n        /* \"contracts/KipuBank.sol\":3531:3582  boveda[msg.sender] = boveda[msg.sender] + msg.value */\n      dup2\n      swap1\n      sstore\n      pop\n        /* \"contracts/KipuBank.sol\":3600:3609  depositos */\n      0x00\n      0x00\n        /* \"contracts/KipuBank.sol\":3600:3611  depositos++ */\n      dup2\n      sload\n      dup1\n      swap3\n      swap2\n      swap1\n      tag_55\n      swap1\n      tag_56\n      jump\t// in\n    tag_55:\n      swap2\n      swap1\n      pop\n      sstore\n      pop\n        /* \"contracts/KipuBank.sol\":3653:3662  msg.value */\n      callvalue\n        /* \"contracts/KipuBank.sol\":3637:3650  totalContrato */\n      sload(0x02)\n        /* \"contracts/KipuBank.sol\":3637:3662  totalContrato + msg.value */\n      tag_57\n      swap2\n      swap1\n      tag_50\n      jump\t// in\n    tag_57:\n        /* \"contracts/KipuBank.sol\":3621:3634  totalContrato */\n      0x02\n        /* \"contracts/KipuBank.sol\":3621:3662  totalContrato = totalContrato + msg.value */\n      dup2\n      swap1\n      sstore\n      pop\n        /* \"contracts/KipuBank.sol\":3677:3726  KipuBank_DepositoRealizado(msg.sender, msg.value) */\n      0x9d15693852bf60dc27bd5aa831d0351359b7d01d428ae1baae11f15cbcfebafd\n        /* \"contracts/KipuBank.sol\":3704:3714  msg.sender */\n      caller\n        /* \"contracts/KipuBank.sol\":3716:3725  msg.value */\n      callvalue\n        /* \"contracts/KipuBank.sol\":3677:3726  KipuBank_DepositoRealizado(msg.sender, msg.value) */\n      mload(0x40)\n      tag_58\n      swap3\n      swap2\n      swap1\n      tag_41\n      jump\t// in\n    tag_58:\n      mload(0x40)\n      dup1\n      swap2\n      sub\n      swap1\n      log1\n        /* \"contracts/KipuBank.sol\":3445:3733  function depositarEnBoveda() external payable verificarDepositos(msg.value) {... */\n      pop\n      jump\t// out\n        /* \"contracts/KipuBank.sol\":4189:4276  function verTotalRetiros() external view returns (uint) {... */\n    tag_26:\n        /* \"contracts/KipuBank.sol\":4239:4243  uint */\n      0x00\n        /* \"contracts/KipuBank.sol\":4262:4269  retiros */\n      sload(0x01)\n        /* \"contracts/KipuBank.sol\":4255:4269  return retiros */\n      swap1\n      pop\n        /* \"contracts/KipuBank.sol\":4189:4276  function verTotalRetiros() external view returns (uint) {... */\n      swap1\n      jump\t// out\n        /* \"contracts/KipuBank.sol\":4034:4125  function verTotalDepositos() external view returns (uint) {... */\n    tag_30:\n        /* \"contracts/KipuBank.sol\":4086:4090  uint */\n      0x00\n        /* \"contracts/KipuBank.sol\":4109:4118  depositos */\n      sload(0x00)\n        /* \"contracts/KipuBank.sol\":4102:4118  return depositos */\n      swap1\n      pop\n        /* \"contracts/KipuBank.sol\":4034:4125  function verTotalDepositos() external view returns (uint) {... */\n      swap1\n      jump\t// out\n        /* \"contracts/KipuBank.sol\":2693:3092  function _retirarFondos(uint _monto) private {... */\n    tag_44:\n        /* \"contracts/KipuBank.sol\":2790:2796  _monto */\n      dup1\n        /* \"contracts/KipuBank.sol\":2769:2775  boveda */\n      0x03\n        /* \"contracts/KipuBank.sol\":2769:2787  boveda[msg.sender] */\n      0x00\n        /* \"contracts/KipuBank.sol\":2776:2786  msg.sender */\n      caller\n        /* \"contracts/KipuBank.sol\":2769:2787  boveda[msg.sender] */\n      0xffffffffffffffffffffffffffffffffffffffff\n      and\n      0xffffffffffffffffffffffffffffffffffffffff\n      and\n      dup2\n      mstore\n      0x20\n      add\n      swap1\n      dup2\n      mstore\n      0x20\n      add\n      0x00\n      keccak256\n      sload\n        /* \"contracts/KipuBank.sol\":2769:2796  boveda[msg.sender] - _monto */\n      tag_62\n      swap2\n      swap1\n      tag_63\n      jump\t// in\n    tag_62:\n        /* \"contracts/KipuBank.sol\":2748:2754  boveda */\n      0x03\n        /* \"contracts/KipuBank.sol\":2748:2766  boveda[msg.sender] */\n      0x00\n        /* \"contracts/KipuBank.sol\":2755:2765  msg.sender */\n      caller\n        /* \"contracts/KipuBank.sol\":2748:2766  boveda[msg.sender] */\n      0xffffffffffffffffffffffffffffffffffffffff\n      and\n      0xffffffffffffffffffffffffffffffffffffffff\n      and\n      dup2\n      mstore\n      0x20\n      add\n      swap1\n      dup2\n      mstore\n      0x20\n      add\n      0x00\n      keccak256\n        /* \"contracts/KipuBank.sol\":2748:2796  boveda[msg.sender] = boveda[msg.sender] - _monto */\n      dup2\n      swap1\n      sstore\n      pop\n        /* \"contracts/KipuBank.sol\":2806:2813  retiros */\n      0x01\n      0x00\n        /* \"contracts/KipuBank.sol\":2806:2815  retiros++ */\n      dup2\n      sload\n      dup1\n      swap3\n      swap2\n      swap1\n      tag_64\n      swap1\n      tag_56\n      jump\t// in\n    tag_64:\n      swap2\n      swap1\n      pop\n      sstore\n      pop\n        /* \"contracts/KipuBank.sol\":2857:2863  _monto */\n      dup1\n        /* \"contracts/KipuBank.sol\":2841:2854  totalContrato */\n      sload(0x02)\n        /* \"contracts/KipuBank.sol\":2841:2863  totalContrato - _monto */\n      tag_65\n      swap2\n      swap1\n      tag_63\n      jump\t// in\n    tag_65:\n        /* \"contracts/KipuBank.sol\":2825:2838  totalContrato */\n      0x02\n        /* \"contracts/KipuBank.sol\":2825:2863  totalContrato = totalContrato - _monto */\n      dup2\n      swap1\n      sstore\n      pop\n        /* \"contracts/KipuBank.sol\":2887:2935  KipuBank_ExtraccionRealizada(msg.sender, _monto) */\n      0x9cde449504e4972ffddec09813e0c252a1462d76bef1864b9e7520dadb7183e8\n        /* \"contracts/KipuBank.sol\":2916:2926  msg.sender */\n      caller\n        /* \"contracts/KipuBank.sol\":2928:2934  _monto */\n      dup3\n        /* \"contracts/KipuBank.sol\":2887:2935  KipuBank_ExtraccionRealizada(msg.sender, _monto) */\n      mload(0x40)\n      tag_66\n      swap3\n      swap2\n      swap1\n      tag_41\n      jump\t// in\n    tag_66:\n      mload(0x40)\n      dup1\n      swap2\n      sub\n      swap1\n      log1\n        /* \"contracts/KipuBank.sol\":2947:2958  bool succes */\n      0x00\n        /* \"contracts/KipuBank.sol\":2972:2982  msg.sender */\n      caller\n        /* \"contracts/KipuBank.sol\":2964:2988  payable(msg.sender).call */\n      0xffffffffffffffffffffffffffffffffffffffff\n      and\n        /* \"contracts/KipuBank.sol\":2996:3002  _monto */\n      dup3\n        /* \"contracts/KipuBank.sol\":2964:3007  payable(msg.sender).call{value: _monto}(\"\") */\n      mload(0x40)\n      tag_67\n      swap1\n      tag_68\n      jump\t// in\n    tag_67:\n      0x00\n      mload(0x40)\n      dup1\n      dup4\n      sub\n      dup2\n      dup6\n      dup8\n      gas\n      call\n      swap3\n      pop\n      pop\n      pop\n      returndatasize\n      dup1\n      0x00\n      dup2\n      eq\n      tag_71\n      jumpi\n      mload(0x40)\n      swap2\n      pop\n      and(add(returndatasize, 0x3f), not(0x1f))\n      dup3\n      add\n      0x40\n      mstore\n      returndatasize\n      dup3\n      mstore\n      returndatasize\n      0x00\n      0x20\n      dup5\n      add\n      returndatacopy\n      jump(tag_70)\n    tag_71:\n      0x60\n      swap2\n      pop\n    tag_70:\n      pop\n        /* \"contracts/KipuBank.sol\":2946:3007  (bool succes, ) = payable(msg.sender).call{value: _monto}(\"\") */\n      pop\n      swap1\n      pop\n        /* \"contracts/KipuBank.sol\":3022:3028  succes */\n      dup1\n        /* \"contracts/KipuBank.sol\":3017:3085  if (!succes) revert KipuBank_ExtraccionRechazada(msg.sender, _monto) */\n      tag_72\n      jumpi\n        /* \"contracts/KipuBank.sol\":3066:3076  msg.sender */\n      caller\n        /* \"contracts/KipuBank.sol\":3078:3084  _monto */\n      dup3\n        /* \"contracts/KipuBank.sol\":3037:3085  KipuBank_ExtraccionRechazada(msg.sender, _monto) */\n      mload(0x40)\n      0x6c5e1a1400000000000000000000000000000000000000000000000000000000\n      dup2\n      mstore\n      0x04\n      add\n      tag_73\n      swap3\n      swap2\n      swap1\n      tag_41\n      jump\t// in\n    tag_73:\n      mload(0x40)\n      dup1\n      swap2\n      sub\n      swap1\n      revert\n        /* \"contracts/KipuBank.sol\":3017:3085  if (!succes) revert KipuBank_ExtraccionRechazada(msg.sender, _monto) */\n    tag_72:\n        /* \"contracts/KipuBank.sol\":2738:3092  {... */\n      pop\n        /* \"contracts/KipuBank.sol\":2693:3092  function _retirarFondos(uint _monto) private {... */\n      pop\n      jump\t// out\n        /* \"#utility.yul\":7:84   */\n    tag_74:\n        /* \"#utility.yul\":44:51   */\n      0x00\n        /* \"#utility.yul\":73:78   */\n      dup2\n        /* \"#utility.yul\":62:78   */\n      swap1\n      pop\n        /* \"#utility.yul\":7:84   */\n      swap2\n      swap1\n      pop\n      jump\t// out\n        /* \"#utility.yul\":90:208   */\n    tag_75:\n        /* \"#utility.yul\":177:201   */\n      tag_91\n        /* \"#utility.yul\":195:200   */\n      dup2\n        /* \"#utility.yul\":177:201   */\n      tag_74\n      jump\t// in\n    tag_91:\n        /* \"#utility.yul\":172:175   */\n      dup3\n        /* \"#utility.yul\":165:202   */\n      mstore\n        /* \"#utility.yul\":90:208   */\n      pop\n      pop\n      jump\t// out\n        /* \"#utility.yul\":214:436   */\n    tag_12:\n        /* \"#utility.yul\":307:311   */\n      0x00\n        /* \"#utility.yul\":345:347   */\n      0x20\n        /* \"#utility.yul\":334:343   */\n      dup3\n        /* \"#utility.yul\":330:348   */\n      add\n        /* \"#utility.yul\":322:348   */\n      swap1\n      pop\n        /* \"#utility.yul\":358:429   */\n      tag_93\n        /* \"#utility.yul\":426:427   */\n      0x00\n        /* \"#utility.yul\":415:424   */\n      dup4\n        /* \"#utility.yul\":411:428   */\n      add\n        /* \"#utility.yul\":402:408   */\n      dup5\n        /* \"#utility.yul\":358:429   */\n      tag_75\n      jump\t// in\n    tag_93:\n        /* \"#utility.yul\":214:436   */\n      swap3\n      swap2\n      pop\n      pop\n      jump\t// out\n        /* \"#utility.yul\":523:640   */\n    tag_77:\n        /* \"#utility.yul\":632:633   */\n      0x00\n        /* \"#utility.yul\":629:630   */\n      0x00\n        /* \"#utility.yul\":622:634   */\n      revert\n        /* \"#utility.yul\":769:891   */\n    tag_79:\n        /* \"#utility.yul\":842:866   */\n      tag_98\n        /* \"#utility.yul\":860:865   */\n      dup2\n        /* \"#utility.yul\":842:866   */\n      tag_74\n      jump\t// in\n    tag_98:\n        /* \"#utility.yul\":835:840   */\n      dup2\n        /* \"#utility.yul\":832:867   */\n      eq\n        /* \"#utility.yul\":822:885   */\n      tag_99\n      jumpi\n        /* \"#utility.yul\":881:882   */\n      0x00\n        /* \"#utility.yul\":878:879   */\n      0x00\n        /* \"#utility.yul\":871:883   */\n      revert\n        /* \"#utility.yul\":822:885   */\n    tag_99:\n        /* \"#utility.yul\":769:891   */\n      pop\n      jump\t// out\n        /* \"#utility.yul\":897:1036   */\n    tag_80:\n        /* \"#utility.yul\":943:948   */\n      0x00\n        /* \"#utility.yul\":981:987   */\n      dup2\n        /* \"#utility.yul\":968:988   */\n      calldataload\n        /* \"#utility.yul\":959:988   */\n      swap1\n      pop\n        /* \"#utility.yul\":997:1030   */\n      tag_101\n        /* \"#utility.yul\":1024:1029   */\n      dup2\n        /* \"#utility.yul\":997:1030   */\n      tag_79\n      jump\t// in\n    tag_101:\n        /* \"#utility.yul\":897:1036   */\n      swap3\n      swap2\n      pop\n      pop\n      jump\t// out\n        /* \"#utility.yul\":1042:1371   */\n    tag_16:\n        /* \"#utility.yul\":1101:1107   */\n      0x00\n        /* \"#utility.yul\":1150:1152   */\n      0x20\n        /* \"#utility.yul\":1138:1147   */\n      dup3\n        /* \"#utility.yul\":1129:1136   */\n      dup5\n        /* \"#utility.yul\":1125:1148   */\n      sub\n        /* \"#utility.yul\":1121:1153   */\n      slt\n        /* \"#utility.yul\":1118:1237   */\n      iszero\n      tag_103\n      jumpi\n        /* \"#utility.yul\":1156:1235   */\n      tag_104\n      tag_77\n      jump\t// in\n    tag_104:\n        /* \"#utility.yul\":1118:1237   */\n    tag_103:\n        /* \"#utility.yul\":1276:1277   */\n      0x00\n        /* \"#utility.yul\":1301:1354   */\n      tag_105\n        /* \"#utility.yul\":1346:1353   */\n      dup5\n        /* \"#utility.yul\":1337:1343   */\n      dup3\n        /* \"#utility.yul\":1326:1335   */\n      dup6\n        /* \"#utility.yul\":1322:1344   */\n      add\n        /* \"#utility.yul\":1301:1354   */\n      tag_80\n      jump\t// in\n    tag_105:\n        /* \"#utility.yul\":1291:1354   */\n      swap2\n      pop\n        /* \"#utility.yul\":1247:1364   */\n      pop\n        /* \"#utility.yul\":1042:1371   */\n      swap3\n      swap2\n      pop\n      pop\n      jump\t// out\n        /* \"#utility.yul\":1377:1503   */\n    tag_81:\n        /* \"#utility.yul\":1414:1421   */\n      0x00\n        /* \"#utility.yul\":1454:1496   */\n      0xffffffffffffffffffffffffffffffffffffffff\n        /* \"#utility.yul\":1447:1452   */\n      dup3\n        /* \"#utility.yul\":1443:1497   */\n      and\n        /* \"#utility.yul\":1432:1497   */\n      swap1\n      pop\n        /* \"#utility.yul\":1377:1503   */\n      swap2\n      swap1\n      pop\n      jump\t// out\n        /* \"#utility.yul\":1509:1605   */\n    tag_82:\n        /* \"#utility.yul\":1546:1553   */\n      0x00\n        /* \"#utility.yul\":1575:1599   */\n      tag_108\n        /* \"#utility.yul\":1593:1598   */\n      dup3\n        /* \"#utility.yul\":1575:1599   */\n      tag_81\n      jump\t// in\n    tag_108:\n        /* \"#utility.yul\":1564:1599   */\n      swap1\n      pop\n        /* \"#utility.yul\":1509:1605   */\n      swap2\n      swap1\n      pop\n      jump\t// out\n        /* \"#utility.yul\":1611:1729   */\n    tag_83:\n        /* \"#utility.yul\":1698:1722   */\n      tag_110\n        /* \"#utility.yul\":1716:1721   */\n      dup2\n        /* \"#utility.yul\":1698:1722   */\n      tag_82\n      jump\t// in\n    tag_110:\n        /* \"#utility.yul\":1693:1696   */\n      dup3\n        /* \"#utility.yul\":1686:1723   */\n      mstore\n        /* \"#utility.yul\":1611:1729   */\n      pop\n      pop\n      jump\t// out\n        /* \"#utility.yul\":1735:1957   */\n    tag_36:\n        /* \"#utility.yul\":1828:1832   */\n      0x00\n        /* \"#utility.yul\":1866:1868   */\n      0x20\n        /* \"#utility.yul\":1855:1864   */\n      dup3\n        /* \"#utility.yul\":1851:1869   */\n      add\n        /* \"#utility.yul\":1843:1869   */\n      swap1\n      pop\n        /* \"#utility.yul\":1879:1950   */\n      tag_112\n        /* \"#utility.yul\":1947:1948   */\n      0x00\n        /* \"#utility.yul\":1936:1945   */\n      dup4\n        /* \"#utility.yul\":1932:1949   */\n      add\n        /* \"#utility.yul\":1923:1929   */\n      dup5\n        /* \"#utility.yul\":1879:1950   */\n      tag_83\n      jump\t// in\n    tag_112:\n        /* \"#utility.yul\":1735:1957   */\n      swap3\n      swap2\n      pop\n      pop\n      jump\t// out\n        /* \"#utility.yul\":1963:2295   */\n    tag_41:\n        /* \"#utility.yul\":2084:2088   */\n      0x00\n        /* \"#utility.yul\":2122:2124   */\n      0x40\n        /* \"#utility.yul\":2111:2120   */\n      dup3\n        /* \"#utility.yul\":2107:2125   */\n      add\n        /* \"#utility.yul\":2099:2125   */\n      swap1\n      pop\n        /* \"#utility.yul\":2135:2206   */\n      tag_114\n        /* \"#utility.yul\":2203:2204   */\n      0x00\n        /* \"#utility.yul\":2192:2201   */\n      dup4\n        /* \"#utility.yul\":2188:2205   */\n      add\n        /* \"#utility.yul\":2179:2185   */\n      dup6\n        /* \"#utility.yul\":2135:2206   */\n      tag_83\n      jump\t// in\n    tag_114:\n        /* \"#utility.yul\":2216:2288   */\n      tag_115\n        /* \"#utility.yul\":2284:2286   */\n      0x20\n        /* \"#utility.yul\":2273:2282   */\n      dup4\n        /* \"#utility.yul\":2269:2287   */\n      add\n        /* \"#utility.yul\":2260:2266   */\n      dup5\n        /* \"#utility.yul\":2216:2288   */\n      tag_75\n      jump\t// in\n    tag_115:\n        /* \"#utility.yul\":1963:2295   */\n      swap4\n      swap3\n      pop\n      pop\n      pop\n      jump\t// out\n        /* \"#utility.yul\":2301:2481   */\n    tag_84:\n        /* \"#utility.yul\":2349:2426   */\n      0x4e487b7100000000000000000000000000000000000000000000000000000000\n        /* \"#utility.yul\":2346:2347   */\n      0x00\n        /* \"#utility.yul\":2339:2427   */\n      mstore\n        /* \"#utility.yul\":2446:2450   */\n      0x11\n        /* \"#utility.yul\":2443:2444   */\n      0x04\n        /* \"#utility.yul\":2436:2451   */\n      mstore\n        /* \"#utility.yul\":2470:2474   */\n      0x24\n        /* \"#utility.yul\":2467:2468   */\n      0x00\n        /* \"#utility.yul\":2460:2475   */\n      revert\n        /* \"#utility.yul\":2487:2678   */\n    tag_50:\n        /* \"#utility.yul\":2527:2530   */\n      0x00\n        /* \"#utility.yul\":2546:2566   */\n      tag_118\n        /* \"#utility.yul\":2564:2565   */\n      dup3\n        /* \"#utility.yul\":2546:2566   */\n      tag_74\n      jump\t// in\n    tag_118:\n        /* \"#utility.yul\":2541:2566   */\n      swap2\n      pop\n        /* \"#utility.yul\":2580:2600   */\n      tag_119\n        /* \"#utility.yul\":2598:2599   */\n      dup4\n        /* \"#utility.yul\":2580:2600   */\n      tag_74\n      jump\t// in\n    tag_119:\n        /* \"#utility.yul\":2575:2600   */\n      swap3\n      pop\n        /* \"#utility.yul\":2623:2624   */\n      dup3\n        /* \"#utility.yul\":2620:2621   */\n      dup3\n        /* \"#utility.yul\":2616:2625   */\n      add\n        /* \"#utility.yul\":2609:2625   */\n      swap1\n      pop\n        /* \"#utility.yul\":2644:2647   */\n      dup1\n        /* \"#utility.yul\":2641:2642   */\n      dup3\n        /* \"#utility.yul\":2638:2648   */\n      gt\n        /* \"#utility.yul\":2635:2671   */\n      iszero\n      tag_120\n      jumpi\n        /* \"#utility.yul\":2651:2669   */\n      tag_121\n      tag_84\n      jump\t// in\n    tag_121:\n        /* \"#utility.yul\":2635:2671   */\n    tag_120:\n        /* \"#utility.yul\":2487:2678   */\n      swap3\n      swap2\n      pop\n      pop\n      jump\t// out\n        /* \"#utility.yul\":2684:2917   */\n    tag_56:\n        /* \"#utility.yul\":2723:2726   */\n      0x00\n        /* \"#utility.yul\":2746:2770   */\n      tag_123\n        /* \"#utility.yul\":2764:2769   */\n      dup3\n        /* \"#utility.yul\":2746:2770   */\n      tag_74\n      jump\t// in\n    tag_123:\n        /* \"#utility.yul\":2737:2770   */\n      swap2\n      pop\n        /* \"#utility.yul\":2792:2858   */\n      0xffffffffffffffffffffffffffffffffffffffffffffffffffffffffffffffff\n        /* \"#utility.yul\":2785:2790   */\n      dup3\n        /* \"#utility.yul\":2782:2859   */\n      sub\n        /* \"#utility.yul\":2779:2882   */\n      tag_124\n      jumpi\n        /* \"#utility.yul\":2862:2880   */\n      tag_125\n      tag_84\n      jump\t// in\n    tag_125:\n        /* \"#utility.yul\":2779:2882   */\n    tag_124:\n        /* \"#utility.yul\":2909:2910   */\n      0x01\n        /* \"#utility.yul\":2902:2907   */\n      dup3\n        /* \"#utility.yul\":2898:2911   */\n      add\n        /* \"#utility.yul\":2891:2911   */\n      swap1\n      pop\n        /* \"#utility.yul\":2684:2917   */\n      swap2\n      swap1\n      pop\n      jump\t// out\n        /* \"#utility.yul\":2923:3117   */\n    tag_63:\n        /* \"#utility.yul\":2963:2967   */\n      0x00\n        /* \"#utility.yul\":2983:3003   */\n      tag_127\n        /* \"#utility.yul\":3001:3002   */\n      dup3\n        /* \"#utility.yul\":2983:3003   */\n      tag_74\n      jump\t// in\n    tag_127:\n        /* \"#utility.yul\":2978:3003   */\n      swap2\n      pop\n        /* \"#utility.yul\":3017:3037   */\n      tag_128\n        /* \"#utility.yul\":3035:3036   */\n      dup4\n        /* \"#utility.yul\":3017:3037   */\n      tag_74\n      jump\t// in\n    tag_128:\n        /* \"#utility.yul\":3012:3037   */\n      swap3\n      pop\n        /* \"#utility.yul\":3061:3062   */\n      dup3\n        /* \"#utility.yul\":3058:3059   */\n      dup3\n        /* \"#utility.yul\":3054:3063   */\n      sub\n        /* \"#utility.yul\":3046:3063   */\n      swap1\n      pop\n        /* \"#utility.yul\":3085:3086   */\n      dup2\n        /* \"#utility.yul\":3079:3083   */\n      dup2\n        /* \"#utility.yul\":3076:3087   */\n      gt\n        /* \"#utility.yul\":3073:3110   */\n      iszero\n      tag_129\n      jumpi\n        /* \"#utility.yul\":3090:3108   */\n      tag_130\n      tag_84\n      jump\t// in\n    tag_130:\n        /* \"#utility.yul\":3073:3110   */\n    tag_129:\n        /* \"#utility.yul\":2923:3117   */\n      swap3\n      swap2\n      pop\n      pop\n      jump\t// out\n        /* \"#utility.yul\":3123:3270   */\n    tag_85:\n        /* \"#utility.yul\":3224:3235   */\n      0x00\n        /* \"#utility.yul\":3261:3264   */\n      dup2\n        /* \"#utility.yul\":3246:3264   */\n      swap1\n      pop\n        /* \"#utility.yul\":3123:3270   */\n      swap3\n      swap2\n      pop\n      pop\n      jump\t// out\n        /* \"#utility.yul\":3276:3390   */\n    tag_86:\n      pop\n      jump\t// out\n        /* \"#utility.yul\":3396:3794   */\n    tag_87:\n        /* \"#utility.yul\":3555:3558   */\n      0x00\n        /* \"#utility.yul\":3576:3659   */\n      tag_134\n        /* \"#utility.yul\":3657:3658   */\n      0x00\n        /* \"#utility.yul\":3652:3655   */\n      dup4\n        /* \"#utility.yul\":3576:3659   */\n      tag_85\n      jump\t// in\n    tag_134:\n        /* \"#utility.yul\":3569:3659   */\n      swap2\n      pop\n        /* \"#utility.yul\":3668:3761   */\n      tag_135\n        /* \"#utility.yul\":3757:3760   */\n      dup3\n        /* \"#utility.yul\":3668:3761   */\n      tag_86\n      jump\t// in\n    tag_135:\n        /* \"#utility.yul\":3786:3787   */\n      0x00\n        /* \"#utility.yul\":3781:3784   */\n      dup3\n        /* \"#utility.yul\":3777:3788   */\n      add\n        /* \"#utility.yul\":3770:3788   */\n      swap1\n      pop\n        /* \"#utility.yul\":3396:3794   */\n      swap2\n      swap1\n      pop\n      jump\t// out\n        /* \"#utility.yul\":3800:4179   */\n    tag_68:\n        /* \"#utility.yul\":3984:3987   */\n      0x00\n        /* \"#utility.yul\":4006:4153   */\n      tag_137\n        /* \"#utility.yul\":4149:4152   */\n      dup3\n        /* \"#utility.yul\":4006:4153   */\n      tag_87\n      jump\t// in\n    tag_137:\n        /* \"#utility.yul\":3999:4153   */\n      swap2\n      pop\n        /* \"#utility.yul\":4170:4173   */\n      dup2\n        /* \"#utility.yul\":4163:4173   */\n      swap1\n      pop\n        /* \"#utility.yul\":3800:4179   */\n      swap2\n      swap1\n      pop\n      jump\t// out\n\n    auxdata: 0xa2646970667358221220baf8b385f365beacb7579f2949212f6bfc7b51470c06f30a8eefd8035bb6fb3b64736f6c634300081e0033\n}\n",
				"bytecode": {
					"linkReferences": {},
					"object": "60a06040525f5f555f6001555f6002553480156019575f5ffd5b506040516109003803806109008339818101604052810190603991906078565b806080818152505050609e565b5f5ffd5b5f819050919050565b605a81604a565b81146063575f5ffd5b50565b5f815190506072816053565b92915050565b5f60208284031215608a5760896046565b5b5f6095848285016066565b91505092915050565b60805161084a6100b65f395f6102e2015261084a5ff3fe608060405260043610610054575f3560e01c80636900670c146100585780638debc4a81461008257806393295c1c146100aa578063acaf5a14146100d4578063c6aca33c146100de578063f39b180914610108575b5f5ffd5b348015610063575f5ffd5b5061006c610132565b6040516100799190610608565b60405180910390f35b34801561008d575f5ffd5b506100a860048036038101906100a3919061064f565b610176565b005b3480156100b5575f5ffd5b506100be610292565b6040516100cb9190610608565b60405180910390f35b6100dc61029b565b005b3480156100e9575f5ffd5b506100f2610441565b6040516100ff9190610608565b60405180910390f35b348015610113575f5ffd5b5061011c61044a565b6040516101299190610608565b60405180910390f35b5f60035f3373ffffffffffffffffffffffffffffffffffffffff1673ffffffffffffffffffffffffffffffffffffffff1681526020019081526020015f2054905090565b805f81116101bb57336040517fb2f092310000000000000000000000000000000000000000000000000000000081526004016101b291906106b9565b60405180910390fd5b603281111561020157806040517fc39935650000000000000000000000000000000000000000000000000000000081526004016101f89190610608565b60405180910390fd5b60035f3373ffffffffffffffffffffffffffffffffffffffff1673ffffffffffffffffffffffffffffffffffffffff1681526020019081526020015f20548111156102855733816040517f51a7314200000000000000000000000000000000000000000000000000000000815260040161027c9291906106d2565b60405180910390fd5b61028e82610452565b5050565b5f600254905090565b345f81116102e057336040517fb2f092310000000000000000000000000000000000000000000000000000000081526004016102d791906106b9565b60405180910390fd5b7f00000000000000000000000000000000000000000000000000000000000000006002548261030f9190610726565b1061035157806040517f2900b02c0000000000000000000000000000000000000000000000000000000081526004016103489190610608565b60405180910390fd5b3460035f3373ffffffffffffffffffffffffffffffffffffffff1673ffffffffffffffffffffffffffffffffffffffff1681526020019081526020015f205461039a9190610726565b60035f3373ffffffffffffffffffffffffffffffffffffffff1673ffffffffffffffffffffffffffffffffffffffff1681526020019081526020015f20819055505f5f8154809291906103ec90610759565b9190505550346002546103ff9190610726565b6002819055507f9d15693852bf60dc27bd5aa831d0351359b7d01d428ae1baae11f15cbcfebafd33346040516104369291906106d2565b60405180910390a150565b5f600154905090565b5f5f54905090565b8060035f3373ffffffffffffffffffffffffffffffffffffffff1673ffffffffffffffffffffffffffffffffffffffff1681526020019081526020015f205461049b91906107a0565b60035f3373ffffffffffffffffffffffffffffffffffffffff1673ffffffffffffffffffffffffffffffffffffffff1681526020019081526020015f208190555060015f8154809291906104ee90610759565b91905055508060025461050191906107a0565b6002819055507f9cde449504e4972ffddec09813e0c252a1462d76bef1864b9e7520dadb7183e833826040516105389291906106d2565b60405180910390a15f3373ffffffffffffffffffffffffffffffffffffffff168260405161056590610800565b5f6040518083038185875af1925050503d805f811461059f576040519150601f19603f3d011682016040523d82523d5f602084013e6105a4565b606091505b50509050806105ec5733826040517f6c5e1a140000000000000000000000000000000000000000000000000000000081526004016105e39291906106d2565b60405180910390fd5b5050565b5f819050919050565b610602816105f0565b82525050565b5f60208201905061061b5f8301846105f9565b92915050565b5f5ffd5b61062e816105f0565b8114610638575f5ffd5b50565b5f8135905061064981610625565b92915050565b5f6020828403121561066457610663610621565b5b5f6106718482850161063b565b91505092915050565b5f73ffffffffffffffffffffffffffffffffffffffff82169050919050565b5f6106a38261067a565b9050919050565b6106b381610699565b82525050565b5f6020820190506106cc5f8301846106aa565b92915050565b5f6040820190506106e55f8301856106aa565b6106f260208301846105f9565b9392505050565b7f4e487b71000000000000000000000000000000000000000000000000000000005f52601160045260245ffd5b5f610730826105f0565b915061073b836105f0565b9250828201905080821115610753576107526106f9565b5b92915050565b5f610763826105f0565b91507fffffffffffffffffffffffffffffffffffffffffffffffffffffffffffffffff8203610795576107946106f9565b5b600182019050919050565b5f6107aa826105f0565b91506107b5836105f0565b92508282039050818111156107cd576107cc6106f9565b5b92915050565b5f81905092915050565b50565b5f6107eb5f836107d3565b91506107f6826107dd565b5f82019050919050565b5f61080a826107e0565b915081905091905056fea2646970667358221220baf8b385f365beacb7579f2949212f6bfc7b51470c06f30a8eefd8035bb6fb3b64736f6c634300081e0033",
					"opcodes": "PUSH1 0xA0 PUSH1 0x40 MSTORE PUSH0 PUSH0 SSTORE PUSH0 PUSH1 0x1 SSTORE PUSH0 PUSH1 0x2 SSTORE CALLVALUE DUP1 ISZERO PUSH1 0x19 JUMPI PUSH0 PUSH0 REVERT JUMPDEST POP PUSH1 0x40 MLOAD PUSH2 0x900 CODESIZE SUB DUP1 PUSH2 0x900 DUP4 CODECOPY DUP2 DUP2 ADD PUSH1 0x40 MSTORE DUP2 ADD SWAP1 PUSH1 0x39 SWAP2 SWAP1 PUSH1 0x78 JUMP JUMPDEST DUP1 PUSH1 0x80 DUP2 DUP2 MSTORE POP POP POP PUSH1 0x9E JUMP JUMPDEST PUSH0 PUSH0 REVERT JUMPDEST PUSH0 DUP2 SWAP1 POP SWAP2 SWAP1 POP JUMP JUMPDEST PUSH1 0x5A DUP2 PUSH1 0x4A JUMP JUMPDEST DUP2 EQ PUSH1 0x63 JUMPI PUSH0 PUSH0 REVERT JUMPDEST POP JUMP JUMPDEST PUSH0 DUP2 MLOAD SWAP1 POP PUSH1 0x72 DUP2 PUSH1 0x53 JUMP JUMPDEST SWAP3 SWAP2 POP POP JUMP JUMPDEST PUSH0 PUSH1 0x20 DUP3 DUP5 SUB SLT ISZERO PUSH1 0x8A JUMPI PUSH1 0x89 PUSH1 0x46 JUMP JUMPDEST JUMPDEST PUSH0 PUSH1 0x95 DUP5 DUP3 DUP6 ADD PUSH1 0x66 JUMP JUMPDEST SWAP2 POP POP SWAP3 SWAP2 POP POP JUMP JUMPDEST PUSH1 0x80 MLOAD PUSH2 0x84A PUSH2 0xB6 PUSH0 CODECOPY PUSH0 PUSH2 0x2E2 ADD MSTORE PUSH2 0x84A PUSH0 RETURN INVALID PUSH1 0x80 PUSH1 0x40 MSTORE PUSH1 0x4 CALLDATASIZE LT PUSH2 0x54 JUMPI PUSH0 CALLDATALOAD PUSH1 0xE0 SHR DUP1 PUSH4 0x6900670C EQ PUSH2 0x58 JUMPI DUP1 PUSH4 0x8DEBC4A8 EQ PUSH2 0x82 JUMPI DUP1 PUSH4 0x93295C1C EQ PUSH2 0xAA JUMPI DUP1 PUSH4 0xACAF5A14 EQ PUSH2 0xD4 JUMPI DUP1 PUSH4 0xC6ACA33C EQ PUSH2 0xDE JUMPI DUP1 PUSH4 0xF39B1809 EQ PUSH2 0x108 JUMPI JUMPDEST PUSH0 PUSH0 REVERT JUMPDEST CALLVALUE DUP1 ISZERO PUSH2 0x63 JUMPI PUSH0 PUSH0 REVERT JUMPDEST POP PUSH2 0x6C PUSH2 0x132 JUMP JUMPDEST PUSH1 0x40 MLOAD PUSH2 0x79 SWAP2 SWAP1 PUSH2 0x608 JUMP JUMPDEST PUSH1 0x40 MLOAD DUP1 SWAP2 SUB SWAP1 RETURN JUMPDEST CALLVALUE DUP1 ISZERO PUSH2 0x8D JUMPI PUSH0 PUSH0 REVERT JUMPDEST POP PUSH2 0xA8 PUSH1 0x4 DUP1 CALLDATASIZE SUB DUP2 ADD SWAP1 PUSH2 0xA3 SWAP2 SWAP1 PUSH2 0x64F JUMP JUMPDEST PUSH2 0x176 JUMP JUMPDEST STOP JUMPDEST CALLVALUE DUP1 ISZERO PUSH2 0xB5 JUMPI PUSH0 PUSH0 REVERT JUMPDEST POP PUSH2 0xBE PUSH2 0x292 JUMP JUMPDEST PUSH1 0x40 MLOAD PUSH2 0xCB SWAP2 SWAP1 PUSH2 0x608 JUMP JUMPDEST PUSH1 0x40 MLOAD DUP1 SWAP2 SUB SWAP1 RETURN JUMPDEST PUSH2 0xDC PUSH2 0x29B JUMP JUMPDEST STOP JUMPDEST CALLVALUE DUP1 ISZERO PUSH2 0xE9 JUMPI PUSH0 PUSH0 REVERT JUMPDEST POP PUSH2 0xF2 PUSH2 0x441 JUMP JUMPDEST PUSH1 0x40 MLOAD PUSH2 0xFF SWAP2 SWAP1 PUSH2 0x608 JUMP JUMPDEST PUSH1 0x40 MLOAD DUP1 SWAP2 SUB SWAP1 RETURN JUMPDEST CALLVALUE DUP1 ISZERO PUSH2 0x113 JUMPI PUSH0 PUSH0 REVERT JUMPDEST POP PUSH2 0x11C PUSH2 0x44A JUMP JUMPDEST PUSH1 0x40 MLOAD PUSH2 0x129 SWAP2 SWAP1 PUSH2 0x608 JUMP JUMPDEST PUSH1 0x40 MLOAD DUP1 SWAP2 SUB SWAP1 RETURN JUMPDEST PUSH0 PUSH1 0x3 PUSH0 CALLER PUSH20 0xFFFFFFFFFFFFFFFFFFFFFFFFFFFFFFFFFFFFFFFF AND PUSH20 0xFFFFFFFFFFFFFFFFFFFFFFFFFFFFFFFFFFFFFFFF AND DUP2 MSTORE PUSH1 0x20 ADD SWAP1 DUP2 MSTORE PUSH1 0x20 ADD PUSH0 KECCAK256 SLOAD SWAP1 POP SWAP1 JUMP JUMPDEST DUP1 PUSH0 DUP2 GT PUSH2 0x1BB JUMPI CALLER PUSH1 0x40 MLOAD PUSH32 0xB2F0923100000000000000000000000000000000000000000000000000000000 DUP2 MSTORE PUSH1 0x4 ADD PUSH2 0x1B2 SWAP2 SWAP1 PUSH2 0x6B9 JUMP JUMPDEST PUSH1 0x40 MLOAD DUP1 SWAP2 SUB SWAP1 REVERT JUMPDEST PUSH1 0x32 DUP2 GT ISZERO PUSH2 0x201 JUMPI DUP1 PUSH1 0x40 MLOAD PUSH32 0xC399356500000000000000000000000000000000000000000000000000000000 DUP2 MSTORE PUSH1 0x4 ADD PUSH2 0x1F8 SWAP2 SWAP1 PUSH2 0x608 JUMP JUMPDEST PUSH1 0x40 MLOAD DUP1 SWAP2 SUB SWAP1 REVERT JUMPDEST PUSH1 0x3 PUSH0 CALLER PUSH20 0xFFFFFFFFFFFFFFFFFFFFFFFFFFFFFFFFFFFFFFFF AND PUSH20 0xFFFFFFFFFFFFFFFFFFFFFFFFFFFFFFFFFFFFFFFF AND DUP2 MSTORE PUSH1 0x20 ADD SWAP1 DUP2 MSTORE PUSH1 0x20 ADD PUSH0 KECCAK256 SLOAD DUP2 GT ISZERO PUSH2 0x285 JUMPI CALLER DUP2 PUSH1 0x40 MLOAD PUSH32 0x51A7314200000000000000000000000000000000000000000000000000000000 DUP2 MSTORE PUSH1 0x4 ADD PUSH2 0x27C SWAP3 SWAP2 SWAP1 PUSH2 0x6D2 JUMP JUMPDEST PUSH1 0x40 MLOAD DUP1 SWAP2 SUB SWAP1 REVERT JUMPDEST PUSH2 0x28E DUP3 PUSH2 0x452 JUMP JUMPDEST POP POP JUMP JUMPDEST PUSH0 PUSH1 0x2 SLOAD SWAP1 POP SWAP1 JUMP JUMPDEST CALLVALUE PUSH0 DUP2 GT PUSH2 0x2E0 JUMPI CALLER PUSH1 0x40 MLOAD PUSH32 0xB2F0923100000000000000000000000000000000000000000000000000000000 DUP2 MSTORE PUSH1 0x4 ADD PUSH2 0x2D7 SWAP2 SWAP1 PUSH2 0x6B9 JUMP JUMPDEST PUSH1 0x40 MLOAD DUP1 SWAP2 SUB SWAP1 REVERT JUMPDEST PUSH32 0x0 PUSH1 0x2 SLOAD DUP3 PUSH2 0x30F SWAP2 SWAP1 PUSH2 0x726 JUMP JUMPDEST LT PUSH2 0x351 JUMPI DUP1 PUSH1 0x40 MLOAD PUSH32 0x2900B02C00000000000000000000000000000000000000000000000000000000 DUP2 MSTORE PUSH1 0x4 ADD PUSH2 0x348 SWAP2 SWAP1 PUSH2 0x608 JUMP JUMPDEST PUSH1 0x40 MLOAD DUP1 SWAP2 SUB SWAP1 REVERT JUMPDEST CALLVALUE PUSH1 0x3 PUSH0 CALLER PUSH20 0xFFFFFFFFFFFFFFFFFFFFFFFFFFFFFFFFFFFFFFFF AND PUSH20 0xFFFFFFFFFFFFFFFFFFFFFFFFFFFFFFFFFFFFFFFF AND DUP2 MSTORE PUSH1 0x20 ADD SWAP1 DUP2 MSTORE PUSH1 0x20 ADD PUSH0 KECCAK256 SLOAD PUSH2 0x39A SWAP2 SWAP1 PUSH2 0x726 JUMP JUMPDEST PUSH1 0x3 PUSH0 CALLER PUSH20 0xFFFFFFFFFFFFFFFFFFFFFFFFFFFFFFFFFFFFFFFF AND PUSH20 0xFFFFFFFFFFFFFFFFFFFFFFFFFFFFFFFFFFFFFFFF AND DUP2 MSTORE PUSH1 0x20 ADD SWAP1 DUP2 MSTORE PUSH1 0x20 ADD PUSH0 KECCAK256 DUP2 SWAP1 SSTORE POP PUSH0 PUSH0 DUP2 SLOAD DUP1 SWAP3 SWAP2 SWAP1 PUSH2 0x3EC SWAP1 PUSH2 0x759 JUMP JUMPDEST SWAP2 SWAP1 POP SSTORE POP CALLVALUE PUSH1 0x2 SLOAD PUSH2 0x3FF SWAP2 SWAP1 PUSH2 0x726 JUMP JUMPDEST PUSH1 0x2 DUP2 SWAP1 SSTORE POP PUSH32 0x9D15693852BF60DC27BD5AA831D0351359B7D01D428AE1BAAE11F15CBCFEBAFD CALLER CALLVALUE PUSH1 0x40 MLOAD PUSH2 0x436 SWAP3 SWAP2 SWAP1 PUSH2 0x6D2 JUMP JUMPDEST PUSH1 0x40 MLOAD DUP1 SWAP2 SUB SWAP1 LOG1 POP JUMP JUMPDEST PUSH0 PUSH1 0x1 SLOAD SWAP1 POP SWAP1 JUMP JUMPDEST PUSH0 PUSH0 SLOAD SWAP1 POP SWAP1 JUMP JUMPDEST DUP1 PUSH1 0x3 PUSH0 CALLER PUSH20 0xFFFFFFFFFFFFFFFFFFFFFFFFFFFFFFFFFFFFFFFF AND PUSH20 0xFFFFFFFFFFFFFFFFFFFFFFFFFFFFFFFFFFFFFFFF AND DUP2 MSTORE PUSH1 0x20 ADD SWAP1 DUP2 MSTORE PUSH1 0x20 ADD PUSH0 KECCAK256 SLOAD PUSH2 0x49B SWAP2 SWAP1 PUSH2 0x7A0 JUMP JUMPDEST PUSH1 0x3 PUSH0 CALLER PUSH20 0xFFFFFFFFFFFFFFFFFFFFFFFFFFFFFFFFFFFFFFFF AND PUSH20 0xFFFFFFFFFFFFFFFFFFFFFFFFFFFFFFFFFFFFFFFF AND DUP2 MSTORE PUSH1 0x20 ADD SWAP1 DUP2 MSTORE PUSH1 0x20 ADD PUSH0 KECCAK256 DUP2 SWAP1 SSTORE POP PUSH1 0x1 PUSH0 DUP2 SLOAD DUP1 SWAP3 SWAP2 SWAP1 PUSH2 0x4EE SWAP1 PUSH2 0x759 JUMP JUMPDEST SWAP2 SWAP1 POP SSTORE POP DUP1 PUSH1 0x2 SLOAD PUSH2 0x501 SWAP2 SWAP1 PUSH2 0x7A0 JUMP JUMPDEST PUSH1 0x2 DUP2 SWAP1 SSTORE POP PUSH32 0x9CDE449504E4972FFDDEC09813E0C252A1462D76BEF1864B9E7520DADB7183E8 CALLER DUP3 PUSH1 0x40 MLOAD PUSH2 0x538 SWAP3 SWAP2 SWAP1 PUSH2 0x6D2 JUMP JUMPDEST PUSH1 0x40 MLOAD DUP1 SWAP2 SUB SWAP1 LOG1 PUSH0 CALLER PUSH20 0xFFFFFFFFFFFFFFFFFFFFFFFFFFFFFFFFFFFFFFFF AND DUP3 PUSH1 0x40 MLOAD PUSH2 0x565 SWAP1 PUSH2 0x800 JUMP JUMPDEST PUSH0 PUSH1 0x40 MLOAD DUP1 DUP4 SUB DUP2 DUP6 DUP8 GAS CALL SWAP3 POP POP POP RETURNDATASIZE DUP1 PUSH0 DUP2 EQ PUSH2 0x59F JUMPI PUSH1 0x40 MLOAD SWAP2 POP PUSH1 0x1F NOT PUSH1 0x3F RETURNDATASIZE ADD AND DUP3 ADD PUSH1 0x40 MSTORE RETURNDATASIZE DUP3 MSTORE RETURNDATASIZE PUSH0 PUSH1 0x20 DUP5 ADD RETURNDATACOPY PUSH2 0x5A4 JUMP JUMPDEST PUSH1 0x60 SWAP2 POP JUMPDEST POP POP SWAP1 POP DUP1 PUSH2 0x5EC JUMPI CALLER DUP3 PUSH1 0x40 MLOAD PUSH32 0x6C5E1A1400000000000000000000000000000000000000000000000000000000 DUP2 MSTORE PUSH1 0x4 ADD PUSH2 0x5E3 SWAP3 SWAP2 SWAP1 PUSH2 0x6D2 JUMP JUMPDEST PUSH1 0x40 MLOAD DUP1 SWAP2 SUB SWAP1 REVERT JUMPDEST POP POP JUMP JUMPDEST PUSH0 DUP2 SWAP1 POP SWAP2 SWAP1 POP JUMP JUMPDEST PUSH2 0x602 DUP2 PUSH2 0x5F0 JUMP JUMPDEST DUP3 MSTORE POP POP JUMP JUMPDEST PUSH0 PUSH1 0x20 DUP3 ADD SWAP1 POP PUSH2 0x61B PUSH0 DUP4 ADD DUP5 PUSH2 0x5F9 JUMP JUMPDEST SWAP3 SWAP2 POP POP JUMP JUMPDEST PUSH0 PUSH0 REVERT JUMPDEST PUSH2 0x62E DUP2 PUSH2 0x5F0 JUMP JUMPDEST DUP2 EQ PUSH2 0x638 JUMPI PUSH0 PUSH0 REVERT JUMPDEST POP JUMP JUMPDEST PUSH0 DUP2 CALLDATALOAD SWAP1 POP PUSH2 0x649 DUP2 PUSH2 0x625 JUMP JUMPDEST SWAP3 SWAP2 POP POP JUMP JUMPDEST PUSH0 PUSH1 0x20 DUP3 DUP5 SUB SLT ISZERO PUSH2 0x664 JUMPI PUSH2 0x663 PUSH2 0x621 JUMP JUMPDEST JUMPDEST PUSH0 PUSH2 0x671 DUP5 DUP3 DUP6 ADD PUSH2 0x63B JUMP JUMPDEST SWAP2 POP POP SWAP3 SWAP2 POP POP JUMP JUMPDEST PUSH0 PUSH20 0xFFFFFFFFFFFFFFFFFFFFFFFFFFFFFFFFFFFFFFFF DUP3 AND SWAP1 POP SWAP2 SWAP1 POP JUMP JUMPDEST PUSH0 PUSH2 0x6A3 DUP3 PUSH2 0x67A JUMP JUMPDEST SWAP1 POP SWAP2 SWAP1 POP JUMP JUMPDEST PUSH2 0x6B3 DUP2 PUSH2 0x699 JUMP JUMPDEST DUP3 MSTORE POP POP JUMP JUMPDEST PUSH0 PUSH1 0x20 DUP3 ADD SWAP1 POP PUSH2 0x6CC PUSH0 DUP4 ADD DUP5 PUSH2 0x6AA JUMP JUMPDEST SWAP3 SWAP2 POP POP JUMP JUMPDEST PUSH0 PUSH1 0x40 DUP3 ADD SWAP1 POP PUSH2 0x6E5 PUSH0 DUP4 ADD DUP6 PUSH2 0x6AA JUMP JUMPDEST PUSH2 0x6F2 PUSH1 0x20 DUP4 ADD DUP5 PUSH2 0x5F9 JUMP JUMPDEST SWAP4 SWAP3 POP POP POP JUMP JUMPDEST PUSH32 0x4E487B7100000000000000000000000000000000000000000000000000000000 PUSH0 MSTORE PUSH1 0x11 PUSH1 0x4 MSTORE PUSH1 0x24 PUSH0 REVERT JUMPDEST PUSH0 PUSH2 0x730 DUP3 PUSH2 0x5F0 JUMP JUMPDEST SWAP2 POP PUSH2 0x73B DUP4 PUSH2 0x5F0 JUMP JUMPDEST SWAP3 POP DUP3 DUP3 ADD SWAP1 POP DUP1 DUP3 GT ISZERO PUSH2 0x753 JUMPI PUSH2 0x752 PUSH2 0x6F9 JUMP JUMPDEST JUMPDEST SWAP3 SWAP2 POP POP JUMP JUMPDEST PUSH0 PUSH2 0x763 DUP3 PUSH2 0x5F0 JUMP JUMPDEST SWAP2 POP PUSH32 0xFFFFFFFFFFFFFFFFFFFFFFFFFFFFFFFFFFFFFFFFFFFFFFFFFFFFFFFFFFFFFFFF DUP3 SUB PUSH2 0x795 JUMPI PUSH2 0x794 PUSH2 0x6F9 JUMP JUMPDEST JUMPDEST PUSH1 0x1 DUP3 ADD SWAP1 POP SWAP2 SWAP1 POP JUMP JUMPDEST PUSH0 PUSH2 0x7AA DUP3 PUSH2 0x5F0 JUMP JUMPDEST SWAP2 POP PUSH2 0x7B5 DUP4 PUSH2 0x5F0 JUMP JUMPDEST SWAP3 POP DUP3 DUP3 SUB SWAP1 POP DUP2 DUP2 GT ISZERO PUSH2 0x7CD JUMPI PUSH2 0x7CC PUSH2 0x6F9 JUMP JUMPDEST JUMPDEST SWAP3 SWAP2 POP POP JUMP JUMPDEST PUSH0 DUP2 SWAP1 POP SWAP3 SWAP2 POP POP JUMP JUMPDEST POP JUMP JUMPDEST PUSH0 PUSH2 0x7EB PUSH0 DUP4 PUSH2 0x7D3 JUMP JUMPDEST SWAP2 POP PUSH2 0x7F6 DUP3 PUSH2 0x7DD JUMP JUMPDEST PUSH0 DUP3 ADD SWAP1 POP SWAP2 SWAP1 POP JUMP JUMPDEST PUSH0 PUSH2 0x80A DUP3 PUSH2 0x7E0 JUMP JUMPDEST SWAP2 POP DUP2 SWAP1 POP SWAP2 SWAP1 POP JUMP INVALID LOG2 PUSH5 0x6970667358 0x22 SLT KECCAK256 0xBA EXTCALL 0xB3 DUP6 RETURN PUSH6 0xBEACB7579F29 BLOBHASH 0x21 0x2F PUSH12 0xFC7B51470C06F30A8EEFD803 JUMPDEST 0xB6 EXTSTATICCALL EXTCODESIZE PUSH5 0x736F6C6343 STOP ADDMOD 0x1E STOP CALLER "
				},
				"gasEstimates": {
					"creation": {
						"codeDepositCost": "424400",
						"executionCost": "infinite",
						"totalCost": "infinite"
					},
					"external": {
						"depositarEnBoveda()": "infinite",
						"retirarDeBoveda(uint256)": "infinite",
						"verBoveda()": "2497",
						"verTotalContrato()": "2454",
						"verTotalDepositos()": "2519",
						"verTotalRetiros()": "2498"
					},
					"internal": {
						"_retirarFondos(uint256)": "infinite"
					}
				},
				"methodIdentifiers": {
					"depositarEnBoveda()": "acaf5a14",
					"retirarDeBoveda(uint256)": "8debc4a8",
					"verBoveda()": "6900670c",
					"verTotalContrato()": "93295c1c",
					"verTotalDepositos()": "f39b1809",
					"verTotalRetiros()": "c6aca33c"
				}
			},
			"storageLayout": {
				"storage": [
					{
						"astId": 9,
						"contract": "contracts/KipuBank.sol:KipuBank",
						"label": "depositos",
						"offset": 0,
						"slot": "0",
						"type": "t_uint256"
					},
					{
						"astId": 12,
						"contract": "contracts/KipuBank.sol:KipuBank",
						"label": "retiros",
						"offset": 0,
						"slot": "1",
						"type": "t_uint256"
					},
					{
						"astId": 15,
						"contract": "contracts/KipuBank.sol:KipuBank",
						"label": "totalContrato",
						"offset": 0,
						"slot": "2",
						"type": "t_uint256"
					},
					{
						"astId": 19,
						"contract": "contracts/KipuBank.sol:KipuBank",
						"label": "boveda",
						"offset": 0,
						"slot": "3",
						"type": "t_mapping(t_address,t_uint256)"
					}
				],
				"types": {
					"t_address": {
						"encoding": "inplace",
						"label": "address",
						"numberOfBytes": "20"
					},
					"t_mapping(t_address,t_uint256)": {
						"encoding": "mapping",
						"key": "t_address",
						"label": "mapping(address => uint256)",
						"numberOfBytes": "32",
						"value": "t_uint256"
					},
					"t_uint256": {
						"encoding": "inplace",
						"label": "uint256",
						"numberOfBytes": "32"
					}
				}
			},
			"userdoc": {
				"kind": "user",
				"methods": {},
				"version": 1
			}
		}
	}
}