{
	"contracts/KipuBank.sol": {
		"KipuBank": {
			"abi": [
				{
					"inputs": [
						{
							"internalType": "uint256",
							"name": "_limite",
							"type": "uint256"
						}
					],
					"stateMutability": "nonpayable",
					"type": "constructor"
				},
				{
					"inputs": [
						{
							"internalType": "address",
							"name": "titular",
							"type": "address"
						},
						{
							"internalType": "uint256",
							"name": "monto",
							"type": "uint256"
						}
					],
					"name": "KipuBank_DepositoRechazado",
					"type": "error"
				},
				{
					"inputs": [
						{
							"internalType": "address",
							"name": "titular",
							"type": "address"
						},
						{
							"internalType": "uint256",
							"name": "monto",
							"type": "uint256"
						}
					],
					"name": "KipuBank_ExtraccionRechazada",
					"type": "error"
				},
				{
					"inputs": [
						{
							"internalType": "uint256",
							"name": "monto",
							"type": "uint256"
						}
					],
					"name": "KipuBank_LimiteExcedido",
					"type": "error"
				},
				{
					"inputs": [
						{
							"internalType": "address",
							"name": "titular",
							"type": "address"
						}
					],
					"name": "KipuBank_MontoCero",
					"type": "error"
				},
				{
					"inputs": [
						{
							"internalType": "address",
							"name": "titular",
							"type": "address"
						},
						{
							"internalType": "uint256",
							"name": "monto",
							"type": "uint256"
						}
					],
					"name": "KipuBank_MontoInsuficiente",
					"type": "error"
				},
				{
					"inputs": [
						{
							"internalType": "address",
							"name": "titular",
							"type": "address"
						},
						{
							"internalType": "uint256",
							"name": "monto",
							"type": "uint256"
						}
					],
					"name": "KipuBank_SaldoInsuficiente",
					"type": "error"
				},
				{
					"inputs": [
						{
							"internalType": "uint256",
							"name": "monto",
							"type": "uint256"
						}
					],
					"name": "KipuBank_UmbralExcedido",
					"type": "error"
				},
				{
					"anonymous": false,
					"inputs": [
						{
							"indexed": false,
							"internalType": "address",
							"name": "titular",
							"type": "address"
						},
						{
							"indexed": false,
							"internalType": "uint256",
							"name": "monto",
							"type": "uint256"
						}
					],
					"name": "KipuBank_DepositoRealizado",
					"type": "event"
				},
				{
					"anonymous": false,
					"inputs": [
						{
							"indexed": false,
							"internalType": "address",
							"name": "titular",
							"type": "address"
						},
						{
							"indexed": false,
							"internalType": "uint256",
							"name": "monto",
							"type": "uint256"
						}
					],
					"name": "KipuBank_ExtraccionRealizada",
					"type": "event"
				},
				{
					"inputs": [],
					"name": "depositarEnBoveda",
					"outputs": [],
					"stateMutability": "payable",
					"type": "function"
				},
				{
					"inputs": [
						{
							"internalType": "uint256",
							"name": "_monto",
							"type": "uint256"
						}
					],
					"name": "retirarDeBoveda",
					"outputs": [],
					"stateMutability": "nonpayable",
					"type": "function"
				},
				{
					"inputs": [],
					"name": "verBoveda",
					"outputs": [
						{
							"internalType": "uint256",
							"name": "monto_",
							"type": "uint256"
						}
					],
					"stateMutability": "view",
					"type": "function"
				},
				{
					"inputs": [],
					"name": "verTotalContrato",
					"outputs": [
						{
							"internalType": "uint256",
							"name": "",
							"type": "uint256"
						}
					],
					"stateMutability": "view",
					"type": "function"
				},
				{
					"inputs": [],
					"name": "verTotalDepositos",
					"outputs": [
						{
							"internalType": "uint256",
							"name": "",
							"type": "uint256"
						}
					],
					"stateMutability": "view",
					"type": "function"
				},
				{
					"inputs": [],
					"name": "verTotalRetiros",
					"outputs": [
						{
							"internalType": "uint256",
							"name": "",
							"type": "uint256"
						}
					],
					"stateMutability": "view",
					"type": "function"
				}
			],
			"devdoc": {
				"kind": "dev",
				"methods": {},
				"version": 1
			},
			"evm": {
				"assembly": "    /* \"contracts/KipuBank.sol\":143:4454  contract KipuBank {... */\n  mstore(0x40, 0xc0)\n    /* \"contracts/KipuBank.sol\":459:460  0 */\n  0x00\n    /* \"contracts/KipuBank.sol\":434:460  uint private depositos = 0 */\n  0x00\n  sstore\n    /* \"contracts/KipuBank.sol\":536:537  0 */\n  0x00\n    /* \"contracts/KipuBank.sol\":513:537  uint private retiros = 0 */\n  0x01\n  sstore\n    /* \"contracts/KipuBank.sol\":627:628  0 */\n  0x00\n    /* \"contracts/KipuBank.sol\":598:628  uint private totalContrato = 0 */\n  0x02\n  sstore\n    /* \"contracts/KipuBank.sol\":1822:1903  constructor(uint _limite) {... */\n  callvalue\n  dup1\n  iszero\n  tag_1\n  jumpi\n  revert(0x00, 0x00)\ntag_1:\n  pop\n  mload(0x40)\n  sub(codesize, bytecodeSize)\n  dup1\n  bytecodeSize\n  dup4\n  codecopy\n  dup2\n  dup2\n  add\n  0x40\n  mstore\n  dup2\n  add\n  swap1\n  tag_2\n  swap2\n  swap1\n  tag_3\n  jump\t// in\ntag_2:\n    /* \"contracts/KipuBank.sol\":1868:1875  _limite */\n  dup1\n    /* \"contracts/KipuBank.sol\":1858:1875  bankCap = _limite */\n  0xa0\n  dup2\n  dup2\n  mstore\n  pop\n  pop\n    /* \"contracts/KipuBank.sol\":1894:1896  50 */\n  0x32\n    /* \"contracts/KipuBank.sol\":1885:1896  umbral = 50 */\n  0x80\n  dup2\n  dup2\n  mstore\n  pop\n  pop\n    /* \"contracts/KipuBank.sol\":1822:1903  constructor(uint _limite) {... */\n  pop\n    /* \"contracts/KipuBank.sol\":143:4454  contract KipuBank {... */\n  jump(tag_6)\n    /* \"#utility.yul\":88:205   */\ntag_8:\n    /* \"#utility.yul\":197:198   */\n  0x00\n    /* \"#utility.yul\":194:195   */\n  0x00\n    /* \"#utility.yul\":187:199   */\n  revert\n    /* \"#utility.yul\":334:411   */\ntag_10:\n    /* \"#utility.yul\":371:378   */\n  0x00\n    /* \"#utility.yul\":400:405   */\n  dup2\n    /* \"#utility.yul\":389:405   */\n  swap1\n  pop\n    /* \"#utility.yul\":334:411   */\n  swap2\n  swap1\n  pop\n  jump\t// out\n    /* \"#utility.yul\":417:539   */\ntag_11:\n    /* \"#utility.yul\":490:514   */\n  tag_19\n    /* \"#utility.yul\":508:513   */\n  dup2\n    /* \"#utility.yul\":490:514   */\n  tag_10\n  jump\t// in\ntag_19:\n    /* \"#utility.yul\":483:488   */\n  dup2\n    /* \"#utility.yul\":480:515   */\n  eq\n    /* \"#utility.yul\":470:533   */\n  tag_20\n  jumpi\n    /* \"#utility.yul\":529:530   */\n  0x00\n    /* \"#utility.yul\":526:527   */\n  0x00\n    /* \"#utility.yul\":519:531   */\n  revert\n    /* \"#utility.yul\":470:533   */\ntag_20:\n    /* \"#utility.yul\":417:539   */\n  pop\n  jump\t// out\n    /* \"#utility.yul\":545:688   */\ntag_12:\n    /* \"#utility.yul\":602:607   */\n  0x00\n    /* \"#utility.yul\":633:639   */\n  dup2\n    /* \"#utility.yul\":627:640   */\n  mload\n    /* \"#utility.yul\":618:640   */\n  swap1\n  pop\n    /* \"#utility.yul\":649:682   */\n  tag_22\n    /* \"#utility.yul\":676:681   */\n  dup2\n    /* \"#utility.yul\":649:682   */\n  tag_11\n  jump\t// in\ntag_22:\n    /* \"#utility.yul\":545:688   */\n  swap3\n  swap2\n  pop\n  pop\n  jump\t// out\n    /* \"#utility.yul\":694:1045   */\ntag_3:\n    /* \"#utility.yul\":764:770   */\n  0x00\n    /* \"#utility.yul\":813:815   */\n  0x20\n    /* \"#utility.yul\":801:810   */\n  dup3\n    /* \"#utility.yul\":792:799   */\n  dup5\n    /* \"#utility.yul\":788:811   */\n  sub\n    /* \"#utility.yul\":784:816   */\n  slt\n    /* \"#utility.yul\":781:900   */\n  iszero\n  tag_24\n  jumpi\n    /* \"#utility.yul\":819:898   */\n  tag_25\n  tag_8\n  jump\t// in\ntag_25:\n    /* \"#utility.yul\":781:900   */\ntag_24:\n    /* \"#utility.yul\":939:940   */\n  0x00\n    /* \"#utility.yul\":964:1028   */\n  tag_26\n    /* \"#utility.yul\":1020:1027   */\n  dup5\n    /* \"#utility.yul\":1011:1017   */\n  dup3\n    /* \"#utility.yul\":1000:1009   */\n  dup6\n    /* \"#utility.yul\":996:1018   */\n  add\n    /* \"#utility.yul\":964:1028   */\n  tag_12\n  jump\t// in\ntag_26:\n    /* \"#utility.yul\":954:1028   */\n  swap2\n  pop\n    /* \"#utility.yul\":910:1038   */\n  pop\n    /* \"#utility.yul\":694:1045   */\n  swap3\n  swap2\n  pop\n  pop\n  jump\t// out\n    /* \"contracts/KipuBank.sol\":143:4454  contract KipuBank {... */\ntag_6:\n  mload(0x80)\n  mload(0xa0)\n  codecopy(0x00, dataOffset(sub_0), dataSize(sub_0))\n  0x00\n  assignImmutable(\"0xceebf77a833b30520287ddd9478ff51abbdffa30aa90a8d655dba0e8a79ce0c1\")\n  0x00\n  assignImmutable(\"0x2a80e1ef1d7842f27f2e6be0972bb708b9a135c38860dbe73c27c3486c34f4de\")\n  return(0x00, dataSize(sub_0))\nstop\n\nsub_0: assembly {\n        /* \"contracts/KipuBank.sol\":143:4454  contract KipuBank {... */\n      mstore(0x40, 0x80)\n      jumpi(tag_1, lt(calldatasize, 0x04))\n      shr(0xe0, calldataload(0x00))\n      dup1\n      0x6900670c\n      eq\n      tag_2\n      jumpi\n      dup1\n      0x8debc4a8\n      eq\n      tag_3\n      jumpi\n      dup1\n      0x93295c1c\n      eq\n      tag_4\n      jumpi\n      dup1\n      0xacaf5a14\n      eq\n      tag_5\n      jumpi\n      dup1\n      0xc6aca33c\n      eq\n      tag_6\n      jumpi\n      dup1\n      0xf39b1809\n      eq\n      tag_7\n      jumpi\n    tag_1:\n      revert(0x00, 0x00)\n        /* \"contracts/KipuBank.sol\":3884:3985  function verBoveda() external view returns (uint monto_) {... */\n    tag_2:\n      callvalue\n      dup1\n      iszero\n      tag_8\n      jumpi\n      revert(0x00, 0x00)\n    tag_8:\n      pop\n      tag_9\n      tag_10\n      jump\t// in\n    tag_9:\n      mload(0x40)\n      tag_11\n      swap2\n      swap1\n      tag_12\n      jump\t// in\n    tag_11:\n      mload(0x40)\n      dup1\n      swap2\n      sub\n      swap1\n      return\n        /* \"contracts/KipuBank.sol\":3232:3342  function retirarDeBoveda(uint _monto) external verificarRetiro(_monto) {... */\n    tag_3:\n      callvalue\n      dup1\n      iszero\n      tag_13\n      jumpi\n      revert(0x00, 0x00)\n    tag_13:\n      pop\n      tag_14\n      0x04\n      dup1\n      calldatasize\n      sub\n      dup2\n      add\n      swap1\n      tag_15\n      swap2\n      swap1\n      tag_16\n      jump\t// in\n    tag_15:\n      tag_17\n      jump\t// in\n    tag_14:\n      stop\n        /* \"contracts/KipuBank.sol\":4357:4451  function verTotalContrato() external view returns (uint) {... */\n    tag_4:\n      callvalue\n      dup1\n      iszero\n      tag_18\n      jumpi\n      revert(0x00, 0x00)\n    tag_18:\n      pop\n      tag_19\n      tag_20\n      jump\t// in\n    tag_19:\n      mload(0x40)\n      tag_21\n      swap2\n      swap1\n      tag_12\n      jump\t// in\n    tag_21:\n      mload(0x40)\n      dup1\n      swap2\n      sub\n      swap1\n      return\n        /* \"contracts/KipuBank.sol\":3462:3750  function depositarEnBoveda() external payable verificarDepositos(msg.value) {... */\n    tag_5:\n      tag_22\n      tag_23\n      jump\t// in\n    tag_22:\n      stop\n        /* \"contracts/KipuBank.sol\":4206:4293  function verTotalRetiros() external view returns (uint) {... */\n    tag_6:\n      callvalue\n      dup1\n      iszero\n      tag_24\n      jumpi\n      revert(0x00, 0x00)\n    tag_24:\n      pop\n      tag_25\n      tag_26\n      jump\t// in\n    tag_25:\n      mload(0x40)\n      tag_27\n      swap2\n      swap1\n      tag_12\n      jump\t// in\n    tag_27:\n      mload(0x40)\n      dup1\n      swap2\n      sub\n      swap1\n      return\n        /* \"contracts/KipuBank.sol\":4051:4142  function verTotalDepositos() external view returns (uint) {... */\n    tag_7:\n      callvalue\n      dup1\n      iszero\n      tag_28\n      jumpi\n      revert(0x00, 0x00)\n    tag_28:\n      pop\n      tag_29\n      tag_30\n      jump\t// in\n    tag_29:\n      mload(0x40)\n      tag_31\n      swap2\n      swap1\n      tag_12\n      jump\t// in\n    tag_31:\n      mload(0x40)\n      dup1\n      swap2\n      sub\n      swap1\n      return\n        /* \"contracts/KipuBank.sol\":3884:3985  function verBoveda() external view returns (uint monto_) {... */\n    tag_10:\n        /* \"contracts/KipuBank.sol\":3928:3939  uint monto_ */\n      0x00\n        /* \"contracts/KipuBank.sol\":3960:3966  boveda */\n      0x03\n        /* \"contracts/KipuBank.sol\":3960:3978  boveda[msg.sender] */\n      0x00\n        /* \"contracts/KipuBank.sol\":3967:3977  msg.sender */\n      caller\n        /* \"contracts/KipuBank.sol\":3960:3978  boveda[msg.sender] */\n      0xffffffffffffffffffffffffffffffffffffffff\n      and\n      0xffffffffffffffffffffffffffffffffffffffff\n      and\n      dup2\n      mstore\n      0x20\n      add\n      swap1\n      dup2\n      mstore\n      0x20\n      add\n      0x00\n      keccak256\n      sload\n        /* \"contracts/KipuBank.sol\":3951:3978  monto_ = boveda[msg.sender] */\n      swap1\n      pop\n        /* \"contracts/KipuBank.sol\":3884:3985  function verBoveda() external view returns (uint monto_) {... */\n      swap1\n      jump\t// out\n        /* \"contracts/KipuBank.sol\":3232:3342  function retirarDeBoveda(uint _monto) external verificarRetiro(_monto) {... */\n    tag_17:\n        /* \"contracts/KipuBank.sol\":3295:3301  _monto */\n      dup1\n        /* \"contracts/KipuBank.sol\":2350:2351  0 */\n      0x00\n        /* \"contracts/KipuBank.sol\":2340:2346  _monto */\n      dup2\n        /* \"contracts/KipuBank.sol\":2340:2351  _monto <= 0 */\n      gt\n        /* \"contracts/KipuBank.sol\":2337:2390  if(_monto <= 0) revert KipuBank_MontoCero(msg.sender) */\n      tag_34\n      jumpi\n        /* \"contracts/KipuBank.sol\":2379:2389  msg.sender */\n      caller\n        /* \"contracts/KipuBank.sol\":2360:2390  KipuBank_MontoCero(msg.sender) */\n      mload(0x40)\n      0xb2f0923100000000000000000000000000000000000000000000000000000000\n      dup2\n      mstore\n      0x04\n      add\n      tag_35\n      swap2\n      swap1\n      tag_36\n      jump\t// in\n    tag_35:\n      mload(0x40)\n      dup1\n      swap2\n      sub\n      swap1\n      revert\n        /* \"contracts/KipuBank.sol\":2337:2390  if(_monto <= 0) revert KipuBank_MontoCero(msg.sender) */\n    tag_34:\n        /* \"contracts/KipuBank.sol\":2413:2419  umbral */\n      immutable(\"0x2a80e1ef1d7842f27f2e6be0972bb708b9a135c38860dbe73c27c3486c34f4de\")\n        /* \"contracts/KipuBank.sol\":2404:2410  _monto */\n      dup2\n        /* \"contracts/KipuBank.sol\":2404:2419  _monto > umbral */\n      gt\n        /* \"contracts/KipuBank.sol\":2400:2459  if (_monto > umbral) revert KipuBank_UmbralExcedido(_monto) */\n      iszero\n      tag_37\n      jumpi\n        /* \"contracts/KipuBank.sol\":2452:2458  _monto */\n      dup1\n        /* \"contracts/KipuBank.sol\":2428:2459  KipuBank_UmbralExcedido(_monto) */\n      mload(0x40)\n      0xc399356500000000000000000000000000000000000000000000000000000000\n      dup2\n      mstore\n      0x04\n      add\n      tag_38\n      swap2\n      swap1\n      tag_12\n      jump\t// in\n    tag_38:\n      mload(0x40)\n      dup1\n      swap2\n      sub\n      swap1\n      revert\n        /* \"contracts/KipuBank.sol\":2400:2459  if (_monto > umbral) revert KipuBank_UmbralExcedido(_monto) */\n    tag_37:\n        /* \"contracts/KipuBank.sol\":2482:2488  boveda */\n      0x03\n        /* \"contracts/KipuBank.sol\":2482:2500  boveda[msg.sender] */\n      0x00\n        /* \"contracts/KipuBank.sol\":2489:2499  msg.sender */\n      caller\n        /* \"contracts/KipuBank.sol\":2482:2500  boveda[msg.sender] */\n      0xffffffffffffffffffffffffffffffffffffffff\n      and\n      0xffffffffffffffffffffffffffffffffffffffff\n      and\n      dup2\n      mstore\n      0x20\n      add\n      swap1\n      dup2\n      mstore\n      0x20\n      add\n      0x00\n      keccak256\n      sload\n        /* \"contracts/KipuBank.sol\":2473:2479  _monto */\n      dup2\n        /* \"contracts/KipuBank.sol\":2473:2500  _monto > boveda[msg.sender] */\n      gt\n        /* \"contracts/KipuBank.sol\":2469:2555  if (_monto > boveda[msg.sender]) revert KipuBank_SaldoInsuficiente(msg.sender, _monto) */\n      iszero\n      tag_39\n      jumpi\n        /* \"contracts/KipuBank.sol\":2536:2546  msg.sender */\n      caller\n        /* \"contracts/KipuBank.sol\":2548:2554  _monto */\n      dup2\n        /* \"contracts/KipuBank.sol\":2509:2555  KipuBank_SaldoInsuficiente(msg.sender, _monto) */\n      mload(0x40)\n      0x51a7314200000000000000000000000000000000000000000000000000000000\n      dup2\n      mstore\n      0x04\n      add\n      tag_40\n      swap3\n      swap2\n      swap1\n      tag_41\n      jump\t// in\n    tag_40:\n      mload(0x40)\n      dup1\n      swap2\n      sub\n      swap1\n      revert\n        /* \"contracts/KipuBank.sol\":2469:2555  if (_monto > boveda[msg.sender]) revert KipuBank_SaldoInsuficiente(msg.sender, _monto) */\n    tag_39:\n        /* \"contracts/KipuBank.sol\":3313:3335  _retirarFondos(_monto) */\n      tag_43\n        /* \"contracts/KipuBank.sol\":3328:3334  _monto */\n      dup3\n        /* \"contracts/KipuBank.sol\":3313:3327  _retirarFondos */\n      tag_44\n        /* \"contracts/KipuBank.sol\":3313:3335  _retirarFondos(_monto) */\n      jump\t// in\n    tag_43:\n        /* \"contracts/KipuBank.sol\":3232:3342  function retirarDeBoveda(uint _monto) external verificarRetiro(_monto) {... */\n      pop\n      pop\n      jump\t// out\n        /* \"contracts/KipuBank.sol\":4357:4451  function verTotalContrato() external view returns (uint) {... */\n    tag_20:\n        /* \"contracts/KipuBank.sol\":4408:4412  uint */\n      0x00\n        /* \"contracts/KipuBank.sol\":4431:4444  totalContrato */\n      sload(0x02)\n        /* \"contracts/KipuBank.sol\":4424:4444  return totalContrato */\n      swap1\n      pop\n        /* \"contracts/KipuBank.sol\":4357:4451  function verTotalContrato() external view returns (uint) {... */\n      swap1\n      jump\t// out\n        /* \"contracts/KipuBank.sol\":3462:3750  function depositarEnBoveda() external payable verificarDepositos(msg.value) {... */\n    tag_23:\n        /* \"contracts/KipuBank.sol\":3527:3536  msg.value */\n      callvalue\n        /* \"contracts/KipuBank.sol\":2026:2027  0 */\n      0x00\n        /* \"contracts/KipuBank.sol\":2016:2022  _monto */\n      dup2\n        /* \"contracts/KipuBank.sol\":2016:2027  _monto <= 0 */\n      gt\n        /* \"contracts/KipuBank.sol\":2013:2066  if(_monto <= 0) revert KipuBank_MontoCero(msg.sender) */\n      tag_47\n      jumpi\n        /* \"contracts/KipuBank.sol\":2055:2065  msg.sender */\n      caller\n        /* \"contracts/KipuBank.sol\":2036:2066  KipuBank_MontoCero(msg.sender) */\n      mload(0x40)\n      0xb2f0923100000000000000000000000000000000000000000000000000000000\n      dup2\n      mstore\n      0x04\n      add\n      tag_48\n      swap2\n      swap1\n      tag_36\n      jump\t// in\n    tag_48:\n      mload(0x40)\n      dup1\n      swap2\n      sub\n      swap1\n      revert\n        /* \"contracts/KipuBank.sol\":2013:2066  if(_monto <= 0) revert KipuBank_MontoCero(msg.sender) */\n    tag_47:\n        /* \"contracts/KipuBank.sol\":2106:2113  bankCap */\n      immutable(\"0xceebf77a833b30520287ddd9478ff51abbdffa30aa90a8d655dba0e8a79ce0c1\")\n        /* \"contracts/KipuBank.sol\":2089:2102  totalContrato */\n      sload(0x02)\n        /* \"contracts/KipuBank.sol\":2080:2086  _monto */\n      dup3\n        /* \"contracts/KipuBank.sol\":2080:2102  _monto + totalContrato */\n      tag_49\n      swap2\n      swap1\n      tag_50\n      jump\t// in\n    tag_49:\n        /* \"contracts/KipuBank.sol\":2080:2113  _monto + totalContrato >= bankCap */\n      lt\n        /* \"contracts/KipuBank.sol\":2076:2153  if (_monto + totalContrato >= bankCap) revert KipuBank_LimiteExcedido(_monto) */\n      tag_51\n      jumpi\n        /* \"contracts/KipuBank.sol\":2146:2152  _monto */\n      dup1\n        /* \"contracts/KipuBank.sol\":2122:2153  KipuBank_LimiteExcedido(_monto) */\n      mload(0x40)\n      0x2900b02c00000000000000000000000000000000000000000000000000000000\n      dup2\n      mstore\n      0x04\n      add\n      tag_52\n      swap2\n      swap1\n      tag_12\n      jump\t// in\n    tag_52:\n      mload(0x40)\n      dup1\n      swap2\n      sub\n      swap1\n      revert\n        /* \"contracts/KipuBank.sol\":2076:2153  if (_monto + totalContrato >= bankCap) revert KipuBank_LimiteExcedido(_monto) */\n    tag_51:\n        /* \"contracts/KipuBank.sol\":3590:3599  msg.value */\n      callvalue\n        /* \"contracts/KipuBank.sol\":3569:3575  boveda */\n      0x03\n        /* \"contracts/KipuBank.sol\":3569:3587  boveda[msg.sender] */\n      0x00\n        /* \"contracts/KipuBank.sol\":3576:3586  msg.sender */\n      caller\n        /* \"contracts/KipuBank.sol\":3569:3587  boveda[msg.sender] */\n      0xffffffffffffffffffffffffffffffffffffffff\n      and\n      0xffffffffffffffffffffffffffffffffffffffff\n      and\n      dup2\n      mstore\n      0x20\n      add\n      swap1\n      dup2\n      mstore\n      0x20\n      add\n      0x00\n      keccak256\n      sload\n        /* \"contracts/KipuBank.sol\":3569:3599  boveda[msg.sender] + msg.value */\n      tag_54\n      swap2\n      swap1\n      tag_50\n      jump\t// in\n    tag_54:\n        /* \"contracts/KipuBank.sol\":3548:3554  boveda */\n      0x03\n        /* \"contracts/KipuBank.sol\":3548:3566  boveda[msg.sender] */\n      0x00\n        /* \"contracts/KipuBank.sol\":3555:3565  msg.sender */\n      caller\n        /* \"contracts/KipuBank.sol\":3548:3566  boveda[msg.sender] */\n      0xffffffffffffffffffffffffffffffffffffffff\n      and\n      0xffffffffffffffffffffffffffffffffffffffff\n      and\n      dup2\n      mstore\n      0x20\n      add\n      swap1\n      dup2\n      mstore\n      0x20\n      add\n      0x00\n      keccak256\n        /* \"contracts/KipuBank.sol\":3548:3599  boveda[msg.sender] = boveda[msg.sender] + msg.value */\n      dup2\n      swap1\n      sstore\n      pop\n        /* \"contracts/KipuBank.sol\":3617:3626  depositos */\n      0x00\n      0x00\n        /* \"contracts/KipuBank.sol\":3617:3628  depositos++ */\n      dup2\n      sload\n      dup1\n      swap3\n      swap2\n      swap1\n      tag_55\n      swap1\n      tag_56\n      jump\t// in\n    tag_55:\n      swap2\n      swap1\n      pop\n      sstore\n      pop\n        /* \"contracts/KipuBank.sol\":3670:3679  msg.value */\n      callvalue\n        /* \"contracts/KipuBank.sol\":3654:3667  totalContrato */\n      sload(0x02)\n        /* \"contracts/KipuBank.sol\":3654:3679  totalContrato + msg.value */\n      tag_57\n      swap2\n      swap1\n      tag_50\n      jump\t// in\n    tag_57:\n        /* \"contracts/KipuBank.sol\":3638:3651  totalContrato */\n      0x02\n        /* \"contracts/KipuBank.sol\":3638:3679  totalContrato = totalContrato + msg.value */\n      dup2\n      swap1\n      sstore\n      pop\n        /* \"contracts/KipuBank.sol\":3694:3743  KipuBank_DepositoRealizado(msg.sender, msg.value) */\n      0x9d15693852bf60dc27bd5aa831d0351359b7d01d428ae1baae11f15cbcfebafd\n        /* \"contracts/KipuBank.sol\":3721:3731  msg.sender */\n      caller\n        /* \"contracts/KipuBank.sol\":3733:3742  msg.value */\n      callvalue\n        /* \"contracts/KipuBank.sol\":3694:3743  KipuBank_DepositoRealizado(msg.sender, msg.value) */\n      mload(0x40)\n      tag_58\n      swap3\n      swap2\n      swap1\n      tag_41\n      jump\t// in\n    tag_58:\n      mload(0x40)\n      dup1\n      swap2\n      sub\n      swap1\n      log1\n        /* \"contracts/KipuBank.sol\":3462:3750  function depositarEnBoveda() external payable verificarDepositos(msg.value) {... */\n      pop\n      jump\t// out\n        /* \"contracts/KipuBank.sol\":4206:4293  function verTotalRetiros() external view returns (uint) {... */\n    tag_26:\n        /* \"contracts/KipuBank.sol\":4256:4260  uint */\n      0x00\n        /* \"contracts/KipuBank.sol\":4279:4286  retiros */\n      sload(0x01)\n        /* \"contracts/KipuBank.sol\":4272:4286  return retiros */\n      swap1\n      pop\n        /* \"contracts/KipuBank.sol\":4206:4293  function verTotalRetiros() external view returns (uint) {... */\n      swap1\n      jump\t// out\n        /* \"contracts/KipuBank.sol\":4051:4142  function verTotalDepositos() external view returns (uint) {... */\n    tag_30:\n        /* \"contracts/KipuBank.sol\":4103:4107  uint */\n      0x00\n        /* \"contracts/KipuBank.sol\":4126:4135  depositos */\n      sload(0x00)\n        /* \"contracts/KipuBank.sol\":4119:4135  return depositos */\n      swap1\n      pop\n        /* \"contracts/KipuBank.sol\":4051:4142  function verTotalDepositos() external view returns (uint) {... */\n      swap1\n      jump\t// out\n        /* \"contracts/KipuBank.sol\":2710:3109  function _retirarFondos(uint _monto) private {... */\n    tag_44:\n        /* \"contracts/KipuBank.sol\":2807:2813  _monto */\n      dup1\n        /* \"contracts/KipuBank.sol\":2786:2792  boveda */\n      0x03\n        /* \"contracts/KipuBank.sol\":2786:2804  boveda[msg.sender] */\n      0x00\n        /* \"contracts/KipuBank.sol\":2793:2803  msg.sender */\n      caller\n        /* \"contracts/KipuBank.sol\":2786:2804  boveda[msg.sender] */\n      0xffffffffffffffffffffffffffffffffffffffff\n      and\n      0xffffffffffffffffffffffffffffffffffffffff\n      and\n      dup2\n      mstore\n      0x20\n      add\n      swap1\n      dup2\n      mstore\n      0x20\n      add\n      0x00\n      keccak256\n      sload\n        /* \"contracts/KipuBank.sol\":2786:2813  boveda[msg.sender] - _monto */\n      tag_62\n      swap2\n      swap1\n      tag_63\n      jump\t// in\n    tag_62:\n        /* \"contracts/KipuBank.sol\":2765:2771  boveda */\n      0x03\n        /* \"contracts/KipuBank.sol\":2765:2783  boveda[msg.sender] */\n      0x00\n        /* \"contracts/KipuBank.sol\":2772:2782  msg.sender */\n      caller\n        /* \"contracts/KipuBank.sol\":2765:2783  boveda[msg.sender] */\n      0xffffffffffffffffffffffffffffffffffffffff\n      and\n      0xffffffffffffffffffffffffffffffffffffffff\n      and\n      dup2\n      mstore\n      0x20\n      add\n      swap1\n      dup2\n      mstore\n      0x20\n      add\n      0x00\n      keccak256\n        /* \"contracts/KipuBank.sol\":2765:2813  boveda[msg.sender] = boveda[msg.sender] - _monto */\n      dup2\n      swap1\n      sstore\n      pop\n        /* \"contracts/KipuBank.sol\":2823:2830  retiros */\n      0x01\n      0x00\n        /* \"contracts/KipuBank.sol\":2823:2832  retiros++ */\n      dup2\n      sload\n      dup1\n      swap3\n      swap2\n      swap1\n      tag_64\n      swap1\n      tag_56\n      jump\t// in\n    tag_64:\n      swap2\n      swap1\n      pop\n      sstore\n      pop\n        /* \"contracts/KipuBank.sol\":2874:2880  _monto */\n      dup1\n        /* \"contracts/KipuBank.sol\":2858:2871  totalContrato */\n      sload(0x02)\n        /* \"contracts/KipuBank.sol\":2858:2880  totalContrato - _monto */\n      tag_65\n      swap2\n      swap1\n      tag_63\n      jump\t// in\n    tag_65:\n        /* \"contracts/KipuBank.sol\":2842:2855  totalContrato */\n      0x02\n        /* \"contracts/KipuBank.sol\":2842:2880  totalContrato = totalContrato - _monto */\n      dup2\n      swap1\n      sstore\n      pop\n        /* \"contracts/KipuBank.sol\":2904:2952  KipuBank_ExtraccionRealizada(msg.sender, _monto) */\n      0x9cde449504e4972ffddec09813e0c252a1462d76bef1864b9e7520dadb7183e8\n        /* \"contracts/KipuBank.sol\":2933:2943  msg.sender */\n      caller\n        /* \"contracts/KipuBank.sol\":2945:2951  _monto */\n      dup3\n        /* \"contracts/KipuBank.sol\":2904:2952  KipuBank_ExtraccionRealizada(msg.sender, _monto) */\n      mload(0x40)\n      tag_66\n      swap3\n      swap2\n      swap1\n      tag_41\n      jump\t// in\n    tag_66:\n      mload(0x40)\n      dup1\n      swap2\n      sub\n      swap1\n      log1\n        /* \"contracts/KipuBank.sol\":2964:2975  bool succes */\n      0x00\n        /* \"contracts/KipuBank.sol\":2989:2999  msg.sender */\n      caller\n        /* \"contracts/KipuBank.sol\":2981:3005  payable(msg.sender).call */\n      0xffffffffffffffffffffffffffffffffffffffff\n      and\n        /* \"contracts/KipuBank.sol\":3013:3019  _monto */\n      dup3\n        /* \"contracts/KipuBank.sol\":2981:3024  payable(msg.sender).call{value: _monto}(\"\") */\n      mload(0x40)\n      tag_67\n      swap1\n      tag_68\n      jump\t// in\n    tag_67:\n      0x00\n      mload(0x40)\n      dup1\n      dup4\n      sub\n      dup2\n      dup6\n      dup8\n      gas\n      call\n      swap3\n      pop\n      pop\n      pop\n      returndatasize\n      dup1\n      0x00\n      dup2\n      eq\n      tag_71\n      jumpi\n      mload(0x40)\n      swap2\n      pop\n      and(add(returndatasize, 0x3f), not(0x1f))\n      dup3\n      add\n      0x40\n      mstore\n      returndatasize\n      dup3\n      mstore\n      returndatasize\n      0x00\n      0x20\n      dup5\n      add\n      returndatacopy\n      jump(tag_70)\n    tag_71:\n      0x60\n      swap2\n      pop\n    tag_70:\n      pop\n        /* \"contracts/KipuBank.sol\":2963:3024  (bool succes, ) = payable(msg.sender).call{value: _monto}(\"\") */\n      pop\n      swap1\n      pop\n        /* \"contracts/KipuBank.sol\":3039:3045  succes */\n      dup1\n        /* \"contracts/KipuBank.sol\":3034:3102  if (!succes) revert KipuBank_ExtraccionRechazada(msg.sender, _monto) */\n      tag_72\n      jumpi\n        /* \"contracts/KipuBank.sol\":3083:3093  msg.sender */\n      caller\n        /* \"contracts/KipuBank.sol\":3095:3101  _monto */\n      dup3\n        /* \"contracts/KipuBank.sol\":3054:3102  KipuBank_ExtraccionRechazada(msg.sender, _monto) */\n      mload(0x40)\n      0x6c5e1a1400000000000000000000000000000000000000000000000000000000\n      dup2\n      mstore\n      0x04\n      add\n      tag_73\n      swap3\n      swap2\n      swap1\n      tag_41\n      jump\t// in\n    tag_73:\n      mload(0x40)\n      dup1\n      swap2\n      sub\n      swap1\n      revert\n        /* \"contracts/KipuBank.sol\":3034:3102  if (!succes) revert KipuBank_ExtraccionRechazada(msg.sender, _monto) */\n    tag_72:\n        /* \"contracts/KipuBank.sol\":2755:3109  {... */\n      pop\n        /* \"contracts/KipuBank.sol\":2710:3109  function _retirarFondos(uint _monto) private {... */\n      pop\n      jump\t// out\n        /* \"#utility.yul\":7:84   */\n    tag_74:\n        /* \"#utility.yul\":44:51   */\n      0x00\n        /* \"#utility.yul\":73:78   */\n      dup2\n        /* \"#utility.yul\":62:78   */\n      swap1\n      pop\n        /* \"#utility.yul\":7:84   */\n      swap2\n      swap1\n      pop\n      jump\t// out\n        /* \"#utility.yul\":90:208   */\n    tag_75:\n        /* \"#utility.yul\":177:201   */\n      tag_91\n        /* \"#utility.yul\":195:200   */\n      dup2\n        /* \"#utility.yul\":177:201   */\n      tag_74\n      jump\t// in\n    tag_91:\n        /* \"#utility.yul\":172:175   */\n      dup3\n        /* \"#utility.yul\":165:202   */\n      mstore\n        /* \"#utility.yul\":90:208   */\n      pop\n      pop\n      jump\t// out\n        /* \"#utility.yul\":214:436   */\n    tag_12:\n        /* \"#utility.yul\":307:311   */\n      0x00\n        /* \"#utility.yul\":345:347   */\n      0x20\n        /* \"#utility.yul\":334:343   */\n      dup3\n        /* \"#utility.yul\":330:348   */\n      add\n        /* \"#utility.yul\":322:348   */\n      swap1\n      pop\n        /* \"#utility.yul\":358:429   */\n      tag_93\n        /* \"#utility.yul\":426:427   */\n      0x00\n        /* \"#utility.yul\":415:424   */\n      dup4\n        /* \"#utility.yul\":411:428   */\n      add\n        /* \"#utility.yul\":402:408   */\n      dup5\n        /* \"#utility.yul\":358:429   */\n      tag_75\n      jump\t// in\n    tag_93:\n        /* \"#utility.yul\":214:436   */\n      swap3\n      swap2\n      pop\n      pop\n      jump\t// out\n        /* \"#utility.yul\":523:640   */\n    tag_77:\n        /* \"#utility.yul\":632:633   */\n      0x00\n        /* \"#utility.yul\":629:630   */\n      0x00\n        /* \"#utility.yul\":622:634   */\n      revert\n        /* \"#utility.yul\":769:891   */\n    tag_79:\n        /* \"#utility.yul\":842:866   */\n      tag_98\n        /* \"#utility.yul\":860:865   */\n      dup2\n        /* \"#utility.yul\":842:866   */\n      tag_74\n      jump\t// in\n    tag_98:\n        /* \"#utility.yul\":835:840   */\n      dup2\n        /* \"#utility.yul\":832:867   */\n      eq\n        /* \"#utility.yul\":822:885   */\n      tag_99\n      jumpi\n        /* \"#utility.yul\":881:882   */\n      0x00\n        /* \"#utility.yul\":878:879   */\n      0x00\n        /* \"#utility.yul\":871:883   */\n      revert\n        /* \"#utility.yul\":822:885   */\n    tag_99:\n        /* \"#utility.yul\":769:891   */\n      pop\n      jump\t// out\n        /* \"#utility.yul\":897:1036   */\n    tag_80:\n        /* \"#utility.yul\":943:948   */\n      0x00\n        /* \"#utility.yul\":981:987   */\n      dup2\n        /* \"#utility.yul\":968:988   */\n      calldataload\n        /* \"#utility.yul\":959:988   */\n      swap1\n      pop\n        /* \"#utility.yul\":997:1030   */\n      tag_101\n        /* \"#utility.yul\":1024:1029   */\n      dup2\n        /* \"#utility.yul\":997:1030   */\n      tag_79\n      jump\t// in\n    tag_101:\n        /* \"#utility.yul\":897:1036   */\n      swap3\n      swap2\n      pop\n      pop\n      jump\t// out\n        /* \"#utility.yul\":1042:1371   */\n    tag_16:\n        /* \"#utility.yul\":1101:1107   */\n      0x00\n        /* \"#utility.yul\":1150:1152   */\n      0x20\n        /* \"#utility.yul\":1138:1147   */\n      dup3\n        /* \"#utility.yul\":1129:1136   */\n      dup5\n        /* \"#utility.yul\":1125:1148   */\n      sub\n        /* \"#utility.yul\":1121:1153   */\n      slt\n        /* \"#utility.yul\":1118:1237   */\n      iszero\n      tag_103\n      jumpi\n        /* \"#utility.yul\":1156:1235   */\n      tag_104\n      tag_77\n      jump\t// in\n    tag_104:\n        /* \"#utility.yul\":1118:1237   */\n    tag_103:\n        /* \"#utility.yul\":1276:1277   */\n      0x00\n        /* \"#utility.yul\":1301:1354   */\n      tag_105\n        /* \"#utility.yul\":1346:1353   */\n      dup5\n        /* \"#utility.yul\":1337:1343   */\n      dup3\n        /* \"#utility.yul\":1326:1335   */\n      dup6\n        /* \"#utility.yul\":1322:1344   */\n      add\n        /* \"#utility.yul\":1301:1354   */\n      tag_80\n      jump\t// in\n    tag_105:\n        /* \"#utility.yul\":1291:1354   */\n      swap2\n      pop\n        /* \"#utility.yul\":1247:1364   */\n      pop\n        /* \"#utility.yul\":1042:1371   */\n      swap3\n      swap2\n      pop\n      pop\n      jump\t// out\n        /* \"#utility.yul\":1377:1503   */\n    tag_81:\n        /* \"#utility.yul\":1414:1421   */\n      0x00\n        /* \"#utility.yul\":1454:1496   */\n      0xffffffffffffffffffffffffffffffffffffffff\n        /* \"#utility.yul\":1447:1452   */\n      dup3\n        /* \"#utility.yul\":1443:1497   */\n      and\n        /* \"#utility.yul\":1432:1497   */\n      swap1\n      pop\n        /* \"#utility.yul\":1377:1503   */\n      swap2\n      swap1\n      pop\n      jump\t// out\n        /* \"#utility.yul\":1509:1605   */\n    tag_82:\n        /* \"#utility.yul\":1546:1553   */\n      0x00\n        /* \"#utility.yul\":1575:1599   */\n      tag_108\n        /* \"#utility.yul\":1593:1598   */\n      dup3\n        /* \"#utility.yul\":1575:1599   */\n      tag_81\n      jump\t// in\n    tag_108:\n        /* \"#utility.yul\":1564:1599   */\n      swap1\n      pop\n        /* \"#utility.yul\":1509:1605   */\n      swap2\n      swap1\n      pop\n      jump\t// out\n        /* \"#utility.yul\":1611:1729   */\n    tag_83:\n        /* \"#utility.yul\":1698:1722   */\n      tag_110\n        /* \"#utility.yul\":1716:1721   */\n      dup2\n        /* \"#utility.yul\":1698:1722   */\n      tag_82\n      jump\t// in\n    tag_110:\n        /* \"#utility.yul\":1693:1696   */\n      dup3\n        /* \"#utility.yul\":1686:1723   */\n      mstore\n        /* \"#utility.yul\":1611:1729   */\n      pop\n      pop\n      jump\t// out\n        /* \"#utility.yul\":1735:1957   */\n    tag_36:\n        /* \"#utility.yul\":1828:1832   */\n      0x00\n        /* \"#utility.yul\":1866:1868   */\n      0x20\n        /* \"#utility.yul\":1855:1864   */\n      dup3\n        /* \"#utility.yul\":1851:1869   */\n      add\n        /* \"#utility.yul\":1843:1869   */\n      swap1\n      pop\n        /* \"#utility.yul\":1879:1950   */\n      tag_112\n        /* \"#utility.yul\":1947:1948   */\n      0x00\n        /* \"#utility.yul\":1936:1945   */\n      dup4\n        /* \"#utility.yul\":1932:1949   */\n      add\n        /* \"#utility.yul\":1923:1929   */\n      dup5\n        /* \"#utility.yul\":1879:1950   */\n      tag_83\n      jump\t// in\n    tag_112:\n        /* \"#utility.yul\":1735:1957   */\n      swap3\n      swap2\n      pop\n      pop\n      jump\t// out\n        /* \"#utility.yul\":1963:2295   */\n    tag_41:\n        /* \"#utility.yul\":2084:2088   */\n      0x00\n        /* \"#utility.yul\":2122:2124   */\n      0x40\n        /* \"#utility.yul\":2111:2120   */\n      dup3\n        /* \"#utility.yul\":2107:2125   */\n      add\n        /* \"#utility.yul\":2099:2125   */\n      swap1\n      pop\n        /* \"#utility.yul\":2135:2206   */\n      tag_114\n        /* \"#utility.yul\":2203:2204   */\n      0x00\n        /* \"#utility.yul\":2192:2201   */\n      dup4\n        /* \"#utility.yul\":2188:2205   */\n      add\n        /* \"#utility.yul\":2179:2185   */\n      dup6\n        /* \"#utility.yul\":2135:2206   */\n      tag_83\n      jump\t// in\n    tag_114:\n        /* \"#utility.yul\":2216:2288   */\n      tag_115\n        /* \"#utility.yul\":2284:2286   */\n      0x20\n        /* \"#utility.yul\":2273:2282   */\n      dup4\n        /* \"#utility.yul\":2269:2287   */\n      add\n        /* \"#utility.yul\":2260:2266   */\n      dup5\n        /* \"#utility.yul\":2216:2288   */\n      tag_75\n      jump\t// in\n    tag_115:\n        /* \"#utility.yul\":1963:2295   */\n      swap4\n      swap3\n      pop\n      pop\n      pop\n      jump\t// out\n        /* \"#utility.yul\":2301:2481   */\n    tag_84:\n        /* \"#utility.yul\":2349:2426   */\n      0x4e487b7100000000000000000000000000000000000000000000000000000000\n        /* \"#utility.yul\":2346:2347   */\n      0x00\n        /* \"#utility.yul\":2339:2427   */\n      mstore\n        /* \"#utility.yul\":2446:2450   */\n      0x11\n        /* \"#utility.yul\":2443:2444   */\n      0x04\n        /* \"#utility.yul\":2436:2451   */\n      mstore\n        /* \"#utility.yul\":2470:2474   */\n      0x24\n        /* \"#utility.yul\":2467:2468   */\n      0x00\n        /* \"#utility.yul\":2460:2475   */\n      revert\n        /* \"#utility.yul\":2487:2678   */\n    tag_50:\n        /* \"#utility.yul\":2527:2530   */\n      0x00\n        /* \"#utility.yul\":2546:2566   */\n      tag_118\n        /* \"#utility.yul\":2564:2565   */\n      dup3\n        /* \"#utility.yul\":2546:2566   */\n      tag_74\n      jump\t// in\n    tag_118:\n        /* \"#utility.yul\":2541:2566   */\n      swap2\n      pop\n        /* \"#utility.yul\":2580:2600   */\n      tag_119\n        /* \"#utility.yul\":2598:2599   */\n      dup4\n        /* \"#utility.yul\":2580:2600   */\n      tag_74\n      jump\t// in\n    tag_119:\n        /* \"#utility.yul\":2575:2600   */\n      swap3\n      pop\n        /* \"#utility.yul\":2623:2624   */\n      dup3\n        /* \"#utility.yul\":2620:2621   */\n      dup3\n        /* \"#utility.yul\":2616:2625   */\n      add\n        /* \"#utility.yul\":2609:2625   */\n      swap1\n      pop\n        /* \"#utility.yul\":2644:2647   */\n      dup1\n        /* \"#utility.yul\":2641:2642   */\n      dup3\n        /* \"#utility.yul\":2638:2648   */\n      gt\n        /* \"#utility.yul\":2635:2671   */\n      iszero\n      tag_120\n      jumpi\n        /* \"#utility.yul\":2651:2669   */\n      tag_121\n      tag_84\n      jump\t// in\n    tag_121:\n        /* \"#utility.yul\":2635:2671   */\n    tag_120:\n        /* \"#utility.yul\":2487:2678   */\n      swap3\n      swap2\n      pop\n      pop\n      jump\t// out\n        /* \"#utility.yul\":2684:2917   */\n    tag_56:\n        /* \"#utility.yul\":2723:2726   */\n      0x00\n        /* \"#utility.yul\":2746:2770   */\n      tag_123\n        /* \"#utility.yul\":2764:2769   */\n      dup3\n        /* \"#utility.yul\":2746:2770   */\n      tag_74\n      jump\t// in\n    tag_123:\n        /* \"#utility.yul\":2737:2770   */\n      swap2\n      pop\n        /* \"#utility.yul\":2792:2858   */\n      0xffffffffffffffffffffffffffffffffffffffffffffffffffffffffffffffff\n        /* \"#utility.yul\":2785:2790   */\n      dup3\n        /* \"#utility.yul\":2782:2859   */\n      sub\n        /* \"#utility.yul\":2779:2882   */\n      tag_124\n      jumpi\n        /* \"#utility.yul\":2862:2880   */\n      tag_125\n      tag_84\n      jump\t// in\n    tag_125:\n        /* \"#utility.yul\":2779:2882   */\n    tag_124:\n        /* \"#utility.yul\":2909:2910   */\n      0x01\n        /* \"#utility.yul\":2902:2907   */\n      dup3\n        /* \"#utility.yul\":2898:2911   */\n      add\n        /* \"#utility.yul\":2891:2911   */\n      swap1\n      pop\n        /* \"#utility.yul\":2684:2917   */\n      swap2\n      swap1\n      pop\n      jump\t// out\n        /* \"#utility.yul\":2923:3117   */\n    tag_63:\n        /* \"#utility.yul\":2963:2967   */\n      0x00\n        /* \"#utility.yul\":2983:3003   */\n      tag_127\n        /* \"#utility.yul\":3001:3002   */\n      dup3\n        /* \"#utility.yul\":2983:3003   */\n      tag_74\n      jump\t// in\n    tag_127:\n        /* \"#utility.yul\":2978:3003   */\n      swap2\n      pop\n        /* \"#utility.yul\":3017:3037   */\n      tag_128\n        /* \"#utility.yul\":3035:3036   */\n      dup4\n        /* \"#utility.yul\":3017:3037   */\n      tag_74\n      jump\t// in\n    tag_128:\n        /* \"#utility.yul\":3012:3037   */\n      swap3\n      pop\n        /* \"#utility.yul\":3061:3062   */\n      dup3\n        /* \"#utility.yul\":3058:3059   */\n      dup3\n        /* \"#utility.yul\":3054:3063   */\n      sub\n        /* \"#utility.yul\":3046:3063   */\n      swap1\n      pop\n        /* \"#utility.yul\":3085:3086   */\n      dup2\n        /* \"#utility.yul\":3079:3083   */\n      dup2\n        /* \"#utility.yul\":3076:3087   */\n      gt\n        /* \"#utility.yul\":3073:3110   */\n      iszero\n      tag_129\n      jumpi\n        /* \"#utility.yul\":3090:3108   */\n      tag_130\n      tag_84\n      jump\t// in\n    tag_130:\n        /* \"#utility.yul\":3073:3110   */\n    tag_129:\n        /* \"#utility.yul\":2923:3117   */\n      swap3\n      swap2\n      pop\n      pop\n      jump\t// out\n        /* \"#utility.yul\":3123:3270   */\n    tag_85:\n        /* \"#utility.yul\":3224:3235   */\n      0x00\n        /* \"#utility.yul\":3261:3264   */\n      dup2\n        /* \"#utility.yul\":3246:3264   */\n      swap1\n      pop\n        /* \"#utility.yul\":3123:3270   */\n      swap3\n      swap2\n      pop\n      pop\n      jump\t// out\n        /* \"#utility.yul\":3276:3390   */\n    tag_86:\n      pop\n      jump\t// out\n        /* \"#utility.yul\":3396:3794   */\n    tag_87:\n        /* \"#utility.yul\":3555:3558   */\n      0x00\n        /* \"#utility.yul\":3576:3659   */\n      tag_134\n        /* \"#utility.yul\":3657:3658   */\n      0x00\n        /* \"#utility.yul\":3652:3655   */\n      dup4\n        /* \"#utility.yul\":3576:3659   */\n      tag_85\n      jump\t// in\n    tag_134:\n        /* \"#utility.yul\":3569:3659   */\n      swap2\n      pop\n        /* \"#utility.yul\":3668:3761   */\n      tag_135\n        /* \"#utility.yul\":3757:3760   */\n      dup3\n        /* \"#utility.yul\":3668:3761   */\n      tag_86\n      jump\t// in\n    tag_135:\n        /* \"#utility.yul\":3786:3787   */\n      0x00\n        /* \"#utility.yul\":3781:3784   */\n      dup3\n        /* \"#utility.yul\":3777:3788   */\n      add\n        /* \"#utility.yul\":3770:3788   */\n      swap1\n      pop\n        /* \"#utility.yul\":3396:3794   */\n      swap2\n      swap1\n      pop\n      jump\t// out\n        /* \"#utility.yul\":3800:4179   */\n    tag_68:\n        /* \"#utility.yul\":3984:3987   */\n      0x00\n        /* \"#utility.yul\":4006:4153   */\n      tag_137\n        /* \"#utility.yul\":4149:4152   */\n      dup3\n        /* \"#utility.yul\":4006:4153   */\n      tag_87\n      jump\t// in\n    tag_137:\n        /* \"#utility.yul\":3999:4153   */\n      swap2\n      pop\n        /* \"#utility.yul\":4170:4173   */\n      dup2\n        /* \"#utility.yul\":4163:4173   */\n      swap1\n      pop\n        /* \"#utility.yul\":3800:4179   */\n      swap2\n      swap1\n      pop\n      jump\t// out\n\n    auxdata: 0xa2646970667358221220469df33a3e411bce72dae8450bffb2e4d8d1d4d8f87b15197fb2b960ff9e73d864736f6c634300081e0033\n}\n",
				"bytecode": {
					"linkReferences": {},
					"object": "60c06040525f5f555f6001555f60025534801561001a575f5ffd5b5060405161093f38038061093f833981810160405281019061003c919061008a565b8060a08181525050603260808181525050506100b5565b5f5ffd5b5f819050919050565b61006981610057565b8114610073575f5ffd5b50565b5f8151905061008481610060565b92915050565b5f6020828403121561009f5761009e610053565b5b5f6100ac84828501610076565b91505092915050565b60805160a0516108696100d65f395f61030101525f6101bd01526108695ff3fe608060405260043610610054575f3560e01c80636900670c146100585780638debc4a81461008257806393295c1c146100aa578063acaf5a14146100d4578063c6aca33c146100de578063f39b180914610108575b5f5ffd5b348015610063575f5ffd5b5061006c610132565b6040516100799190610627565b60405180910390f35b34801561008d575f5ffd5b506100a860048036038101906100a3919061066e565b610176565b005b3480156100b5575f5ffd5b506100be6102b1565b6040516100cb9190610627565b60405180910390f35b6100dc6102ba565b005b3480156100e9575f5ffd5b506100f2610460565b6040516100ff9190610627565b60405180910390f35b348015610113575f5ffd5b5061011c610469565b6040516101299190610627565b60405180910390f35b5f60035f3373ffffffffffffffffffffffffffffffffffffffff1673ffffffffffffffffffffffffffffffffffffffff1681526020019081526020015f2054905090565b805f81116101bb57336040517fb2f092310000000000000000000000000000000000000000000000000000000081526004016101b291906106d8565b60405180910390fd5b7f000000000000000000000000000000000000000000000000000000000000000081111561022057806040517fc39935650000000000000000000000000000000000000000000000000000000081526004016102179190610627565b60405180910390fd5b60035f3373ffffffffffffffffffffffffffffffffffffffff1673ffffffffffffffffffffffffffffffffffffffff1681526020019081526020015f20548111156102a45733816040517f51a7314200000000000000000000000000000000000000000000000000000000815260040161029b9291906106f1565b60405180910390fd5b6102ad82610471565b5050565b5f600254905090565b345f81116102ff57336040517fb2f092310000000000000000000000000000000000000000000000000000000081526004016102f691906106d8565b60405180910390fd5b7f00000000000000000000000000000000000000000000000000000000000000006002548261032e9190610745565b1061037057806040517f2900b02c0000000000000000000000000000000000000000000000000000000081526004016103679190610627565b60405180910390fd5b3460035f3373ffffffffffffffffffffffffffffffffffffffff1673ffffffffffffffffffffffffffffffffffffffff1681526020019081526020015f20546103b99190610745565b60035f3373ffffffffffffffffffffffffffffffffffffffff1673ffffffffffffffffffffffffffffffffffffffff1681526020019081526020015f20819055505f5f81548092919061040b90610778565b91905055503460025461041e9190610745565b6002819055507f9d15693852bf60dc27bd5aa831d0351359b7d01d428ae1baae11f15cbcfebafd33346040516104559291906106f1565b60405180910390a150565b5f600154905090565b5f5f54905090565b8060035f3373ffffffffffffffffffffffffffffffffffffffff1673ffffffffffffffffffffffffffffffffffffffff1681526020019081526020015f20546104ba91906107bf565b60035f3373ffffffffffffffffffffffffffffffffffffffff1673ffffffffffffffffffffffffffffffffffffffff1681526020019081526020015f208190555060015f81548092919061050d90610778565b91905055508060025461052091906107bf565b6002819055507f9cde449504e4972ffddec09813e0c252a1462d76bef1864b9e7520dadb7183e833826040516105579291906106f1565b60405180910390a15f3373ffffffffffffffffffffffffffffffffffffffff16826040516105849061081f565b5f6040518083038185875af1925050503d805f81146105be576040519150601f19603f3d011682016040523d82523d5f602084013e6105c3565b606091505b505090508061060b5733826040517f6c5e1a140000000000000000000000000000000000000000000000000000000081526004016106029291906106f1565b60405180910390fd5b5050565b5f819050919050565b6106218161060f565b82525050565b5f60208201905061063a5f830184610618565b92915050565b5f5ffd5b61064d8161060f565b8114610657575f5ffd5b50565b5f8135905061066881610644565b92915050565b5f6020828403121561068357610682610640565b5b5f6106908482850161065a565b91505092915050565b5f73ffffffffffffffffffffffffffffffffffffffff82169050919050565b5f6106c282610699565b9050919050565b6106d2816106b8565b82525050565b5f6020820190506106eb5f8301846106c9565b92915050565b5f6040820190506107045f8301856106c9565b6107116020830184610618565b9392505050565b7f4e487b71000000000000000000000000000000000000000000000000000000005f52601160045260245ffd5b5f61074f8261060f565b915061075a8361060f565b925082820190508082111561077257610771610718565b5b92915050565b5f6107828261060f565b91507fffffffffffffffffffffffffffffffffffffffffffffffffffffffffffffffff82036107b4576107b3610718565b5b600182019050919050565b5f6107c98261060f565b91506107d48361060f565b92508282039050818111156107ec576107eb610718565b5b92915050565b5f81905092915050565b50565b5f61080a5f836107f2565b9150610815826107fc565b5f82019050919050565b5f610829826107ff565b915081905091905056fea2646970667358221220469df33a3e411bce72dae8450bffb2e4d8d1d4d8f87b15197fb2b960ff9e73d864736f6c634300081e0033",
					"opcodes": "PUSH1 0xC0 PUSH1 0x40 MSTORE PUSH0 PUSH0 SSTORE PUSH0 PUSH1 0x1 SSTORE PUSH0 PUSH1 0x2 SSTORE CALLVALUE DUP1 ISZERO PUSH2 0x1A JUMPI PUSH0 PUSH0 REVERT JUMPDEST POP PUSH1 0x40 MLOAD PUSH2 0x93F CODESIZE SUB DUP1 PUSH2 0x93F DUP4 CODECOPY DUP2 DUP2 ADD PUSH1 0x40 MSTORE DUP2 ADD SWAP1 PUSH2 0x3C SWAP2 SWAP1 PUSH2 0x8A JUMP JUMPDEST DUP1 PUSH1 0xA0 DUP2 DUP2 MSTORE POP POP PUSH1 0x32 PUSH1 0x80 DUP2 DUP2 MSTORE POP POP POP PUSH2 0xB5 JUMP JUMPDEST PUSH0 PUSH0 REVERT JUMPDEST PUSH0 DUP2 SWAP1 POP SWAP2 SWAP1 POP JUMP JUMPDEST PUSH2 0x69 DUP2 PUSH2 0x57 JUMP JUMPDEST DUP2 EQ PUSH2 0x73 JUMPI PUSH0 PUSH0 REVERT JUMPDEST POP JUMP JUMPDEST PUSH0 DUP2 MLOAD SWAP1 POP PUSH2 0x84 DUP2 PUSH2 0x60 JUMP JUMPDEST SWAP3 SWAP2 POP POP JUMP JUMPDEST PUSH0 PUSH1 0x20 DUP3 DUP5 SUB SLT ISZERO PUSH2 0x9F JUMPI PUSH2 0x9E PUSH2 0x53 JUMP JUMPDEST JUMPDEST PUSH0 PUSH2 0xAC DUP5 DUP3 DUP6 ADD PUSH2 0x76 JUMP JUMPDEST SWAP2 POP POP SWAP3 SWAP2 POP POP JUMP JUMPDEST PUSH1 0x80 MLOAD PUSH1 0xA0 MLOAD PUSH2 0x869 PUSH2 0xD6 PUSH0 CODECOPY PUSH0 PUSH2 0x301 ADD MSTORE PUSH0 PUSH2 0x1BD ADD MSTORE PUSH2 0x869 PUSH0 RETURN INVALID PUSH1 0x80 PUSH1 0x40 MSTORE PUSH1 0x4 CALLDATASIZE LT PUSH2 0x54 JUMPI PUSH0 CALLDATALOAD PUSH1 0xE0 SHR DUP1 PUSH4 0x6900670C EQ PUSH2 0x58 JUMPI DUP1 PUSH4 0x8DEBC4A8 EQ PUSH2 0x82 JUMPI DUP1 PUSH4 0x93295C1C EQ PUSH2 0xAA JUMPI DUP1 PUSH4 0xACAF5A14 EQ PUSH2 0xD4 JUMPI DUP1 PUSH4 0xC6ACA33C EQ PUSH2 0xDE JUMPI DUP1 PUSH4 0xF39B1809 EQ PUSH2 0x108 JUMPI JUMPDEST PUSH0 PUSH0 REVERT JUMPDEST CALLVALUE DUP1 ISZERO PUSH2 0x63 JUMPI PUSH0 PUSH0 REVERT JUMPDEST POP PUSH2 0x6C PUSH2 0x132 JUMP JUMPDEST PUSH1 0x40 MLOAD PUSH2 0x79 SWAP2 SWAP1 PUSH2 0x627 JUMP JUMPDEST PUSH1 0x40 MLOAD DUP1 SWAP2 SUB SWAP1 RETURN JUMPDEST CALLVALUE DUP1 ISZERO PUSH2 0x8D JUMPI PUSH0 PUSH0 REVERT JUMPDEST POP PUSH2 0xA8 PUSH1 0x4 DUP1 CALLDATASIZE SUB DUP2 ADD SWAP1 PUSH2 0xA3 SWAP2 SWAP1 PUSH2 0x66E JUMP JUMPDEST PUSH2 0x176 JUMP JUMPDEST STOP JUMPDEST CALLVALUE DUP1 ISZERO PUSH2 0xB5 JUMPI PUSH0 PUSH0 REVERT JUMPDEST POP PUSH2 0xBE PUSH2 0x2B1 JUMP JUMPDEST PUSH1 0x40 MLOAD PUSH2 0xCB SWAP2 SWAP1 PUSH2 0x627 JUMP JUMPDEST PUSH1 0x40 MLOAD DUP1 SWAP2 SUB SWAP1 RETURN JUMPDEST PUSH2 0xDC PUSH2 0x2BA JUMP JUMPDEST STOP JUMPDEST CALLVALUE DUP1 ISZERO PUSH2 0xE9 JUMPI PUSH0 PUSH0 REVERT JUMPDEST POP PUSH2 0xF2 PUSH2 0x460 JUMP JUMPDEST PUSH1 0x40 MLOAD PUSH2 0xFF SWAP2 SWAP1 PUSH2 0x627 JUMP JUMPDEST PUSH1 0x40 MLOAD DUP1 SWAP2 SUB SWAP1 RETURN JUMPDEST CALLVALUE DUP1 ISZERO PUSH2 0x113 JUMPI PUSH0 PUSH0 REVERT JUMPDEST POP PUSH2 0x11C PUSH2 0x469 JUMP JUMPDEST PUSH1 0x40 MLOAD PUSH2 0x129 SWAP2 SWAP1 PUSH2 0x627 JUMP JUMPDEST PUSH1 0x40 MLOAD DUP1 SWAP2 SUB SWAP1 RETURN JUMPDEST PUSH0 PUSH1 0x3 PUSH0 CALLER PUSH20 0xFFFFFFFFFFFFFFFFFFFFFFFFFFFFFFFFFFFFFFFF AND PUSH20 0xFFFFFFFFFFFFFFFFFFFFFFFFFFFFFFFFFFFFFFFF AND DUP2 MSTORE PUSH1 0x20 ADD SWAP1 DUP2 MSTORE PUSH1 0x20 ADD PUSH0 KECCAK256 SLOAD SWAP1 POP SWAP1 JUMP JUMPDEST DUP1 PUSH0 DUP2 GT PUSH2 0x1BB JUMPI CALLER PUSH1 0x40 MLOAD PUSH32 0xB2F0923100000000000000000000000000000000000000000000000000000000 DUP2 MSTORE PUSH1 0x4 ADD PUSH2 0x1B2 SWAP2 SWAP1 PUSH2 0x6D8 JUMP JUMPDEST PUSH1 0x40 MLOAD DUP1 SWAP2 SUB SWAP1 REVERT JUMPDEST PUSH32 0x0 DUP2 GT ISZERO PUSH2 0x220 JUMPI DUP1 PUSH1 0x40 MLOAD PUSH32 0xC399356500000000000000000000000000000000000000000000000000000000 DUP2 MSTORE PUSH1 0x4 ADD PUSH2 0x217 SWAP2 SWAP1 PUSH2 0x627 JUMP JUMPDEST PUSH1 0x40 MLOAD DUP1 SWAP2 SUB SWAP1 REVERT JUMPDEST PUSH1 0x3 PUSH0 CALLER PUSH20 0xFFFFFFFFFFFFFFFFFFFFFFFFFFFFFFFFFFFFFFFF AND PUSH20 0xFFFFFFFFFFFFFFFFFFFFFFFFFFFFFFFFFFFFFFFF AND DUP2 MSTORE PUSH1 0x20 ADD SWAP1 DUP2 MSTORE PUSH1 0x20 ADD PUSH0 KECCAK256 SLOAD DUP2 GT ISZERO PUSH2 0x2A4 JUMPI CALLER DUP2 PUSH1 0x40 MLOAD PUSH32 0x51A7314200000000000000000000000000000000000000000000000000000000 DUP2 MSTORE PUSH1 0x4 ADD PUSH2 0x29B SWAP3 SWAP2 SWAP1 PUSH2 0x6F1 JUMP JUMPDEST PUSH1 0x40 MLOAD DUP1 SWAP2 SUB SWAP1 REVERT JUMPDEST PUSH2 0x2AD DUP3 PUSH2 0x471 JUMP JUMPDEST POP POP JUMP JUMPDEST PUSH0 PUSH1 0x2 SLOAD SWAP1 POP SWAP1 JUMP JUMPDEST CALLVALUE PUSH0 DUP2 GT PUSH2 0x2FF JUMPI CALLER PUSH1 0x40 MLOAD PUSH32 0xB2F0923100000000000000000000000000000000000000000000000000000000 DUP2 MSTORE PUSH1 0x4 ADD PUSH2 0x2F6 SWAP2 SWAP1 PUSH2 0x6D8 JUMP JUMPDEST PUSH1 0x40 MLOAD DUP1 SWAP2 SUB SWAP1 REVERT JUMPDEST PUSH32 0x0 PUSH1 0x2 SLOAD DUP3 PUSH2 0x32E SWAP2 SWAP1 PUSH2 0x745 JUMP JUMPDEST LT PUSH2 0x370 JUMPI DUP1 PUSH1 0x40 MLOAD PUSH32 0x2900B02C00000000000000000000000000000000000000000000000000000000 DUP2 MSTORE PUSH1 0x4 ADD PUSH2 0x367 SWAP2 SWAP1 PUSH2 0x627 JUMP JUMPDEST PUSH1 0x40 MLOAD DUP1 SWAP2 SUB SWAP1 REVERT JUMPDEST CALLVALUE PUSH1 0x3 PUSH0 CALLER PUSH20 0xFFFFFFFFFFFFFFFFFFFFFFFFFFFFFFFFFFFFFFFF AND PUSH20 0xFFFFFFFFFFFFFFFFFFFFFFFFFFFFFFFFFFFFFFFF AND DUP2 MSTORE PUSH1 0x20 ADD SWAP1 DUP2 MSTORE PUSH1 0x20 ADD PUSH0 KECCAK256 SLOAD PUSH2 0x3B9 SWAP2 SWAP1 PUSH2 0x745 JUMP JUMPDEST PUSH1 0x3 PUSH0 CALLER PUSH20 0xFFFFFFFFFFFFFFFFFFFFFFFFFFFFFFFFFFFFFFFF AND PUSH20 0xFFFFFFFFFFFFFFFFFFFFFFFFFFFFFFFFFFFFFFFF AND DUP2 MSTORE PUSH1 0x20 ADD SWAP1 DUP2 MSTORE PUSH1 0x20 ADD PUSH0 KECCAK256 DUP2 SWAP1 SSTORE POP PUSH0 PUSH0 DUP2 SLOAD DUP1 SWAP3 SWAP2 SWAP1 PUSH2 0x40B SWAP1 PUSH2 0x778 JUMP JUMPDEST SWAP2 SWAP1 POP SSTORE POP CALLVALUE PUSH1 0x2 SLOAD PUSH2 0x41E SWAP2 SWAP1 PUSH2 0x745 JUMP JUMPDEST PUSH1 0x2 DUP2 SWAP1 SSTORE POP PUSH32 0x9D15693852BF60DC27BD5AA831D0351359B7D01D428AE1BAAE11F15CBCFEBAFD CALLER CALLVALUE PUSH1 0x40 MLOAD PUSH2 0x455 SWAP3 SWAP2 SWAP1 PUSH2 0x6F1 JUMP JUMPDEST PUSH1 0x40 MLOAD DUP1 SWAP2 SUB SWAP1 LOG1 POP JUMP JUMPDEST PUSH0 PUSH1 0x1 SLOAD SWAP1 POP SWAP1 JUMP JUMPDEST PUSH0 PUSH0 SLOAD SWAP1 POP SWAP1 JUMP JUMPDEST DUP1 PUSH1 0x3 PUSH0 CALLER PUSH20 0xFFFFFFFFFFFFFFFFFFFFFFFFFFFFFFFFFFFFFFFF AND PUSH20 0xFFFFFFFFFFFFFFFFFFFFFFFFFFFFFFFFFFFFFFFF AND DUP2 MSTORE PUSH1 0x20 ADD SWAP1 DUP2 MSTORE PUSH1 0x20 ADD PUSH0 KECCAK256 SLOAD PUSH2 0x4BA SWAP2 SWAP1 PUSH2 0x7BF JUMP JUMPDEST PUSH1 0x3 PUSH0 CALLER PUSH20 0xFFFFFFFFFFFFFFFFFFFFFFFFFFFFFFFFFFFFFFFF AND PUSH20 0xFFFFFFFFFFFFFFFFFFFFFFFFFFFFFFFFFFFFFFFF AND DUP2 MSTORE PUSH1 0x20 ADD SWAP1 DUP2 MSTORE PUSH1 0x20 ADD PUSH0 KECCAK256 DUP2 SWAP1 SSTORE POP PUSH1 0x1 PUSH0 DUP2 SLOAD DUP1 SWAP3 SWAP2 SWAP1 PUSH2 0x50D SWAP1 PUSH2 0x778 JUMP JUMPDEST SWAP2 SWAP1 POP SSTORE POP DUP1 PUSH1 0x2 SLOAD PUSH2 0x520 SWAP2 SWAP1 PUSH2 0x7BF JUMP JUMPDEST PUSH1 0x2 DUP2 SWAP1 SSTORE POP PUSH32 0x9CDE449504E4972FFDDEC09813E0C252A1462D76BEF1864B9E7520DADB7183E8 CALLER DUP3 PUSH1 0x40 MLOAD PUSH2 0x557 SWAP3 SWAP2 SWAP1 PUSH2 0x6F1 JUMP JUMPDEST PUSH1 0x40 MLOAD DUP1 SWAP2 SUB SWAP1 LOG1 PUSH0 CALLER PUSH20 0xFFFFFFFFFFFFFFFFFFFFFFFFFFFFFFFFFFFFFFFF AND DUP3 PUSH1 0x40 MLOAD PUSH2 0x584 SWAP1 PUSH2 0x81F JUMP JUMPDEST PUSH0 PUSH1 0x40 MLOAD DUP1 DUP4 SUB DUP2 DUP6 DUP8 GAS CALL SWAP3 POP POP POP RETURNDATASIZE DUP1 PUSH0 DUP2 EQ PUSH2 0x5BE JUMPI PUSH1 0x40 MLOAD SWAP2 POP PUSH1 0x1F NOT PUSH1 0x3F RETURNDATASIZE ADD AND DUP3 ADD PUSH1 0x40 MSTORE RETURNDATASIZE DUP3 MSTORE RETURNDATASIZE PUSH0 PUSH1 0x20 DUP5 ADD RETURNDATACOPY PUSH2 0x5C3 JUMP JUMPDEST PUSH1 0x60 SWAP2 POP JUMPDEST POP POP SWAP1 POP DUP1 PUSH2 0x60B JUMPI CALLER DUP3 PUSH1 0x40 MLOAD PUSH32 0x6C5E1A1400000000000000000000000000000000000000000000000000000000 DUP2 MSTORE PUSH1 0x4 ADD PUSH2 0x602 SWAP3 SWAP2 SWAP1 PUSH2 0x6F1 JUMP JUMPDEST PUSH1 0x40 MLOAD DUP1 SWAP2 SUB SWAP1 REVERT JUMPDEST POP POP JUMP JUMPDEST PUSH0 DUP2 SWAP1 POP SWAP2 SWAP1 POP JUMP JUMPDEST PUSH2 0x621 DUP2 PUSH2 0x60F JUMP JUMPDEST DUP3 MSTORE POP POP JUMP JUMPDEST PUSH0 PUSH1 0x20 DUP3 ADD SWAP1 POP PUSH2 0x63A PUSH0 DUP4 ADD DUP5 PUSH2 0x618 JUMP JUMPDEST SWAP3 SWAP2 POP POP JUMP JUMPDEST PUSH0 PUSH0 REVERT JUMPDEST PUSH2 0x64D DUP2 PUSH2 0x60F JUMP JUMPDEST DUP2 EQ PUSH2 0x657 JUMPI PUSH0 PUSH0 REVERT JUMPDEST POP JUMP JUMPDEST PUSH0 DUP2 CALLDATALOAD SWAP1 POP PUSH2 0x668 DUP2 PUSH2 0x644 JUMP JUMPDEST SWAP3 SWAP2 POP POP JUMP JUMPDEST PUSH0 PUSH1 0x20 DUP3 DUP5 SUB SLT ISZERO PUSH2 0x683 JUMPI PUSH2 0x682 PUSH2 0x640 JUMP JUMPDEST JUMPDEST PUSH0 PUSH2 0x690 DUP5 DUP3 DUP6 ADD PUSH2 0x65A JUMP JUMPDEST SWAP2 POP POP SWAP3 SWAP2 POP POP JUMP JUMPDEST PUSH0 PUSH20 0xFFFFFFFFFFFFFFFFFFFFFFFFFFFFFFFFFFFFFFFF DUP3 AND SWAP1 POP SWAP2 SWAP1 POP JUMP JUMPDEST PUSH0 PUSH2 0x6C2 DUP3 PUSH2 0x699 JUMP JUMPDEST SWAP1 POP SWAP2 SWAP1 POP JUMP JUMPDEST PUSH2 0x6D2 DUP2 PUSH2 0x6B8 JUMP JUMPDEST DUP3 MSTORE POP POP JUMP JUMPDEST PUSH0 PUSH1 0x20 DUP3 ADD SWAP1 POP PUSH2 0x6EB PUSH0 DUP4 ADD DUP5 PUSH2 0x6C9 JUMP JUMPDEST SWAP3 SWAP2 POP POP JUMP JUMPDEST PUSH0 PUSH1 0x40 DUP3 ADD SWAP1 POP PUSH2 0x704 PUSH0 DUP4 ADD DUP6 PUSH2 0x6C9 JUMP JUMPDEST PUSH2 0x711 PUSH1 0x20 DUP4 ADD DUP5 PUSH2 0x618 JUMP JUMPDEST SWAP4 SWAP3 POP POP POP JUMP JUMPDEST PUSH32 0x4E487B7100000000000000000000000000000000000000000000000000000000 PUSH0 MSTORE PUSH1 0x11 PUSH1 0x4 MSTORE PUSH1 0x24 PUSH0 REVERT JUMPDEST PUSH0 PUSH2 0x74F DUP3 PUSH2 0x60F JUMP JUMPDEST SWAP2 POP PUSH2 0x75A DUP4 PUSH2 0x60F JUMP JUMPDEST SWAP3 POP DUP3 DUP3 ADD SWAP1 POP DUP1 DUP3 GT ISZERO PUSH2 0x772 JUMPI PUSH2 0x771 PUSH2 0x718 JUMP JUMPDEST JUMPDEST SWAP3 SWAP2 POP POP JUMP JUMPDEST PUSH0 PUSH2 0x782 DUP3 PUSH2 0x60F JUMP JUMPDEST SWAP2 POP PUSH32 0xFFFFFFFFFFFFFFFFFFFFFFFFFFFFFFFFFFFFFFFFFFFFFFFFFFFFFFFFFFFFFFFF DUP3 SUB PUSH2 0x7B4 JUMPI PUSH2 0x7B3 PUSH2 0x718 JUMP JUMPDEST JUMPDEST PUSH1 0x1 DUP3 ADD SWAP1 POP SWAP2 SWAP1 POP JUMP JUMPDEST PUSH0 PUSH2 0x7C9 DUP3 PUSH2 0x60F JUMP JUMPDEST SWAP2 POP PUSH2 0x7D4 DUP4 PUSH2 0x60F JUMP JUMPDEST SWAP3 POP DUP3 DUP3 SUB SWAP1 POP DUP2 DUP2 GT ISZERO PUSH2 0x7EC JUMPI PUSH2 0x7EB PUSH2 0x718 JUMP JUMPDEST JUMPDEST SWAP3 SWAP2 POP POP JUMP JUMPDEST PUSH0 DUP2 SWAP1 POP SWAP3 SWAP2 POP POP JUMP JUMPDEST POP JUMP JUMPDEST PUSH0 PUSH2 0x80A PUSH0 DUP4 PUSH2 0x7F2 JUMP JUMPDEST SWAP2 POP PUSH2 0x815 DUP3 PUSH2 0x7FC JUMP JUMPDEST PUSH0 DUP3 ADD SWAP1 POP SWAP2 SWAP1 POP JUMP JUMPDEST PUSH0 PUSH2 0x829 DUP3 PUSH2 0x7FF JUMP JUMPDEST SWAP2 POP DUP2 SWAP1 POP SWAP2 SWAP1 POP JUMP INVALID LOG2 PUSH5 0x6970667358 0x22 SLT KECCAK256 CHAINID SWAP14 RETURN GASPRICE RETURNDATACOPY COINBASE SHL 0xCE PUSH19 0xDAE8450BFFB2E4D8D1D4D8F87B15197FB2B960 SELFDESTRUCT SWAP15 PUSH20 0xD864736F6C634300081E00330000000000000000 "
				},
				"gasEstimates": {
					"creation": {
						"codeDepositCost": "430600",
						"executionCost": "infinite",
						"totalCost": "infinite"
					},
					"external": {
						"depositarEnBoveda()": "infinite",
						"retirarDeBoveda(uint256)": "infinite",
						"verBoveda()": "2497",
						"verTotalContrato()": "2454",
						"verTotalDepositos()": "2519",
						"verTotalRetiros()": "2498"
					},
					"internal": {
						"_retirarFondos(uint256)": "infinite"
					}
				},
				"methodIdentifiers": {
					"depositarEnBoveda()": "acaf5a14",
					"retirarDeBoveda(uint256)": "8debc4a8",
					"verBoveda()": "6900670c",
					"verTotalContrato()": "93295c1c",
					"verTotalDepositos()": "f39b1809",
					"verTotalRetiros()": "c6aca33c"
				}
			},
			"storageLayout": {
				"storage": [
					{
						"astId": 8,
						"contract": "contracts/KipuBank.sol:KipuBank",
						"label": "depositos",
						"offset": 0,
						"slot": "0",
						"type": "t_uint256"
					},
					{
						"astId": 11,
						"contract": "contracts/KipuBank.sol:KipuBank",
						"label": "retiros",
						"offset": 0,
						"slot": "1",
						"type": "t_uint256"
					},
					{
						"astId": 14,
						"contract": "contracts/KipuBank.sol:KipuBank",
						"label": "totalContrato",
						"offset": 0,
						"slot": "2",
						"type": "t_uint256"
					},
					{
						"astId": 18,
						"contract": "contracts/KipuBank.sol:KipuBank",
						"label": "boveda",
						"offset": 0,
						"slot": "3",
						"type": "t_mapping(t_address,t_uint256)"
					}
				],
				"types": {
					"t_address": {
						"encoding": "inplace",
						"label": "address",
						"numberOfBytes": "20"
					},
					"t_mapping(t_address,t_uint256)": {
						"encoding": "mapping",
						"key": "t_address",
						"label": "mapping(address => uint256)",
						"numberOfBytes": "32",
						"value": "t_uint256"
					},
					"t_uint256": {
						"encoding": "inplace",
						"label": "uint256",
						"numberOfBytes": "32"
					}
				}
			},
			"userdoc": {
				"kind": "user",
				"methods": {},
				"version": 1
			}
		}
	}
}