{
	"contracts/KipuBank.sol": {
		"KipuBank": {
			"abi": [
				{
					"inputs": [
						{
							"internalType": "uint256",
							"name": "_limite",
							"type": "uint256"
						}
					],
					"stateMutability": "nonpayable",
					"type": "constructor"
				},
				{
					"inputs": [
						{
							"internalType": "address",
							"name": "titular",
							"type": "address"
						},
						{
							"internalType": "uint256",
							"name": "monto",
							"type": "uint256"
						}
					],
					"name": "KipuBank_DepositoRechazado",
					"type": "error"
				},
				{
					"inputs": [
						{
							"internalType": "address",
							"name": "titular",
							"type": "address"
						},
						{
							"internalType": "uint256",
							"name": "monto",
							"type": "uint256"
						}
					],
					"name": "KipuBank_ExtraccionRechazada",
					"type": "error"
				},
				{
					"inputs": [
						{
							"internalType": "address",
							"name": "titular",
							"type": "address"
						},
						{
							"internalType": "uint256",
							"name": "monto",
							"type": "uint256"
						}
					],
					"name": "KipuBank_MontoInsuficiente",
					"type": "error"
				},
				{
					"anonymous": false,
					"inputs": [
						{
							"indexed": false,
							"internalType": "address",
							"name": "titular",
							"type": "address"
						},
						{
							"indexed": false,
							"internalType": "uint256",
							"name": "monto",
							"type": "uint256"
						}
					],
					"name": "KipuBank_DepositoRealizado",
					"type": "event"
				},
				{
					"anonymous": false,
					"inputs": [
						{
							"indexed": false,
							"internalType": "address",
							"name": "titular",
							"type": "address"
						},
						{
							"indexed": false,
							"internalType": "uint256",
							"name": "monto",
							"type": "uint256"
						}
					],
					"name": "KipuBank_ExtraccionRealizada",
					"type": "event"
				},
				{
					"inputs": [],
					"name": "depositarEnBoveda",
					"outputs": [],
					"stateMutability": "payable",
					"type": "function"
				},
				{
					"inputs": [
						{
							"internalType": "uint256",
							"name": "_monto",
							"type": "uint256"
						}
					],
					"name": "retirarDeBoveda",
					"outputs": [],
					"stateMutability": "nonpayable",
					"type": "function"
				},
				{
					"inputs": [],
					"name": "verBoveda",
					"outputs": [
						{
							"internalType": "uint256",
							"name": "monto_",
							"type": "uint256"
						}
					],
					"stateMutability": "view",
					"type": "function"
				}
			],
			"devdoc": {
				"kind": "dev",
				"methods": {},
				"version": 1
			},
			"evm": {
				"assembly": "    /* \"contracts/KipuBank.sol\":143:3391  contract KipuBank {... */\n  mstore(0x40, 0xa0)\n    /* \"contracts/KipuBank.sol\":1370:1501  constructor(uint _limite) {... */\n  callvalue\n  dup1\n  iszero\n  tag_1\n  jumpi\n  revert(0x00, 0x00)\ntag_1:\n  pop\n  mload(0x40)\n  sub(codesize, bytecodeSize)\n  dup1\n  bytecodeSize\n  dup4\n  codecopy\n  dup2\n  dup2\n  add\n  0x40\n  mstore\n  dup2\n  add\n  swap1\n  tag_2\n  swap2\n  swap1\n  tag_3\n  jump\t// in\ntag_2:\n    /* \"contracts/KipuBank.sol\":1416:1423  _limite */\n  dup1\n    /* \"contracts/KipuBank.sol\":1406:1423  bankCap = _limite */\n  0x80\n  dup2\n  dup2\n  mstore\n  pop\n  pop\n    /* \"contracts/KipuBank.sol\":1445:1446  0 */\n  0x00\n    /* \"contracts/KipuBank.sol\":1433:1442  depositos */\n  0x00\n    /* \"contracts/KipuBank.sol\":1433:1446  depositos = 0 */\n  dup2\n  swap1\n  sstore\n  pop\n    /* \"contracts/KipuBank.sol\":1466:1467  0 */\n  0x00\n    /* \"contracts/KipuBank.sol\":1456:1463  retiros */\n  0x01\n    /* \"contracts/KipuBank.sol\":1456:1467  retiros = 0 */\n  dup2\n  swap1\n  sstore\n  pop\n    /* \"contracts/KipuBank.sol\":1493:1494  0 */\n  0x00\n    /* \"contracts/KipuBank.sol\":1477:1490  totalContrato */\n  0x02\n    /* \"contracts/KipuBank.sol\":1477:1494  totalContrato = 0 */\n  dup2\n  swap1\n  sstore\n  pop\n    /* \"contracts/KipuBank.sol\":1370:1501  constructor(uint _limite) {... */\n  pop\n    /* \"contracts/KipuBank.sol\":143:3391  contract KipuBank {... */\n  jump(tag_6)\n    /* \"#utility.yul\":88:205   */\ntag_8:\n    /* \"#utility.yul\":197:198   */\n  0x00\n    /* \"#utility.yul\":194:195   */\n  0x00\n    /* \"#utility.yul\":187:199   */\n  revert\n    /* \"#utility.yul\":334:411   */\ntag_10:\n    /* \"#utility.yul\":371:378   */\n  0x00\n    /* \"#utility.yul\":400:405   */\n  dup2\n    /* \"#utility.yul\":389:405   */\n  swap1\n  pop\n    /* \"#utility.yul\":334:411   */\n  swap2\n  swap1\n  pop\n  jump\t// out\n    /* \"#utility.yul\":417:539   */\ntag_11:\n    /* \"#utility.yul\":490:514   */\n  tag_19\n    /* \"#utility.yul\":508:513   */\n  dup2\n    /* \"#utility.yul\":490:514   */\n  tag_10\n  jump\t// in\ntag_19:\n    /* \"#utility.yul\":483:488   */\n  dup2\n    /* \"#utility.yul\":480:515   */\n  eq\n    /* \"#utility.yul\":470:533   */\n  tag_20\n  jumpi\n    /* \"#utility.yul\":529:530   */\n  0x00\n    /* \"#utility.yul\":526:527   */\n  0x00\n    /* \"#utility.yul\":519:531   */\n  revert\n    /* \"#utility.yul\":470:533   */\ntag_20:\n    /* \"#utility.yul\":417:539   */\n  pop\n  jump\t// out\n    /* \"#utility.yul\":545:688   */\ntag_12:\n    /* \"#utility.yul\":602:607   */\n  0x00\n    /* \"#utility.yul\":633:639   */\n  dup2\n    /* \"#utility.yul\":627:640   */\n  mload\n    /* \"#utility.yul\":618:640   */\n  swap1\n  pop\n    /* \"#utility.yul\":649:682   */\n  tag_22\n    /* \"#utility.yul\":676:681   */\n  dup2\n    /* \"#utility.yul\":649:682   */\n  tag_11\n  jump\t// in\ntag_22:\n    /* \"#utility.yul\":545:688   */\n  swap3\n  swap2\n  pop\n  pop\n  jump\t// out\n    /* \"#utility.yul\":694:1045   */\ntag_3:\n    /* \"#utility.yul\":764:770   */\n  0x00\n    /* \"#utility.yul\":813:815   */\n  0x20\n    /* \"#utility.yul\":801:810   */\n  dup3\n    /* \"#utility.yul\":792:799   */\n  dup5\n    /* \"#utility.yul\":788:811   */\n  sub\n    /* \"#utility.yul\":784:816   */\n  slt\n    /* \"#utility.yul\":781:900   */\n  iszero\n  tag_24\n  jumpi\n    /* \"#utility.yul\":819:898   */\n  tag_25\n  tag_8\n  jump\t// in\ntag_25:\n    /* \"#utility.yul\":781:900   */\ntag_24:\n    /* \"#utility.yul\":939:940   */\n  0x00\n    /* \"#utility.yul\":964:1028   */\n  tag_26\n    /* \"#utility.yul\":1020:1027   */\n  dup5\n    /* \"#utility.yul\":1011:1017   */\n  dup3\n    /* \"#utility.yul\":1000:1009   */\n  dup6\n    /* \"#utility.yul\":996:1018   */\n  add\n    /* \"#utility.yul\":964:1028   */\n  tag_12\n  jump\t// in\ntag_26:\n    /* \"#utility.yul\":954:1028   */\n  swap2\n  pop\n    /* \"#utility.yul\":910:1038   */\n  pop\n    /* \"#utility.yul\":694:1045   */\n  swap3\n  swap2\n  pop\n  pop\n  jump\t// out\n    /* \"contracts/KipuBank.sol\":143:3391  contract KipuBank {... */\ntag_6:\n  mload(0x80)\n  codecopy(0x00, dataOffset(sub_0), dataSize(sub_0))\n  0x00\n  assignImmutable(\"0xe455bf8ea6e7463a1046a0b52804526e119b4bf5136279614e0b1e8e296a4e2d\")\n  return(0x00, dataSize(sub_0))\nstop\n\nsub_0: assembly {\n        /* \"contracts/KipuBank.sol\":143:3391  contract KipuBank {... */\n      mstore(0x40, 0x80)\n      jumpi(tag_1, lt(calldatasize, 0x04))\n      shr(0xe0, calldataload(0x00))\n      dup1\n      0x6900670c\n      eq\n      tag_2\n      jumpi\n      dup1\n      0x8debc4a8\n      eq\n      tag_3\n      jumpi\n      dup1\n      0xacaf5a14\n      eq\n      tag_4\n      jumpi\n    tag_1:\n      revert(0x00, 0x00)\n        /* \"contracts/KipuBank.sol\":3288:3389  function verBoveda() external view returns (uint monto_) {... */\n    tag_2:\n      callvalue\n      dup1\n      iszero\n      tag_5\n      jumpi\n      revert(0x00, 0x00)\n    tag_5:\n      pop\n      tag_6\n      tag_7\n      jump\t// in\n    tag_6:\n      mload(0x40)\n      tag_8\n      swap2\n      swap1\n      tag_9\n      jump\t// in\n    tag_8:\n      mload(0x40)\n      dup1\n      swap2\n      sub\n      swap1\n      return\n        /* \"contracts/KipuBank.sol\":2689:2799  function retirarDeBoveda(uint _monto) external verificarRetiro(_monto) {... */\n    tag_3:\n      callvalue\n      dup1\n      iszero\n      tag_10\n      jumpi\n      revert(0x00, 0x00)\n    tag_10:\n      pop\n      tag_11\n      0x04\n      dup1\n      calldatasize\n      sub\n      dup2\n      add\n      swap1\n      tag_12\n      swap2\n      swap1\n      tag_13\n      jump\t// in\n    tag_12:\n      tag_14\n      jump\t// in\n    tag_11:\n      stop\n        /* \"contracts/KipuBank.sol\":2919:3221  function depositarEnBoveda() external payable verificarDepositos(msg.value) {... */\n    tag_4:\n      tag_15\n      tag_16\n      jump\t// in\n    tag_15:\n      stop\n        /* \"contracts/KipuBank.sol\":3288:3389  function verBoveda() external view returns (uint monto_) {... */\n    tag_7:\n        /* \"contracts/KipuBank.sol\":3332:3343  uint monto_ */\n      0x00\n        /* \"contracts/KipuBank.sol\":3364:3370  boveda */\n      0x03\n        /* \"contracts/KipuBank.sol\":3364:3382  boveda[msg.sender] */\n      0x00\n        /* \"contracts/KipuBank.sol\":3371:3381  msg.sender */\n      caller\n        /* \"contracts/KipuBank.sol\":3364:3382  boveda[msg.sender] */\n      0xffffffffffffffffffffffffffffffffffffffff\n      and\n      0xffffffffffffffffffffffffffffffffffffffff\n      and\n      dup2\n      mstore\n      0x20\n      add\n      swap1\n      dup2\n      mstore\n      0x20\n      add\n      0x00\n      keccak256\n      sload\n        /* \"contracts/KipuBank.sol\":3355:3382  monto_ = boveda[msg.sender] */\n      swap1\n      pop\n        /* \"contracts/KipuBank.sol\":3288:3389  function verBoveda() external view returns (uint monto_) {... */\n      swap1\n      jump\t// out\n        /* \"contracts/KipuBank.sol\":2689:2799  function retirarDeBoveda(uint _monto) external verificarRetiro(_monto) {... */\n    tag_14:\n        /* \"contracts/KipuBank.sol\":2752:2758  _monto */\n      dup1\n        /* \"contracts/KipuBank.sol\":239:241  10 */\n      0x0a\n        /* \"contracts/KipuBank.sol\":1830:1836  _monto */\n      dup2\n        /* \"contracts/KipuBank.sol\":1830:1845  _monto > umbral */\n      gt\n        /* \"contracts/KipuBank.sol\":1826:1902  if (_monto > umbral) revert KipuBank_ExtraccionRechazada(msg.sender, _monto) */\n      iszero\n      tag_19\n      jumpi\n        /* \"contracts/KipuBank.sol\":1883:1893  msg.sender */\n      caller\n        /* \"contracts/KipuBank.sol\":1895:1901  _monto */\n      dup2\n        /* \"contracts/KipuBank.sol\":1854:1902  KipuBank_ExtraccionRechazada(msg.sender, _monto) */\n      mload(0x40)\n      0x6c5e1a1400000000000000000000000000000000000000000000000000000000\n      dup2\n      mstore\n      0x04\n      add\n      tag_20\n      swap3\n      swap2\n      swap1\n      tag_21\n      jump\t// in\n    tag_20:\n      mload(0x40)\n      dup1\n      swap2\n      sub\n      swap1\n      revert\n        /* \"contracts/KipuBank.sol\":1826:1902  if (_monto > umbral) revert KipuBank_ExtraccionRechazada(msg.sender, _monto) */\n    tag_19:\n        /* \"contracts/KipuBank.sol\":1925:1931  boveda */\n      0x03\n        /* \"contracts/KipuBank.sol\":1925:1943  boveda[msg.sender] */\n      0x00\n        /* \"contracts/KipuBank.sol\":1932:1942  msg.sender */\n      caller\n        /* \"contracts/KipuBank.sol\":1925:1943  boveda[msg.sender] */\n      0xffffffffffffffffffffffffffffffffffffffff\n      and\n      0xffffffffffffffffffffffffffffffffffffffff\n      and\n      dup2\n      mstore\n      0x20\n      add\n      swap1\n      dup2\n      mstore\n      0x20\n      add\n      0x00\n      keccak256\n      sload\n        /* \"contracts/KipuBank.sol\":1916:1922  _monto */\n      dup2\n        /* \"contracts/KipuBank.sol\":1916:1943  _monto > boveda[msg.sender] */\n      gt\n        /* \"contracts/KipuBank.sol\":1912:2000  if (_monto > boveda[msg.sender]) revert KipuBank_ExtraccionRechazada(msg.sender, _monto) */\n      iszero\n      tag_22\n      jumpi\n        /* \"contracts/KipuBank.sol\":1981:1991  msg.sender */\n      caller\n        /* \"contracts/KipuBank.sol\":1993:1999  _monto */\n      dup2\n        /* \"contracts/KipuBank.sol\":1952:2000  KipuBank_ExtraccionRechazada(msg.sender, _monto) */\n      mload(0x40)\n      0x6c5e1a1400000000000000000000000000000000000000000000000000000000\n      dup2\n      mstore\n      0x04\n      add\n      tag_23\n      swap3\n      swap2\n      swap1\n      tag_21\n      jump\t// in\n    tag_23:\n      mload(0x40)\n      dup1\n      swap2\n      sub\n      swap1\n      revert\n        /* \"contracts/KipuBank.sol\":1912:2000  if (_monto > boveda[msg.sender]) revert KipuBank_ExtraccionRechazada(msg.sender, _monto) */\n    tag_22:\n        /* \"contracts/KipuBank.sol\":2770:2792  _retirarFondos(_monto) */\n      tag_25\n        /* \"contracts/KipuBank.sol\":2785:2791  _monto */\n      dup3\n        /* \"contracts/KipuBank.sol\":2770:2784  _retirarFondos */\n      tag_26\n        /* \"contracts/KipuBank.sol\":2770:2792  _retirarFondos(_monto) */\n      jump\t// in\n    tag_25:\n        /* \"contracts/KipuBank.sol\":2689:2799  function retirarDeBoveda(uint _monto) external verificarRetiro(_monto) {... */\n      pop\n      pop\n      jump\t// out\n        /* \"contracts/KipuBank.sol\":2919:3221  function depositarEnBoveda() external payable verificarDepositos(msg.value) {... */\n    tag_16:\n        /* \"contracts/KipuBank.sol\":2984:2993  msg.value */\n      callvalue\n        /* \"contracts/KipuBank.sol\":1640:1647  bankCap */\n      immutable(\"0xe455bf8ea6e7463a1046a0b52804526e119b4bf5136279614e0b1e8e296a4e2d\")\n        /* \"contracts/KipuBank.sol\":1624:1637  totalContrato */\n      sload(0x02)\n        /* \"contracts/KipuBank.sol\":1615:1621  _monto */\n      dup3\n        /* \"contracts/KipuBank.sol\":1615:1637  _monto + totalContrato */\n      tag_28\n      swap2\n      swap1\n      tag_29\n      jump\t// in\n    tag_28:\n        /* \"contracts/KipuBank.sol\":1615:1647  _monto + totalContrato > bankCap */\n      gt\n        /* \"contracts/KipuBank.sol\":1611:1702  if (_monto + totalContrato > bankCap) revert KipuBank_DepositoRechazado(msg.sender, _monto) */\n      iszero\n      tag_30\n      jumpi\n        /* \"contracts/KipuBank.sol\":1683:1693  msg.sender */\n      caller\n        /* \"contracts/KipuBank.sol\":1695:1701  _monto */\n      dup2\n        /* \"contracts/KipuBank.sol\":1656:1702  KipuBank_DepositoRechazado(msg.sender, _monto) */\n      mload(0x40)\n      0xfb2fbc9b00000000000000000000000000000000000000000000000000000000\n      dup2\n      mstore\n      0x04\n      add\n      tag_31\n      swap3\n      swap2\n      swap1\n      tag_21\n      jump\t// in\n    tag_31:\n      mload(0x40)\n      dup1\n      swap2\n      sub\n      swap1\n      revert\n        /* \"contracts/KipuBank.sol\":1611:1702  if (_monto + totalContrato > bankCap) revert KipuBank_DepositoRechazado(msg.sender, _monto) */\n    tag_30:\n        /* \"contracts/KipuBank.sol\":3047:3056  msg.value */\n      callvalue\n        /* \"contracts/KipuBank.sol\":3026:3032  boveda */\n      0x03\n        /* \"contracts/KipuBank.sol\":3026:3044  boveda[msg.sender] */\n      0x00\n        /* \"contracts/KipuBank.sol\":3033:3043  msg.sender */\n      caller\n        /* \"contracts/KipuBank.sol\":3026:3044  boveda[msg.sender] */\n      0xffffffffffffffffffffffffffffffffffffffff\n      and\n      0xffffffffffffffffffffffffffffffffffffffff\n      and\n      dup2\n      mstore\n      0x20\n      add\n      swap1\n      dup2\n      mstore\n      0x20\n      add\n      0x00\n      keccak256\n      sload\n        /* \"contracts/KipuBank.sol\":3026:3056  boveda[msg.sender] + msg.value */\n      tag_33\n      swap2\n      swap1\n      tag_29\n      jump\t// in\n    tag_33:\n        /* \"contracts/KipuBank.sol\":3005:3011  boveda */\n      0x03\n        /* \"contracts/KipuBank.sol\":3005:3023  boveda[msg.sender] */\n      0x00\n        /* \"contracts/KipuBank.sol\":3012:3022  msg.sender */\n      caller\n        /* \"contracts/KipuBank.sol\":3005:3023  boveda[msg.sender] */\n      0xffffffffffffffffffffffffffffffffffffffff\n      and\n      0xffffffffffffffffffffffffffffffffffffffff\n      and\n      dup2\n      mstore\n      0x20\n      add\n      swap1\n      dup2\n      mstore\n      0x20\n      add\n      0x00\n      keccak256\n        /* \"contracts/KipuBank.sol\":3005:3056  boveda[msg.sender] = boveda[msg.sender] + msg.value */\n      dup2\n      swap1\n      sstore\n      pop\n        /* \"contracts/KipuBank.sol\":3098:3099  1 */\n      0x01\n        /* \"contracts/KipuBank.sol\":3086:3095  depositos */\n      sload(0x00)\n        /* \"contracts/KipuBank.sol\":3086:3099  depositos + 1 */\n      tag_34\n      swap2\n      swap1\n      tag_29\n      jump\t// in\n    tag_34:\n        /* \"contracts/KipuBank.sol\":3074:3083  depositos */\n      0x00\n        /* \"contracts/KipuBank.sol\":3074:3099  depositos = depositos + 1 */\n      dup2\n      swap1\n      sstore\n      pop\n        /* \"contracts/KipuBank.sol\":3141:3150  msg.value */\n      callvalue\n        /* \"contracts/KipuBank.sol\":3125:3138  totalContrato */\n      sload(0x02)\n        /* \"contracts/KipuBank.sol\":3125:3150  totalContrato + msg.value */\n      tag_35\n      swap2\n      swap1\n      tag_29\n      jump\t// in\n    tag_35:\n        /* \"contracts/KipuBank.sol\":3109:3122  totalContrato */\n      0x02\n        /* \"contracts/KipuBank.sol\":3109:3150  totalContrato = totalContrato + msg.value */\n      dup2\n      swap1\n      sstore\n      pop\n        /* \"contracts/KipuBank.sol\":3165:3214  KipuBank_DepositoRealizado(msg.sender, msg.value) */\n      0x9d15693852bf60dc27bd5aa831d0351359b7d01d428ae1baae11f15cbcfebafd\n        /* \"contracts/KipuBank.sol\":3192:3202  msg.sender */\n      caller\n        /* \"contracts/KipuBank.sol\":3204:3213  msg.value */\n      callvalue\n        /* \"contracts/KipuBank.sol\":3165:3214  KipuBank_DepositoRealizado(msg.sender, msg.value) */\n      mload(0x40)\n      tag_36\n      swap3\n      swap2\n      swap1\n      tag_21\n      jump\t// in\n    tag_36:\n      mload(0x40)\n      dup1\n      swap2\n      sub\n      swap1\n      log1\n        /* \"contracts/KipuBank.sol\":2919:3221  function depositarEnBoveda() external payable verificarDepositos(msg.value) {... */\n      pop\n      jump\t// out\n        /* \"contracts/KipuBank.sol\":2155:2566  function _retirarFondos(uint _monto) private {... */\n    tag_26:\n        /* \"contracts/KipuBank.sol\":2252:2258  _monto */\n      dup1\n        /* \"contracts/KipuBank.sol\":2231:2237  boveda */\n      0x03\n        /* \"contracts/KipuBank.sol\":2231:2249  boveda[msg.sender] */\n      0x00\n        /* \"contracts/KipuBank.sol\":2238:2248  msg.sender */\n      caller\n        /* \"contracts/KipuBank.sol\":2231:2249  boveda[msg.sender] */\n      0xffffffffffffffffffffffffffffffffffffffff\n      and\n      0xffffffffffffffffffffffffffffffffffffffff\n      and\n      dup2\n      mstore\n      0x20\n      add\n      swap1\n      dup2\n      mstore\n      0x20\n      add\n      0x00\n      keccak256\n      sload\n        /* \"contracts/KipuBank.sol\":2231:2258  boveda[msg.sender] - _monto */\n      tag_38\n      swap2\n      swap1\n      tag_39\n      jump\t// in\n    tag_38:\n        /* \"contracts/KipuBank.sol\":2210:2216  boveda */\n      0x03\n        /* \"contracts/KipuBank.sol\":2210:2228  boveda[msg.sender] */\n      0x00\n        /* \"contracts/KipuBank.sol\":2217:2227  msg.sender */\n      caller\n        /* \"contracts/KipuBank.sol\":2210:2228  boveda[msg.sender] */\n      0xffffffffffffffffffffffffffffffffffffffff\n      and\n      0xffffffffffffffffffffffffffffffffffffffff\n      and\n      dup2\n      mstore\n      0x20\n      add\n      swap1\n      dup2\n      mstore\n      0x20\n      add\n      0x00\n      keccak256\n        /* \"contracts/KipuBank.sol\":2210:2258  boveda[msg.sender] = boveda[msg.sender] - _monto */\n      dup2\n      swap1\n      sstore\n      pop\n        /* \"contracts/KipuBank.sol\":2288:2289  1 */\n      0x01\n        /* \"contracts/KipuBank.sol\":2278:2285  retiros */\n      dup1\n      sload\n        /* \"contracts/KipuBank.sol\":2278:2289  retiros + 1 */\n      tag_40\n      swap2\n      swap1\n      tag_29\n      jump\t// in\n    tag_40:\n        /* \"contracts/KipuBank.sol\":2268:2275  retiros */\n      0x01\n        /* \"contracts/KipuBank.sol\":2268:2289  retiros = retiros + 1 */\n      dup2\n      swap1\n      sstore\n      pop\n        /* \"contracts/KipuBank.sol\":2331:2337  _monto */\n      dup1\n        /* \"contracts/KipuBank.sol\":2315:2328  totalContrato */\n      sload(0x02)\n        /* \"contracts/KipuBank.sol\":2315:2337  totalContrato - _monto */\n      tag_41\n      swap2\n      swap1\n      tag_39\n      jump\t// in\n    tag_41:\n        /* \"contracts/KipuBank.sol\":2299:2312  totalContrato */\n      0x02\n        /* \"contracts/KipuBank.sol\":2299:2337  totalContrato = totalContrato - _monto */\n      dup2\n      swap1\n      sstore\n      pop\n        /* \"contracts/KipuBank.sol\":2361:2409  KipuBank_ExtraccionRealizada(msg.sender, _monto) */\n      0x9cde449504e4972ffddec09813e0c252a1462d76bef1864b9e7520dadb7183e8\n        /* \"contracts/KipuBank.sol\":2390:2400  msg.sender */\n      caller\n        /* \"contracts/KipuBank.sol\":2402:2408  _monto */\n      dup3\n        /* \"contracts/KipuBank.sol\":2361:2409  KipuBank_ExtraccionRealizada(msg.sender, _monto) */\n      mload(0x40)\n      tag_42\n      swap3\n      swap2\n      swap1\n      tag_21\n      jump\t// in\n    tag_42:\n      mload(0x40)\n      dup1\n      swap2\n      sub\n      swap1\n      log1\n        /* \"contracts/KipuBank.sol\":2421:2432  bool succes */\n      0x00\n        /* \"contracts/KipuBank.sol\":2446:2456  msg.sender */\n      caller\n        /* \"contracts/KipuBank.sol\":2438:2462  payable(msg.sender).call */\n      0xffffffffffffffffffffffffffffffffffffffff\n      and\n        /* \"contracts/KipuBank.sol\":2470:2476  _monto */\n      dup3\n        /* \"contracts/KipuBank.sol\":2438:2481  payable(msg.sender).call{value: _monto}(\"\") */\n      mload(0x40)\n      tag_43\n      swap1\n      tag_44\n      jump\t// in\n    tag_43:\n      0x00\n      mload(0x40)\n      dup1\n      dup4\n      sub\n      dup2\n      dup6\n      dup8\n      gas\n      call\n      swap3\n      pop\n      pop\n      pop\n      returndatasize\n      dup1\n      0x00\n      dup2\n      eq\n      tag_47\n      jumpi\n      mload(0x40)\n      swap2\n      pop\n      and(add(returndatasize, 0x3f), not(0x1f))\n      dup3\n      add\n      0x40\n      mstore\n      returndatasize\n      dup3\n      mstore\n      returndatasize\n      0x00\n      0x20\n      dup5\n      add\n      returndatacopy\n      jump(tag_46)\n    tag_47:\n      0x60\n      swap2\n      pop\n    tag_46:\n      pop\n        /* \"contracts/KipuBank.sol\":2420:2481  (bool succes, ) = payable(msg.sender).call{value: _monto}(\"\") */\n      pop\n      swap1\n      pop\n        /* \"contracts/KipuBank.sol\":2496:2502  succes */\n      dup1\n        /* \"contracts/KipuBank.sol\":2491:2559  if (!succes) revert KipuBank_ExtraccionRechazada(msg.sender, _monto) */\n      tag_48\n      jumpi\n        /* \"contracts/KipuBank.sol\":2540:2550  msg.sender */\n      caller\n        /* \"contracts/KipuBank.sol\":2552:2558  _monto */\n      dup3\n        /* \"contracts/KipuBank.sol\":2511:2559  KipuBank_ExtraccionRechazada(msg.sender, _monto) */\n      mload(0x40)\n      0x6c5e1a1400000000000000000000000000000000000000000000000000000000\n      dup2\n      mstore\n      0x04\n      add\n      tag_49\n      swap3\n      swap2\n      swap1\n      tag_21\n      jump\t// in\n    tag_49:\n      mload(0x40)\n      dup1\n      swap2\n      sub\n      swap1\n      revert\n        /* \"contracts/KipuBank.sol\":2491:2559  if (!succes) revert KipuBank_ExtraccionRechazada(msg.sender, _monto) */\n    tag_48:\n        /* \"contracts/KipuBank.sol\":2200:2566  {... */\n      pop\n        /* \"contracts/KipuBank.sol\":2155:2566  function _retirarFondos(uint _monto) private {... */\n      pop\n      jump\t// out\n        /* \"#utility.yul\":7:84   */\n    tag_50:\n        /* \"#utility.yul\":44:51   */\n      0x00\n        /* \"#utility.yul\":73:78   */\n      dup2\n        /* \"#utility.yul\":62:78   */\n      swap1\n      pop\n        /* \"#utility.yul\":7:84   */\n      swap2\n      swap1\n      pop\n      jump\t// out\n        /* \"#utility.yul\":90:208   */\n    tag_51:\n        /* \"#utility.yul\":177:201   */\n      tag_67\n        /* \"#utility.yul\":195:200   */\n      dup2\n        /* \"#utility.yul\":177:201   */\n      tag_50\n      jump\t// in\n    tag_67:\n        /* \"#utility.yul\":172:175   */\n      dup3\n        /* \"#utility.yul\":165:202   */\n      mstore\n        /* \"#utility.yul\":90:208   */\n      pop\n      pop\n      jump\t// out\n        /* \"#utility.yul\":214:436   */\n    tag_9:\n        /* \"#utility.yul\":307:311   */\n      0x00\n        /* \"#utility.yul\":345:347   */\n      0x20\n        /* \"#utility.yul\":334:343   */\n      dup3\n        /* \"#utility.yul\":330:348   */\n      add\n        /* \"#utility.yul\":322:348   */\n      swap1\n      pop\n        /* \"#utility.yul\":358:429   */\n      tag_69\n        /* \"#utility.yul\":426:427   */\n      0x00\n        /* \"#utility.yul\":415:424   */\n      dup4\n        /* \"#utility.yul\":411:428   */\n      add\n        /* \"#utility.yul\":402:408   */\n      dup5\n        /* \"#utility.yul\":358:429   */\n      tag_51\n      jump\t// in\n    tag_69:\n        /* \"#utility.yul\":214:436   */\n      swap3\n      swap2\n      pop\n      pop\n      jump\t// out\n        /* \"#utility.yul\":523:640   */\n    tag_53:\n        /* \"#utility.yul\":632:633   */\n      0x00\n        /* \"#utility.yul\":629:630   */\n      0x00\n        /* \"#utility.yul\":622:634   */\n      revert\n        /* \"#utility.yul\":769:891   */\n    tag_55:\n        /* \"#utility.yul\":842:866   */\n      tag_74\n        /* \"#utility.yul\":860:865   */\n      dup2\n        /* \"#utility.yul\":842:866   */\n      tag_50\n      jump\t// in\n    tag_74:\n        /* \"#utility.yul\":835:840   */\n      dup2\n        /* \"#utility.yul\":832:867   */\n      eq\n        /* \"#utility.yul\":822:885   */\n      tag_75\n      jumpi\n        /* \"#utility.yul\":881:882   */\n      0x00\n        /* \"#utility.yul\":878:879   */\n      0x00\n        /* \"#utility.yul\":871:883   */\n      revert\n        /* \"#utility.yul\":822:885   */\n    tag_75:\n        /* \"#utility.yul\":769:891   */\n      pop\n      jump\t// out\n        /* \"#utility.yul\":897:1036   */\n    tag_56:\n        /* \"#utility.yul\":943:948   */\n      0x00\n        /* \"#utility.yul\":981:987   */\n      dup2\n        /* \"#utility.yul\":968:988   */\n      calldataload\n        /* \"#utility.yul\":959:988   */\n      swap1\n      pop\n        /* \"#utility.yul\":997:1030   */\n      tag_77\n        /* \"#utility.yul\":1024:1029   */\n      dup2\n        /* \"#utility.yul\":997:1030   */\n      tag_55\n      jump\t// in\n    tag_77:\n        /* \"#utility.yul\":897:1036   */\n      swap3\n      swap2\n      pop\n      pop\n      jump\t// out\n        /* \"#utility.yul\":1042:1371   */\n    tag_13:\n        /* \"#utility.yul\":1101:1107   */\n      0x00\n        /* \"#utility.yul\":1150:1152   */\n      0x20\n        /* \"#utility.yul\":1138:1147   */\n      dup3\n        /* \"#utility.yul\":1129:1136   */\n      dup5\n        /* \"#utility.yul\":1125:1148   */\n      sub\n        /* \"#utility.yul\":1121:1153   */\n      slt\n        /* \"#utility.yul\":1118:1237   */\n      iszero\n      tag_79\n      jumpi\n        /* \"#utility.yul\":1156:1235   */\n      tag_80\n      tag_53\n      jump\t// in\n    tag_80:\n        /* \"#utility.yul\":1118:1237   */\n    tag_79:\n        /* \"#utility.yul\":1276:1277   */\n      0x00\n        /* \"#utility.yul\":1301:1354   */\n      tag_81\n        /* \"#utility.yul\":1346:1353   */\n      dup5\n        /* \"#utility.yul\":1337:1343   */\n      dup3\n        /* \"#utility.yul\":1326:1335   */\n      dup6\n        /* \"#utility.yul\":1322:1344   */\n      add\n        /* \"#utility.yul\":1301:1354   */\n      tag_56\n      jump\t// in\n    tag_81:\n        /* \"#utility.yul\":1291:1354   */\n      swap2\n      pop\n        /* \"#utility.yul\":1247:1364   */\n      pop\n        /* \"#utility.yul\":1042:1371   */\n      swap3\n      swap2\n      pop\n      pop\n      jump\t// out\n        /* \"#utility.yul\":1377:1503   */\n    tag_57:\n        /* \"#utility.yul\":1414:1421   */\n      0x00\n        /* \"#utility.yul\":1454:1496   */\n      0xffffffffffffffffffffffffffffffffffffffff\n        /* \"#utility.yul\":1447:1452   */\n      dup3\n        /* \"#utility.yul\":1443:1497   */\n      and\n        /* \"#utility.yul\":1432:1497   */\n      swap1\n      pop\n        /* \"#utility.yul\":1377:1503   */\n      swap2\n      swap1\n      pop\n      jump\t// out\n        /* \"#utility.yul\":1509:1605   */\n    tag_58:\n        /* \"#utility.yul\":1546:1553   */\n      0x00\n        /* \"#utility.yul\":1575:1599   */\n      tag_84\n        /* \"#utility.yul\":1593:1598   */\n      dup3\n        /* \"#utility.yul\":1575:1599   */\n      tag_57\n      jump\t// in\n    tag_84:\n        /* \"#utility.yul\":1564:1599   */\n      swap1\n      pop\n        /* \"#utility.yul\":1509:1605   */\n      swap2\n      swap1\n      pop\n      jump\t// out\n        /* \"#utility.yul\":1611:1729   */\n    tag_59:\n        /* \"#utility.yul\":1698:1722   */\n      tag_86\n        /* \"#utility.yul\":1716:1721   */\n      dup2\n        /* \"#utility.yul\":1698:1722   */\n      tag_58\n      jump\t// in\n    tag_86:\n        /* \"#utility.yul\":1693:1696   */\n      dup3\n        /* \"#utility.yul\":1686:1723   */\n      mstore\n        /* \"#utility.yul\":1611:1729   */\n      pop\n      pop\n      jump\t// out\n        /* \"#utility.yul\":1735:2067   */\n    tag_21:\n        /* \"#utility.yul\":1856:1860   */\n      0x00\n        /* \"#utility.yul\":1894:1896   */\n      0x40\n        /* \"#utility.yul\":1883:1892   */\n      dup3\n        /* \"#utility.yul\":1879:1897   */\n      add\n        /* \"#utility.yul\":1871:1897   */\n      swap1\n      pop\n        /* \"#utility.yul\":1907:1978   */\n      tag_88\n        /* \"#utility.yul\":1975:1976   */\n      0x00\n        /* \"#utility.yul\":1964:1973   */\n      dup4\n        /* \"#utility.yul\":1960:1977   */\n      add\n        /* \"#utility.yul\":1951:1957   */\n      dup6\n        /* \"#utility.yul\":1907:1978   */\n      tag_59\n      jump\t// in\n    tag_88:\n        /* \"#utility.yul\":1988:2060   */\n      tag_89\n        /* \"#utility.yul\":2056:2058   */\n      0x20\n        /* \"#utility.yul\":2045:2054   */\n      dup4\n        /* \"#utility.yul\":2041:2059   */\n      add\n        /* \"#utility.yul\":2032:2038   */\n      dup5\n        /* \"#utility.yul\":1988:2060   */\n      tag_51\n      jump\t// in\n    tag_89:\n        /* \"#utility.yul\":1735:2067   */\n      swap4\n      swap3\n      pop\n      pop\n      pop\n      jump\t// out\n        /* \"#utility.yul\":2073:2253   */\n    tag_60:\n        /* \"#utility.yul\":2121:2198   */\n      0x4e487b7100000000000000000000000000000000000000000000000000000000\n        /* \"#utility.yul\":2118:2119   */\n      0x00\n        /* \"#utility.yul\":2111:2199   */\n      mstore\n        /* \"#utility.yul\":2218:2222   */\n      0x11\n        /* \"#utility.yul\":2215:2216   */\n      0x04\n        /* \"#utility.yul\":2208:2223   */\n      mstore\n        /* \"#utility.yul\":2242:2246   */\n      0x24\n        /* \"#utility.yul\":2239:2240   */\n      0x00\n        /* \"#utility.yul\":2232:2247   */\n      revert\n        /* \"#utility.yul\":2259:2450   */\n    tag_29:\n        /* \"#utility.yul\":2299:2302   */\n      0x00\n        /* \"#utility.yul\":2318:2338   */\n      tag_92\n        /* \"#utility.yul\":2336:2337   */\n      dup3\n        /* \"#utility.yul\":2318:2338   */\n      tag_50\n      jump\t// in\n    tag_92:\n        /* \"#utility.yul\":2313:2338   */\n      swap2\n      pop\n        /* \"#utility.yul\":2352:2372   */\n      tag_93\n        /* \"#utility.yul\":2370:2371   */\n      dup4\n        /* \"#utility.yul\":2352:2372   */\n      tag_50\n      jump\t// in\n    tag_93:\n        /* \"#utility.yul\":2347:2372   */\n      swap3\n      pop\n        /* \"#utility.yul\":2395:2396   */\n      dup3\n        /* \"#utility.yul\":2392:2393   */\n      dup3\n        /* \"#utility.yul\":2388:2397   */\n      add\n        /* \"#utility.yul\":2381:2397   */\n      swap1\n      pop\n        /* \"#utility.yul\":2416:2419   */\n      dup1\n        /* \"#utility.yul\":2413:2414   */\n      dup3\n        /* \"#utility.yul\":2410:2420   */\n      gt\n        /* \"#utility.yul\":2407:2443   */\n      iszero\n      tag_94\n      jumpi\n        /* \"#utility.yul\":2423:2441   */\n      tag_95\n      tag_60\n      jump\t// in\n    tag_95:\n        /* \"#utility.yul\":2407:2443   */\n    tag_94:\n        /* \"#utility.yul\":2259:2450   */\n      swap3\n      swap2\n      pop\n      pop\n      jump\t// out\n        /* \"#utility.yul\":2456:2650   */\n    tag_39:\n        /* \"#utility.yul\":2496:2500   */\n      0x00\n        /* \"#utility.yul\":2516:2536   */\n      tag_97\n        /* \"#utility.yul\":2534:2535   */\n      dup3\n        /* \"#utility.yul\":2516:2536   */\n      tag_50\n      jump\t// in\n    tag_97:\n        /* \"#utility.yul\":2511:2536   */\n      swap2\n      pop\n        /* \"#utility.yul\":2550:2570   */\n      tag_98\n        /* \"#utility.yul\":2568:2569   */\n      dup4\n        /* \"#utility.yul\":2550:2570   */\n      tag_50\n      jump\t// in\n    tag_98:\n        /* \"#utility.yul\":2545:2570   */\n      swap3\n      pop\n        /* \"#utility.yul\":2594:2595   */\n      dup3\n        /* \"#utility.yul\":2591:2592   */\n      dup3\n        /* \"#utility.yul\":2587:2596   */\n      sub\n        /* \"#utility.yul\":2579:2596   */\n      swap1\n      pop\n        /* \"#utility.yul\":2618:2619   */\n      dup2\n        /* \"#utility.yul\":2612:2616   */\n      dup2\n        /* \"#utility.yul\":2609:2620   */\n      gt\n        /* \"#utility.yul\":2606:2643   */\n      iszero\n      tag_99\n      jumpi\n        /* \"#utility.yul\":2623:2641   */\n      tag_100\n      tag_60\n      jump\t// in\n    tag_100:\n        /* \"#utility.yul\":2606:2643   */\n    tag_99:\n        /* \"#utility.yul\":2456:2650   */\n      swap3\n      swap2\n      pop\n      pop\n      jump\t// out\n        /* \"#utility.yul\":2656:2803   */\n    tag_61:\n        /* \"#utility.yul\":2757:2768   */\n      0x00\n        /* \"#utility.yul\":2794:2797   */\n      dup2\n        /* \"#utility.yul\":2779:2797   */\n      swap1\n      pop\n        /* \"#utility.yul\":2656:2803   */\n      swap3\n      swap2\n      pop\n      pop\n      jump\t// out\n        /* \"#utility.yul\":2809:2923   */\n    tag_62:\n      pop\n      jump\t// out\n        /* \"#utility.yul\":2929:3327   */\n    tag_63:\n        /* \"#utility.yul\":3088:3091   */\n      0x00\n        /* \"#utility.yul\":3109:3192   */\n      tag_104\n        /* \"#utility.yul\":3190:3191   */\n      0x00\n        /* \"#utility.yul\":3185:3188   */\n      dup4\n        /* \"#utility.yul\":3109:3192   */\n      tag_61\n      jump\t// in\n    tag_104:\n        /* \"#utility.yul\":3102:3192   */\n      swap2\n      pop\n        /* \"#utility.yul\":3201:3294   */\n      tag_105\n        /* \"#utility.yul\":3290:3293   */\n      dup3\n        /* \"#utility.yul\":3201:3294   */\n      tag_62\n      jump\t// in\n    tag_105:\n        /* \"#utility.yul\":3319:3320   */\n      0x00\n        /* \"#utility.yul\":3314:3317   */\n      dup3\n        /* \"#utility.yul\":3310:3321   */\n      add\n        /* \"#utility.yul\":3303:3321   */\n      swap1\n      pop\n        /* \"#utility.yul\":2929:3327   */\n      swap2\n      swap1\n      pop\n      jump\t// out\n        /* \"#utility.yul\":3333:3712   */\n    tag_44:\n        /* \"#utility.yul\":3517:3520   */\n      0x00\n        /* \"#utility.yul\":3539:3686   */\n      tag_107\n        /* \"#utility.yul\":3682:3685   */\n      dup3\n        /* \"#utility.yul\":3539:3686   */\n      tag_63\n      jump\t// in\n    tag_107:\n        /* \"#utility.yul\":3532:3686   */\n      swap2\n      pop\n        /* \"#utility.yul\":3703:3706   */\n      dup2\n        /* \"#utility.yul\":3696:3706   */\n      swap1\n      pop\n        /* \"#utility.yul\":3333:3712   */\n      swap2\n      swap1\n      pop\n      jump\t// out\n\n    auxdata: 0xa2646970667358221220e8f5d8dafefdd06f4e8e38e83c67fb5827b7856884d3d00817504151db8f31c764736f6c634300081e0033\n}\n",
				"bytecode": {
					"linkReferences": {},
					"object": "60a0604052348015600e575f5ffd5b506040516107673803806107678339818101604052810190602e91906081565b80608081815250505f5f819055505f6001819055505f6002819055505060a7565b5f5ffd5b5f819050919050565b6063816053565b8114606c575f5ffd5b50565b5f81519050607b81605c565b92915050565b5f602082840312156093576092604f565b5b5f609e84828501606f565b91505092915050565b6080516106a86100bf5f395f6101b401526106a85ff3fe608060405260043610610033575f3560e01c80636900670c146100375780638debc4a814610061578063acaf5a1414610089575b5f5ffd5b348015610042575f5ffd5b5061004b610093565b60405161005891906104c6565b60405180910390f35b34801561006c575f5ffd5b506100876004803603810190610082919061050d565b6100d7565b005b6100916101b1565b005b5f60035f3373ffffffffffffffffffffffffffffffffffffffff1673ffffffffffffffffffffffffffffffffffffffff1681526020019081526020015f2054905090565b80600a8111156101205733816040517f6c5e1a14000000000000000000000000000000000000000000000000000000008152600401610117929190610577565b60405180910390fd5b60035f3373ffffffffffffffffffffffffffffffffffffffff1673ffffffffffffffffffffffffffffffffffffffff1681526020019081526020015f20548111156101a45733816040517f6c5e1a1400000000000000000000000000000000000000000000000000000000815260040161019b929190610577565b60405180910390fd5b6101ad82610313565b5050565b347f0000000000000000000000000000000000000000000000000000000000000000600254826101e191906105cb565b11156102265733816040517ffb2fbc9b00000000000000000000000000000000000000000000000000000000815260040161021d929190610577565b60405180910390fd5b3460035f3373ffffffffffffffffffffffffffffffffffffffff1673ffffffffffffffffffffffffffffffffffffffff1681526020019081526020015f205461026f91906105cb565b60035f3373ffffffffffffffffffffffffffffffffffffffff1673ffffffffffffffffffffffffffffffffffffffff1681526020019081526020015f208190555060015f546102be91906105cb565b5f81905550346002546102d191906105cb565b6002819055507f9d15693852bf60dc27bd5aa831d0351359b7d01d428ae1baae11f15cbcfebafd3334604051610308929190610577565b60405180910390a150565b8060035f3373ffffffffffffffffffffffffffffffffffffffff1673ffffffffffffffffffffffffffffffffffffffff1681526020019081526020015f205461035c91906105fe565b60035f3373ffffffffffffffffffffffffffffffffffffffff1673ffffffffffffffffffffffffffffffffffffffff1681526020019081526020015f2081905550600180546103ab91906105cb565b600181905550806002546103bf91906105fe565b6002819055507f9cde449504e4972ffddec09813e0c252a1462d76bef1864b9e7520dadb7183e833826040516103f6929190610577565b60405180910390a15f3373ffffffffffffffffffffffffffffffffffffffff16826040516104239061065e565b5f6040518083038185875af1925050503d805f811461045d576040519150601f19603f3d011682016040523d82523d5f602084013e610462565b606091505b50509050806104aa5733826040517f6c5e1a140000000000000000000000000000000000000000000000000000000081526004016104a1929190610577565b60405180910390fd5b5050565b5f819050919050565b6104c0816104ae565b82525050565b5f6020820190506104d95f8301846104b7565b92915050565b5f5ffd5b6104ec816104ae565b81146104f6575f5ffd5b50565b5f81359050610507816104e3565b92915050565b5f60208284031215610522576105216104df565b5b5f61052f848285016104f9565b91505092915050565b5f73ffffffffffffffffffffffffffffffffffffffff82169050919050565b5f61056182610538565b9050919050565b61057181610557565b82525050565b5f60408201905061058a5f830185610568565b61059760208301846104b7565b9392505050565b7f4e487b71000000000000000000000000000000000000000000000000000000005f52601160045260245ffd5b5f6105d5826104ae565b91506105e0836104ae565b92508282019050808211156105f8576105f761059e565b5b92915050565b5f610608826104ae565b9150610613836104ae565b925082820390508181111561062b5761062a61059e565b5b92915050565b5f81905092915050565b50565b5f6106495f83610631565b91506106548261063b565b5f82019050919050565b5f6106688261063e565b915081905091905056fea2646970667358221220e8f5d8dafefdd06f4e8e38e83c67fb5827b7856884d3d00817504151db8f31c764736f6c634300081e0033",
					"opcodes": "PUSH1 0xA0 PUSH1 0x40 MSTORE CALLVALUE DUP1 ISZERO PUSH1 0xE JUMPI PUSH0 PUSH0 REVERT JUMPDEST POP PUSH1 0x40 MLOAD PUSH2 0x767 CODESIZE SUB DUP1 PUSH2 0x767 DUP4 CODECOPY DUP2 DUP2 ADD PUSH1 0x40 MSTORE DUP2 ADD SWAP1 PUSH1 0x2E SWAP2 SWAP1 PUSH1 0x81 JUMP JUMPDEST DUP1 PUSH1 0x80 DUP2 DUP2 MSTORE POP POP PUSH0 PUSH0 DUP2 SWAP1 SSTORE POP PUSH0 PUSH1 0x1 DUP2 SWAP1 SSTORE POP PUSH0 PUSH1 0x2 DUP2 SWAP1 SSTORE POP POP PUSH1 0xA7 JUMP JUMPDEST PUSH0 PUSH0 REVERT JUMPDEST PUSH0 DUP2 SWAP1 POP SWAP2 SWAP1 POP JUMP JUMPDEST PUSH1 0x63 DUP2 PUSH1 0x53 JUMP JUMPDEST DUP2 EQ PUSH1 0x6C JUMPI PUSH0 PUSH0 REVERT JUMPDEST POP JUMP JUMPDEST PUSH0 DUP2 MLOAD SWAP1 POP PUSH1 0x7B DUP2 PUSH1 0x5C JUMP JUMPDEST SWAP3 SWAP2 POP POP JUMP JUMPDEST PUSH0 PUSH1 0x20 DUP3 DUP5 SUB SLT ISZERO PUSH1 0x93 JUMPI PUSH1 0x92 PUSH1 0x4F JUMP JUMPDEST JUMPDEST PUSH0 PUSH1 0x9E DUP5 DUP3 DUP6 ADD PUSH1 0x6F JUMP JUMPDEST SWAP2 POP POP SWAP3 SWAP2 POP POP JUMP JUMPDEST PUSH1 0x80 MLOAD PUSH2 0x6A8 PUSH2 0xBF PUSH0 CODECOPY PUSH0 PUSH2 0x1B4 ADD MSTORE PUSH2 0x6A8 PUSH0 RETURN INVALID PUSH1 0x80 PUSH1 0x40 MSTORE PUSH1 0x4 CALLDATASIZE LT PUSH2 0x33 JUMPI PUSH0 CALLDATALOAD PUSH1 0xE0 SHR DUP1 PUSH4 0x6900670C EQ PUSH2 0x37 JUMPI DUP1 PUSH4 0x8DEBC4A8 EQ PUSH2 0x61 JUMPI DUP1 PUSH4 0xACAF5A14 EQ PUSH2 0x89 JUMPI JUMPDEST PUSH0 PUSH0 REVERT JUMPDEST CALLVALUE DUP1 ISZERO PUSH2 0x42 JUMPI PUSH0 PUSH0 REVERT JUMPDEST POP PUSH2 0x4B PUSH2 0x93 JUMP JUMPDEST PUSH1 0x40 MLOAD PUSH2 0x58 SWAP2 SWAP1 PUSH2 0x4C6 JUMP JUMPDEST PUSH1 0x40 MLOAD DUP1 SWAP2 SUB SWAP1 RETURN JUMPDEST CALLVALUE DUP1 ISZERO PUSH2 0x6C JUMPI PUSH0 PUSH0 REVERT JUMPDEST POP PUSH2 0x87 PUSH1 0x4 DUP1 CALLDATASIZE SUB DUP2 ADD SWAP1 PUSH2 0x82 SWAP2 SWAP1 PUSH2 0x50D JUMP JUMPDEST PUSH2 0xD7 JUMP JUMPDEST STOP JUMPDEST PUSH2 0x91 PUSH2 0x1B1 JUMP JUMPDEST STOP JUMPDEST PUSH0 PUSH1 0x3 PUSH0 CALLER PUSH20 0xFFFFFFFFFFFFFFFFFFFFFFFFFFFFFFFFFFFFFFFF AND PUSH20 0xFFFFFFFFFFFFFFFFFFFFFFFFFFFFFFFFFFFFFFFF AND DUP2 MSTORE PUSH1 0x20 ADD SWAP1 DUP2 MSTORE PUSH1 0x20 ADD PUSH0 KECCAK256 SLOAD SWAP1 POP SWAP1 JUMP JUMPDEST DUP1 PUSH1 0xA DUP2 GT ISZERO PUSH2 0x120 JUMPI CALLER DUP2 PUSH1 0x40 MLOAD PUSH32 0x6C5E1A1400000000000000000000000000000000000000000000000000000000 DUP2 MSTORE PUSH1 0x4 ADD PUSH2 0x117 SWAP3 SWAP2 SWAP1 PUSH2 0x577 JUMP JUMPDEST PUSH1 0x40 MLOAD DUP1 SWAP2 SUB SWAP1 REVERT JUMPDEST PUSH1 0x3 PUSH0 CALLER PUSH20 0xFFFFFFFFFFFFFFFFFFFFFFFFFFFFFFFFFFFFFFFF AND PUSH20 0xFFFFFFFFFFFFFFFFFFFFFFFFFFFFFFFFFFFFFFFF AND DUP2 MSTORE PUSH1 0x20 ADD SWAP1 DUP2 MSTORE PUSH1 0x20 ADD PUSH0 KECCAK256 SLOAD DUP2 GT ISZERO PUSH2 0x1A4 JUMPI CALLER DUP2 PUSH1 0x40 MLOAD PUSH32 0x6C5E1A1400000000000000000000000000000000000000000000000000000000 DUP2 MSTORE PUSH1 0x4 ADD PUSH2 0x19B SWAP3 SWAP2 SWAP1 PUSH2 0x577 JUMP JUMPDEST PUSH1 0x40 MLOAD DUP1 SWAP2 SUB SWAP1 REVERT JUMPDEST PUSH2 0x1AD DUP3 PUSH2 0x313 JUMP JUMPDEST POP POP JUMP JUMPDEST CALLVALUE PUSH32 0x0 PUSH1 0x2 SLOAD DUP3 PUSH2 0x1E1 SWAP2 SWAP1 PUSH2 0x5CB JUMP JUMPDEST GT ISZERO PUSH2 0x226 JUMPI CALLER DUP2 PUSH1 0x40 MLOAD PUSH32 0xFB2FBC9B00000000000000000000000000000000000000000000000000000000 DUP2 MSTORE PUSH1 0x4 ADD PUSH2 0x21D SWAP3 SWAP2 SWAP1 PUSH2 0x577 JUMP JUMPDEST PUSH1 0x40 MLOAD DUP1 SWAP2 SUB SWAP1 REVERT JUMPDEST CALLVALUE PUSH1 0x3 PUSH0 CALLER PUSH20 0xFFFFFFFFFFFFFFFFFFFFFFFFFFFFFFFFFFFFFFFF AND PUSH20 0xFFFFFFFFFFFFFFFFFFFFFFFFFFFFFFFFFFFFFFFF AND DUP2 MSTORE PUSH1 0x20 ADD SWAP1 DUP2 MSTORE PUSH1 0x20 ADD PUSH0 KECCAK256 SLOAD PUSH2 0x26F SWAP2 SWAP1 PUSH2 0x5CB JUMP JUMPDEST PUSH1 0x3 PUSH0 CALLER PUSH20 0xFFFFFFFFFFFFFFFFFFFFFFFFFFFFFFFFFFFFFFFF AND PUSH20 0xFFFFFFFFFFFFFFFFFFFFFFFFFFFFFFFFFFFFFFFF AND DUP2 MSTORE PUSH1 0x20 ADD SWAP1 DUP2 MSTORE PUSH1 0x20 ADD PUSH0 KECCAK256 DUP2 SWAP1 SSTORE POP PUSH1 0x1 PUSH0 SLOAD PUSH2 0x2BE SWAP2 SWAP1 PUSH2 0x5CB JUMP JUMPDEST PUSH0 DUP2 SWAP1 SSTORE POP CALLVALUE PUSH1 0x2 SLOAD PUSH2 0x2D1 SWAP2 SWAP1 PUSH2 0x5CB JUMP JUMPDEST PUSH1 0x2 DUP2 SWAP1 SSTORE POP PUSH32 0x9D15693852BF60DC27BD5AA831D0351359B7D01D428AE1BAAE11F15CBCFEBAFD CALLER CALLVALUE PUSH1 0x40 MLOAD PUSH2 0x308 SWAP3 SWAP2 SWAP1 PUSH2 0x577 JUMP JUMPDEST PUSH1 0x40 MLOAD DUP1 SWAP2 SUB SWAP1 LOG1 POP JUMP JUMPDEST DUP1 PUSH1 0x3 PUSH0 CALLER PUSH20 0xFFFFFFFFFFFFFFFFFFFFFFFFFFFFFFFFFFFFFFFF AND PUSH20 0xFFFFFFFFFFFFFFFFFFFFFFFFFFFFFFFFFFFFFFFF AND DUP2 MSTORE PUSH1 0x20 ADD SWAP1 DUP2 MSTORE PUSH1 0x20 ADD PUSH0 KECCAK256 SLOAD PUSH2 0x35C SWAP2 SWAP1 PUSH2 0x5FE JUMP JUMPDEST PUSH1 0x3 PUSH0 CALLER PUSH20 0xFFFFFFFFFFFFFFFFFFFFFFFFFFFFFFFFFFFFFFFF AND PUSH20 0xFFFFFFFFFFFFFFFFFFFFFFFFFFFFFFFFFFFFFFFF AND DUP2 MSTORE PUSH1 0x20 ADD SWAP1 DUP2 MSTORE PUSH1 0x20 ADD PUSH0 KECCAK256 DUP2 SWAP1 SSTORE POP PUSH1 0x1 DUP1 SLOAD PUSH2 0x3AB SWAP2 SWAP1 PUSH2 0x5CB JUMP JUMPDEST PUSH1 0x1 DUP2 SWAP1 SSTORE POP DUP1 PUSH1 0x2 SLOAD PUSH2 0x3BF SWAP2 SWAP1 PUSH2 0x5FE JUMP JUMPDEST PUSH1 0x2 DUP2 SWAP1 SSTORE POP PUSH32 0x9CDE449504E4972FFDDEC09813E0C252A1462D76BEF1864B9E7520DADB7183E8 CALLER DUP3 PUSH1 0x40 MLOAD PUSH2 0x3F6 SWAP3 SWAP2 SWAP1 PUSH2 0x577 JUMP JUMPDEST PUSH1 0x40 MLOAD DUP1 SWAP2 SUB SWAP1 LOG1 PUSH0 CALLER PUSH20 0xFFFFFFFFFFFFFFFFFFFFFFFFFFFFFFFFFFFFFFFF AND DUP3 PUSH1 0x40 MLOAD PUSH2 0x423 SWAP1 PUSH2 0x65E JUMP JUMPDEST PUSH0 PUSH1 0x40 MLOAD DUP1 DUP4 SUB DUP2 DUP6 DUP8 GAS CALL SWAP3 POP POP POP RETURNDATASIZE DUP1 PUSH0 DUP2 EQ PUSH2 0x45D JUMPI PUSH1 0x40 MLOAD SWAP2 POP PUSH1 0x1F NOT PUSH1 0x3F RETURNDATASIZE ADD AND DUP3 ADD PUSH1 0x40 MSTORE RETURNDATASIZE DUP3 MSTORE RETURNDATASIZE PUSH0 PUSH1 0x20 DUP5 ADD RETURNDATACOPY PUSH2 0x462 JUMP JUMPDEST PUSH1 0x60 SWAP2 POP JUMPDEST POP POP SWAP1 POP DUP1 PUSH2 0x4AA JUMPI CALLER DUP3 PUSH1 0x40 MLOAD PUSH32 0x6C5E1A1400000000000000000000000000000000000000000000000000000000 DUP2 MSTORE PUSH1 0x4 ADD PUSH2 0x4A1 SWAP3 SWAP2 SWAP1 PUSH2 0x577 JUMP JUMPDEST PUSH1 0x40 MLOAD DUP1 SWAP2 SUB SWAP1 REVERT JUMPDEST POP POP JUMP JUMPDEST PUSH0 DUP2 SWAP1 POP SWAP2 SWAP1 POP JUMP JUMPDEST PUSH2 0x4C0 DUP2 PUSH2 0x4AE JUMP JUMPDEST DUP3 MSTORE POP POP JUMP JUMPDEST PUSH0 PUSH1 0x20 DUP3 ADD SWAP1 POP PUSH2 0x4D9 PUSH0 DUP4 ADD DUP5 PUSH2 0x4B7 JUMP JUMPDEST SWAP3 SWAP2 POP POP JUMP JUMPDEST PUSH0 PUSH0 REVERT JUMPDEST PUSH2 0x4EC DUP2 PUSH2 0x4AE JUMP JUMPDEST DUP2 EQ PUSH2 0x4F6 JUMPI PUSH0 PUSH0 REVERT JUMPDEST POP JUMP JUMPDEST PUSH0 DUP2 CALLDATALOAD SWAP1 POP PUSH2 0x507 DUP2 PUSH2 0x4E3 JUMP JUMPDEST SWAP3 SWAP2 POP POP JUMP JUMPDEST PUSH0 PUSH1 0x20 DUP3 DUP5 SUB SLT ISZERO PUSH2 0x522 JUMPI PUSH2 0x521 PUSH2 0x4DF JUMP JUMPDEST JUMPDEST PUSH0 PUSH2 0x52F DUP5 DUP3 DUP6 ADD PUSH2 0x4F9 JUMP JUMPDEST SWAP2 POP POP SWAP3 SWAP2 POP POP JUMP JUMPDEST PUSH0 PUSH20 0xFFFFFFFFFFFFFFFFFFFFFFFFFFFFFFFFFFFFFFFF DUP3 AND SWAP1 POP SWAP2 SWAP1 POP JUMP JUMPDEST PUSH0 PUSH2 0x561 DUP3 PUSH2 0x538 JUMP JUMPDEST SWAP1 POP SWAP2 SWAP1 POP JUMP JUMPDEST PUSH2 0x571 DUP2 PUSH2 0x557 JUMP JUMPDEST DUP3 MSTORE POP POP JUMP JUMPDEST PUSH0 PUSH1 0x40 DUP3 ADD SWAP1 POP PUSH2 0x58A PUSH0 DUP4 ADD DUP6 PUSH2 0x568 JUMP JUMPDEST PUSH2 0x597 PUSH1 0x20 DUP4 ADD DUP5 PUSH2 0x4B7 JUMP JUMPDEST SWAP4 SWAP3 POP POP POP JUMP JUMPDEST PUSH32 0x4E487B7100000000000000000000000000000000000000000000000000000000 PUSH0 MSTORE PUSH1 0x11 PUSH1 0x4 MSTORE PUSH1 0x24 PUSH0 REVERT JUMPDEST PUSH0 PUSH2 0x5D5 DUP3 PUSH2 0x4AE JUMP JUMPDEST SWAP2 POP PUSH2 0x5E0 DUP4 PUSH2 0x4AE JUMP JUMPDEST SWAP3 POP DUP3 DUP3 ADD SWAP1 POP DUP1 DUP3 GT ISZERO PUSH2 0x5F8 JUMPI PUSH2 0x5F7 PUSH2 0x59E JUMP JUMPDEST JUMPDEST SWAP3 SWAP2 POP POP JUMP JUMPDEST PUSH0 PUSH2 0x608 DUP3 PUSH2 0x4AE JUMP JUMPDEST SWAP2 POP PUSH2 0x613 DUP4 PUSH2 0x4AE JUMP JUMPDEST SWAP3 POP DUP3 DUP3 SUB SWAP1 POP DUP2 DUP2 GT ISZERO PUSH2 0x62B JUMPI PUSH2 0x62A PUSH2 0x59E JUMP JUMPDEST JUMPDEST SWAP3 SWAP2 POP POP JUMP JUMPDEST PUSH0 DUP2 SWAP1 POP SWAP3 SWAP2 POP POP JUMP JUMPDEST POP JUMP JUMPDEST PUSH0 PUSH2 0x649 PUSH0 DUP4 PUSH2 0x631 JUMP JUMPDEST SWAP2 POP PUSH2 0x654 DUP3 PUSH2 0x63B JUMP JUMPDEST PUSH0 DUP3 ADD SWAP1 POP SWAP2 SWAP1 POP JUMP JUMPDEST PUSH0 PUSH2 0x668 DUP3 PUSH2 0x63E JUMP JUMPDEST SWAP2 POP DUP2 SWAP1 POP SWAP2 SWAP1 POP JUMP INVALID LOG2 PUSH5 0x6970667358 0x22 SLT KECCAK256 0xE8 CREATE2 0xD8 0xDA INVALID REVERT 0xD0 PUSH16 0x4E8E38E83C67FB5827B7856884D3D008 OR POP COINBASE MLOAD 0xDB DUP16 BALANCE 0xC7 PUSH5 0x736F6C6343 STOP ADDMOD 0x1E STOP CALLER "
				},
				"gasEstimates": {
					"creation": {
						"codeDepositCost": "340800",
						"executionCost": "infinite",
						"totalCost": "infinite"
					},
					"external": {
						"depositarEnBoveda()": "infinite",
						"retirarDeBoveda(uint256)": "infinite",
						"verBoveda()": "2497"
					},
					"internal": {
						"_retirarFondos(uint256)": "infinite"
					}
				},
				"methodIdentifiers": {
					"depositarEnBoveda()": "acaf5a14",
					"retirarDeBoveda(uint256)": "8debc4a8",
					"verBoveda()": "6900670c"
				}
			},
			"storageLayout": {
				"storage": [
					{
						"astId": 8,
						"contract": "contracts/KipuBank.sol:KipuBank",
						"label": "depositos",
						"offset": 0,
						"slot": "0",
						"type": "t_uint256"
					},
					{
						"astId": 10,
						"contract": "contracts/KipuBank.sol:KipuBank",
						"label": "retiros",
						"offset": 0,
						"slot": "1",
						"type": "t_uint256"
					},
					{
						"astId": 12,
						"contract": "contracts/KipuBank.sol:KipuBank",
						"label": "totalContrato",
						"offset": 0,
						"slot": "2",
						"type": "t_uint256"
					},
					{
						"astId": 16,
						"contract": "contracts/KipuBank.sol:KipuBank",
						"label": "boveda",
						"offset": 0,
						"slot": "3",
						"type": "t_mapping(t_address,t_uint256)"
					}
				],
				"types": {
					"t_address": {
						"encoding": "inplace",
						"label": "address",
						"numberOfBytes": "20"
					},
					"t_mapping(t_address,t_uint256)": {
						"encoding": "mapping",
						"key": "t_address",
						"label": "mapping(address => uint256)",
						"numberOfBytes": "32",
						"value": "t_uint256"
					},
					"t_uint256": {
						"encoding": "inplace",
						"label": "uint256",
						"numberOfBytes": "32"
					}
				}
			},
			"userdoc": {
				"kind": "user",
				"methods": {},
				"version": 1
			}
		}
	}
}